:020000040800F2
:10000000F0600120F55B0008FD5B000885720008C8
:10001000015C0008035C0008055C000800000000AB
:10002000000000000000000000000000D5020008F1
:10003000095C00080000000081030008F5030008C7
:10004000837200080F5C00080F5C00080F5C00085A
:100050000F5C00080F5C00080F5C00080F5C0008D4
:100060000F5C00080F5C00080F5C00080F5C0008C4
:100070000F5C00080F5C00087F7500080F5C00082B
:100080000F5C00080F5C00080F5C00084F69000857
:10009000916900080F5C00080F5C00080F5C000805
:1000A0000F5C0008357200080F5C00080F5C000848
:1000B00047760008097700080F5C00080F5C00080D
:1000C0000F5C00080F5C00080F5C00080F5C000864
:1000D0000B6E0008C37300080F5C00089D750008D4
:1000E0000F5C00080F5C00080F5C00080F5C000844
:1000F0000F5C00080F5C00080F5C00080F5C000834
:100100000F5C00080F5C00080F5C00080F5C000823
:100110000F5C00080F5C00080F5C00080F5C000813
:100120000F5C00080F5C00080F5C00080F5C000803
:100130000F5C0008276200080F5C0008CB6900080C
:10014000116A00080F5C00080F5C00080F5C0008D3
:100150000F5C00080F5C00089F7300080F5C00082C
:100160000F5C00080F5C00080F5C00080F5C0008C3
:100170000F5C00080F5C00080F5C00080F5C0008B3
:100180000F5C00080F5C000800F002F800F05EF859
:100190000AA090E8000C82448344AAF10107DA45E2
:1001A00001D100F053F8AFF2090EBAE80F0013F0D6
:1001B000010F18BFFB1A43F00103184720A80000E5
:1001C00040A800000A444FF0000C10F8013B13F067
:1001D000070408BF10F8014B1D1108BF10F8015BA0
:1001E000641E05D010F8016B641E01F8016BF9D193
:1001F00013F0080F1EBF10F8014BAD1C0C1B09D1EA
:100200006D1E58BF01F801CBFAD505E014F8016B5B
:1002100001F8016B6D1EF9D59142D6D370470000ED
:100220000023002400250026103A28BF78C1FBD8FF
:10023000520728BF30C148BF0B6070471FB50AF096
:10024000B5F907F01BFC1FBD10B510BD07F028FC69
:100250001146FFF7F3FF00F0C8F907F046FC03B4BE
:10026000FFF7F2FF03BC07F047FC000080F30988AA
:100270007047EFF309807047684680F309880448A7
:100280000078C00714BF0220032080F31488704751
:100290008CA90008DFF818C0EFF305831B0618BF10
:1002A0006047EFF31483DB0708BF604700DF704748
:1002B000098E0008DFF818C0EFF305831B0618BF8E
:1002C0006047EFF31483DB0708BF604700DF704728
:1002D000B18F0008EFF30980816911F8021CC9BBD6
:1002E00010B590E80F10E047BDE81040EFF3098C1F
:1002F000204B93E80600914229D081B10CB41EF046
:10030000100F06BF2CED108A0323012381F826303D
:100310002CE9F00FC1F82CC009F0FCF90CBC1A60F4
:10032000D2F82CC0BCE8F00F92F8263013F0020F80
:100330001ABFBCEC108A6FF0120E6FF0020E8CF335
:10034000098813F0010F08BF704792F82500CCF818
:100350000000704710B5084A1268914209D8074C4E
:1003600054F8214090E80F10A047EFF3098C8CE877
:100370000F0010BD38010020087B0008087B000832
:1003800010B509F061F8BDE81040194B93E806007C
:10039000914208BF70470CB4EFF3098C1EF0100FA8
:1003A00006BF2CED108A0223002381F826302CE9A9
:1003B000F00FC1F82CC009F0ADF90CBC1A60D2F8EE
:1003C0002CC0BCE8F00F92F8263013F0020F1ABFD1
:1003D000BCEC108A6FF0120E6FF0020E8CF30988DD
:1003E00013F0010F1CBF92F82530CCF80030704795
:1003F0003801002010B509F05FFAC4E710B508F025
:10040000C9FC09F059FABEE7D34A0321002009F0DC
:100410006BFFD249487018B1D149098809F092FFA1
:100420000221D048DFF840C300DF08F021FCF7E7E5
:1004300006F0E0FE01F0ECFFC84C00251421CB488B
:10044000DFF824C300DF01280CD02078401CC0B2A4
:1004500020700A2803D92570032006F090FB03F0D2
:1004600099FDEBE7022006F08AFBE7E742F6E0643D
:100470002046DFF8FCC200DFFAE71FB5B74C0025C5
:1004800001226946104605F09CFA48B1A068401C5C
:10049000A060C82800D9A560002001F060FFEFE748
:1004A0006946002001F0D8FEA5606068401C6060CD
:1004B0000828E5D90520656006F061FBE0E71FB577
:1004C000A64C002501226946022005F07AFA48B1BF
:1004D0002069401C2061C82800D92561012001F055
:1004E0003EFFEFE76946012001F0B6FE2561E068B6
:1004F000401CE0600828E5D90420E56006F03FFBD9
:10050000E0E700219748DFF86CC200DF9A48DFF887
:100510006CC200DF06F0A3FD904C606206F0CCFCDC
:1005200006F0C2FB606A07F03CF906F0C9FA02F077
:10053000AFFC04F0EAFD08F089F9032001F062FE47
:1005400005F028FB0020E06106F073FD64212062C5
:100550000020DFF82CC200DF8A4A8B490023AFF26B
:100560002F10DFF828C200DF89490023894A08607C
:1005700085491431AFF26F10DFF810C200DF8649F1
:10058000DFF8FCC108601421002000DF834A8449A1
:100590000023AFF22710DFF8F4C100DF8149002308
:1005A000814A086078491131AFF23110DFF8DCC1BF
:1005B00000DF7E4D7A4900237D4A0F392860AFF273
:1005C0000110DFF8C8C100DF68606525E069411CE3
:1005D000E161642802D9E56101F033FF1420DFF8FE
:1005E00090C100DF09F06AFEF0E7FFF745FE002248
:1005F0001146AFF2F100DFF8BCC100DFFEE700E01A
:10060000401E0028FCD1704710B5544C6A496069FF
:10061000401C606188424FF0050002D306F09FFA4B
:1006200001E006F03FFA6549606988424FF0040036
:1006300002D306F094FA01E006F034FA60496069EA
:1006400088424FF0030002D306F089FA01E006F079
:1006500029FA5C49606988424FF0020002D306F033
:100660007EFA01E006F01EFA5749606988424FF0B1
:10067000010002D306F073FA01E006F013FA5349C1
:10068000606988424FF0000002D306F068FA01E08A
:1006900006F008FA60694E49401C6061884205D343
:1006A00000206061BDE8104006F069BA10BD464DFB
:1006B000464F484EDFF82081DFF81491274C4FEA6F
:1006C000470A4FEA850BA069401CA061A8424FF081
:1006D000000002D306F043FA01E006F0E3F9A06956
:1006E000B0424FF0010002D306F039FA01E006F003
:1006F000D9F9A069B8424FF0020002D306F02FFAF0
:1007000001E006F0CFF9A1694FF00300414502D3A3
:1007100006F025FA01E006F0C5F9A1694FF00400E2
:10072000494502D306F01BFA01E006F0BBF9A169C6
:100730004FF00500514502D306F011FA01E006F032
:10074000B1F9A069401CA0615845BCD30020A0614C
:10075000012006F014FAB6E7570800080000002050
:1007600070000020D0000020D5960008D80000209E
:100770005D8F00085D960008BC300120ED920008F6
:100780001D9A0008600500201E0004003999000829
:10079000BC00002060010020C00000206009002093
:1007A0003C000200C4000020600B0020C8000020B4
:1007B000600F0020619700085034030080A90300F7
:1007C000C045040080200500A0680600808B08005A
:1007D00040D10C000053070000410A0038B54FF427
:1007E000B863984201D9012400E0002498B10025A3
:1007F0002C432DD1264C20806380204600F091F9B7
:10080000244A01004FF00000106006D02046BDE8E9
:10081000384000F045B80125EAE7208809F054FD8A
:100820000346002103E0601800795854491C2088D1
:100830008842F8D880B200901748811C0288174877
:10084000007809F025FEBDE83840062006F097B98B
:1008500038BD0020704770B50F4C1E46A41C0B78A5
:10086000049D23704B7863708B78A370C978E17016
:10087000A11E0A8009490978884207D1072006F09D
:100880007EF9224631462846FFF7A8FF002070BDBA
:10089000601100201C0000206A00002001000020E0
:1008A00010B57D2101717B21417100210172018010
:1008B000084606F064F9BDE81040012006F05FB973
:1008C00010B54FF6FF72F74C08E000BF10F8013B7F
:1008D0005340DAB234F8122082EA13220B00A1F15D
:1008E000010189B2F2D1104610BD2DE9F041044654
:1008F00000796379EC4D802806D02D5C9D4201D1B2
:10090000FF2B04D1657102E095F8803063710525F5
:1009100039B181284CD00720A07125802846BDE838
:10092000F081A0F1800C00270626BCF1720F71D275
:10093000DFE80CF0393E454A4FBCBCBCBC54595EA4
:1009400064BCBCBC6B716B716B716B716B716B71E7
:100950006B716B716B716B71BC71757A81868B90E9
:10096000BCBC95BC9AA99FA99FA99FA9BCBC6B714F
:100970006B71ADBC6B716B716B71BCBCBCBCBCBC36
:10098000BCBCBCBCBCBCBCBCBCBCBCBCBCBCBCBCA7
:10099000BCBCBCBCBCBCBCBCBCBCBCBCBCBCBCBC97
:1009A000BCBCBCBCBCB32146A01D00F025FA65E070
:1009B00013460A462146A01D00F044FA5EE01146A7
:1009C000A01D00F092FC1DE01146A01D00F019FDD5
:1009D00018E01146A01D00F0D8FD13E01146A01D3F
:1009E00000F0D5FD0EE02146A01D00F0D2FD03E091
:1009F0002146A01D00F0D8FD20B93FE01146A01D02
:100A000000F0E2FDA07125803BE02246A11D00F030
:100A100001FEF1E74AE0A11D00F0E7FE08E02146F3
:100A2000A01D00F0BEFFE7E71146A01D00F0CCFFBF
:100A3000E071268025E02146A01D00F0E1FFDBE704
:100A40001146A01D00F0F5FFF2E72146A01D01F0C0
:100A50000CF8D1E71146A01D01F020F8E8E7114697
:100A6000A01D01F037F8E3E72146A01D01F04EF884
:100A7000C2E72246A11D01F070F8BDE72088C01C26
:100A8000208020884BE7A11D01F05BF903E01146AF
:100A9000A01D01F05AFAE07105E01146A01D01F019
:100AA00062FAA071E77127726772C2E70820F2E765
:100AB0002DE9F0410446088800251746092801D889
:100AC00002202CE700228818A618521C007992B246
:100AD0003071072AF7D34888744E09380022708095
:100AE00007E0881806EB020CC07A521C8CF8040050
:100AF00092B208889042F4D81A4639466B48FFF7FC
:100B0000F4FE002005E0311822180979401CD1724A
:100B100080B231888142F6D888B2C01D2080284634
:100B2000FDE62DE9F74F002205460388408882B094
:100B300010388E4687B2934611464FF0040914468A
:100B400010464FF07D0A0092B6E0FF2A7BD0FB2AC8
:100B50007ED008DC012A13D0022A1FD0032A32D00B
:100B6000042A06D144E0FC2A7ED0FD2A6ED0FE2A5B
:100B70006DD01EF800C0BCF17D0F00D101229AE0BB
:100B80001EF800207B2A03D07D2A03D0002292E0A9
:100B9000022290E0012005B0BDE8F08F1EF8002091
:100BA0007D2A04D0DFF808C1ACF8002009E00EEB84
:100BB00000025278822A12D1DFF8F4C0401CACF84F
:100BC00000A0032277E01EF800107D2907D0384AE4
:100BD000168846EA012111800191B94201D902200B
:100BE000D9E70026421C1FFA82F93146042262E04E
:100BF0001EF800C0BCF17D0F05D0DFF8B480B04412
:100C000088F804C016E00EEB000C9CF801C0BCF1A3
:100C1000820F01D00320BEE7DFF894C0401C491CBE
:100C2000BCF8008089B2A8F10108ACF80080B44497
:100C30008CF804A0491CDDF804C0761C89B261451B
:100C400039D3FB2237E043E002E00DE01DE022E073
:100C50001EF800407D2C05D10EEB00025278822A4E
:100C60003CD1401CFC2226E01EF800207D2A03D047
:100C700044EA0224FD221EE00EEB00025278822A92
:100C80002CD1401C44F4FA44F4E71EF800207D2ADD
:100C900005D1FE220FE01EF800207D2A0AD0052093
:100CA00079E70000B6A60008B6A50008E2220020F9
:100CB0000C1D0020FF22401C9842FFF446AFFF2A83
:100CC00006D0052A7ED2DFE802F08A8A8D8D900058
:100CD0000EEB0900FFF7F4FDA04201D004205AE713
:100CE00044488226A0F2D65947804249049BA1F28B
:100CF000D650009AFFF7DCFE5FEA000C02D04FF0FE
:100D0000080C74E07B2085F804A00424687100219D
:100D1000084612E009EB000205EB0408137988F895
:100D20000430491C1279641C89B27D2A04D12A1925
:100D3000641C491C167189B2401CB9F8003083420A
:100D4000E8D8B94212D90BF1010000F0FF0BBBF15A
:100D5000030F09D868880A1A00991144323189B200
:100D60000091B1EB500FC0D3072014E7C8B20A0AB4
:100D7000A871EA717D2802D005F108000CE0204638
:100D800003E02A18401ED37813710328F9D82844A9
:100D9000641C067105F10900FFF792FD2A19C1B222
:100DA000641C11717D2902D12919641C0E71291945
:100DB000020A0A71641C5146BAEB102F04D128199B
:100DC000067100E008E0641C2819641C01712819F0
:100DD000641C01712C800AE04FF0060C07E04FF014
:100DE000010C04E04FF0020C01E04FF0030C6046F0
:100DF000D1E600000C1D00202DE9F0410F4605460C
:100E000000261146FE4802F0FEFE0446C0B201284C
:100E10000FD12878697800EB0120F94980B2B1F848
:100E20001E17814205D0F649A1F81E07084602F0B8
:100E3000F6FBE2B22946F24802F01EF9388030464D
:100E4000BDE8F0812DE9FF4F04468BB000200690ED
:100E5000079083466078A178257800EB01201FFA7F
:100E600080FAE61C40F28A20824217D2A2F2145283
:100E7000504287B2E24802F067FFDFF88483C1077F
:100E800008F274704FF0000909903CD001202070E6
:100E900084F803900425241D00202EE007200FB0C5
:100EA000BDE8F08FD64991F87417814201D23029FC
:100EB00002D3D34981F8749705F13300B84221D8A1
:100EC000CF48822290F8740700EB0011CD4800EB68
:100ED0000110214603F0ECFCC948B0F83C08411968
:100EE000044430788DB2401C30700998099900781C
:100EF000401C08700AF10100C0B2824698F8020155
:100F00005045CFD8D6E1BE480E9902F07CFEC1B262
:100F1000012907D0022976D00120207086F80090A0
:100F20000425C7E1B8480190022D0ED0032D05D04D
:100F300084F803900425241D00206EE1B0494FF091
:100F4000000A554681F8769727E0B0480068808807
:100F5000504559D0E8B3022005F011FEA848019988
:100F600090F87607401CC0B20870042832D3A44918
:100F7000002581F8769727E0A24805EB051100EBE4
:100F80000110009003F065FC009803F074FC08EB7E
:100F900045016D1CA1F8D807EDB298F80201A842EE
:100FA000EAD855E0974805EB051100EB01100090D9
:100FB00003F049FC009803F05EFC014608EB450095
:100FC0006D1CA0F8D817EDB298F80201A842E9D834
:100FD00035E019E0002511E08A4805EB051100EB2A
:100FE0000110019003F035FC019803F044FC014628
:100FF00008EB45006D1CA0F8D817EDB298F8020177
:10100000A842E9D81BE00EE17D49002581F87697DA
:1010100011E000BF7B4805EB051100EB01100090CB
:1010200003F011FC009803F026FC08EB45016D1C51
:10103000A1F8D807EDB298F80201A842EAD8AAF5BB
:101040007F41FF3904D1714801210068818004E0AB
:101050006E490AF1010009688880694901F2757AD0
:1010600091F87507302803D298F80211884202D30C
:10107000634981F8759765480425016809796170AD
:1010800000688088000AA07084F80390241D5CE04A
:101090005B4890F8750708EB4001B1F8D817E9B341
:1010A00000EB0011574800EB011003F0F2FB06289B
:1010B00016D0534890F8750700EB0011514800EB2B
:1010C0000110214603F0F3FD4D48B0F83C08391AF1
:1010D0008FB24119044430788DB2401C307016E054
:1010E0000BEB4B014A4801EB0B1100EB410144486B
:1010F000263FBFB290F8750700EB0012414800EBA5
:10110000021003F044FF0BF1010000F0FF0B9AF80E
:10111000001008EB4100B0F8D81700E003E0491ECA
:10112000A0F8D81711E00799491CC9B2079198F89F
:101130000211079A91420DD9401CC0B28AF80000F2
:10114000884202D32E4981F875972D48B0F83C08A3
:10115000B8429DD9BBF1000F15D004F801BB0BEBD1
:101160004B0304F8019B0020294A03EB0B1106E016
:10117000135C6D1C401C04F8013BADB280B2B0EBB7
:10118000410FF5D306E084F8009084F80190A41C88
:10119000AD1CADB2079890BB307880B3184890F87A
:1011A0007507401C8AF8000084E0154991F874170F
:1011B000302901D2814202D3114981F87497104835
:1011C000B0F83C082844B8426DD80D4890F8740730
:1011D00000EB00110B4800EB0110214603F027FC47
:1011E0000748B0F83C084119044430788DB2401CDF
:1011F0003070099809990078401C08700AE059E09D
:101200006C2F0020AC370020E23600209C0000202C
:10121000582900200AF10100C0B2824698F8020164
:101220005045C2D83FE04FEA102B012004F8040BD0
:10123000042586F80090BBF1040F01D34FF0000B9A
:1012400000202BE008EBCB0000F22971029190F80E
:101250002917302901D380F82997FE49B1F83C18A5
:101260002944B9421FD890F8290700EB0011FA4829
:1012700000EB0110214603F0DAFBF648B0F83C0819
:101280004119044430788DB2401C307002980299A4
:101290000078401C08700AF10100C0B298F80221E1
:1012A00082465245CED884F8009084F80190A41C60
:1012B000AD1CADB201202070022060700320A07030
:1012C0000420E070241D2D1D98F805212146E348D7
:1012D00004F08FFA2A182044921C80F8009080F8BD
:1012E00001900C9802800698D9E52DE9F0478046D8
:1012F0004FF00009D74802F086FC002401E0062CDC
:101300002CD008275FF0000505EBC406302E25D24F
:10131000D34918F80400495D08421BD0CE4906EBBA
:10132000061001EB001008F1200103F01BFA5FEA40
:1013300000090FD0012816D0B9F1F10F0AD13002FF
:1013400000F5807040F017000222C64900F0E7FE69
:101350004FF000096D1CEDB2BD42D5D3641CE4B260
:10136000072CCCD34846BDE8F087B0F85C100122CA
:10137000A1F57F43FF3B03D0B0F8AA3099421CD8B7
:10138000B0F86210F02918D8B0F86410782914D891
:10139000B0F86610102910D890F8A81069B190F82C
:1013A000A9308B4209D8B0F8AA1031B1D0F8AC00FE
:1013B00018B1814201D3FA2901D9002070471046A3
:1013C000704730B501210A9C85B2641C049AA5427D
:1013D00011D8000C102810D02238DC280BD998B274
:1013E000212808D290B2212805D2180C0B2802D24D
:1013F000100C0B2803D3002030BD012030BD08465F
:1014000030BD2DE9F04F044689B00027914802F025
:10141000FAFB2046FFF7A9FFE8B3934D00264FF0F3
:10142000020A297805F108004FF0C80B59B10129CB
:101430004CD002297DD02E706E80AE80EE800127C8
:10144000384609B02CE594F8A91021BBB0222146FA
:1014500006F050FAAE80EE800026A84622E000BFDB
:1014600006EB460000EBC60004EB800108EB8005AC
:10147000B835B0312C22284606F03CFAF0B207907D
:1014800005F110011C22684606F079FA0FCDFFF72E
:1014900098FF00B100E017E0B8F80600401CA8F87B
:1014A0000600761CD4F8AC00B042D9D8B8F80410C5
:1014B0004046491C89B2A8F8041098F8B02091421F
:1014C00056D2012101705BE00120BAE794F8A9200F
:1014D000A988A8468A424ED1B022214606F00AFACF
:1014E000002530E005EB450000EBC501B8F806002B
:1014F00004EB8101284400EB400202EBC00208EB40
:101500008200B031B8302C2206F0F4F9B8F80600A9
:101510001C222844C1B2079100EB400101EBC0013D
:1015200008EB810101F1B809C831684606F027FAD5
:1015300000E028E009F104000EC8D9F80000FFF728
:1015400040FFC0B16D1CD4F8AC00A842CAD8B8F8AE
:101550000610B4F8AC201144A8F80610B8F804102E
:10156000491C89B2A8F8041098F8B020914207D31A
:1015700088F800A064E788F80060A8F80260A3E794
:10158000A8F802B05CE702275AE700207047002065
:10159000704770B50D46014600242E4802F0C4FA8B
:1015A000801C2880204670BD70B50D46064600247C
:1015B0001146284802F027FBC2B23146254802F006
:1015C000E5FA2880204670BD70B50E460178407857
:1015D00001EB002085B231461E4802F014FB0446A0
:1015E000C0B2022801D0012070BD1A480022831821
:1015F000B15C521CD2B283F82017042AF7D31548E5
:10160000A0F81E5702F00BF8210A124802F06BFBFB
:10161000002070BD2DE9FC47074608789246401C23
:10162000C5B20C480C4690F80201A84202D207202D
:10163000BDE8FC8700220D490D48DFF838C000DF07
:101640000A4E18B90C483168FEF734FEDFF82C80DA
:1016500016E000006C2F0020AC37002058B80020A6
:10166000B6A80008842D0120AC6A00207400002078
:101670003C2D01203592000820210120B8280020AF
:1016800008F110099E2F31D00CDCA7F190070D2F27
:1016900018D2DFE807F019171B171F172317251794
:1016A00027172900BC2F32D006DCA02F20D0A22F74
:1016B00020D0BA2F06D128E0C02F2AD0C22F2AD09E
:1016C000C42F2AD0012767E01B2004E0202040EA35
:1016D000052524E0162040EA052510E01020FAE751
:1016E0001120F8E71220F6E71320F4E71920F2E7BB
:1016F0001A2000E0302040EA0525922F0FD0022268
:10170000FA49284600F00BFD1CE01C20F3E71D20E1
:10171000F1E71420EFE71520EDE71E20EBE70020AE
:10172000474621183A184978401C11710228F8DB05
:101730000221EE48CDE900013F1DD8F800000ECF90
:1017400000F01FFD10F0FF0726D10A22E849E94802
:10175000DFF8A4C300DF012818D0404631681030FC
:1017600091E80C11A0E80C11E448FEF7A3FDD9F8AC
:10177000000045F08001884200D004270022DC49A7
:10178000DC48DFF874C300DF10B105E00527F5E79A
:10179000DA483168FEF78EFD67704FB10020607245
:1017A0002072E071A07160712071E070A07017E08C
:1017B00099F80410A17099F80510E17099F80610D5
:1017C000217199F80710617199F80810A17199F8C1
:1017D0000910E17199F80A10217299F80B006072F2
:1017E0000A21AAF80010384622E72DE9FC5F0746D7
:1017F00008780E46401C4FF00008C5B2444611461A
:10180000BF4802F000FAC0B2012803D0092070706E
:10181000BDE8FC9FBA4890F80211A94210D3A32F4B
:1018200003D1707888420BD850B1B1490022091D0C
:10183000B048DFF8C4C200DFDFF8B49210B106E0B0
:101840000720E5E7AD48D9F80410FEF733FDAD48B1
:10185000A12F34D00DDCA7F191070F2F3AD2DFE88A
:1018600007F019391B3921392439263928392A3901
:101870002C00BD2F27D006DCA32F26D0A52F26D0E5
:10188000BB2F27D11DE0C12F4AD0C32F4AD0C52F6F
:1018900020D149E05B2106E0602128244FF00108B7
:1018A000016017E05621016014E05021FBE751214F
:1018B000F9E75221F7E75321F5E75921F3E75A21D8
:1018C000F1E75C21EFE75D21EDE77021EBE75721C0
:1018D00028240160016841EA052141F0800A0821BD
:1018E00001730021417301228273C173721843187E
:1018F0005278491C1A710829F8DB834600680222D5
:1019000040EA05207949CBF80000CDE900127D4975
:10191000091D0EC900F035FC10F0FF073ED105E0AF
:101920005421C0E75521BEE75E21BCE7B5B370493D
:1019300004F10A02091D6F48DFF8BCC100DF01286D
:1019400019D0D9F804106F4A91E819101032A2E8A2
:1019500019106A48FEF7AEFC6A481030016851451C
:1019600000D0042762490022091D6248DFF888C1BF
:1019700000DF10B106E00527F4E76048D9F804104D
:10198000FEF798FCB8F1000F08D0012000EB05200D
:1019900000225649CBF8000000F0C1FB77703846B2
:1019A00036E770B50C4601780025FF2901D00720E5
:1019B00070BD411C01202080514801F051FE21885A
:1019C00008442080284670BD10B504460078FF28E2
:1019D00001D0072010BD4A4802F015F9C0B2012815
:1019E00001D0092010BDE11E454801F042F910B1B7
:1019F0000120607010BD611C414801F040FEF8E715
:101A000070B50C46017800254278FF2901D00720E7
:101A100070BD0AB1052A01D90A2070BD03212180B9
:101A2000811C374801F050FE218808442080284658
:101A300070BD70B5044600786578FF2801D0072096
:101A400070BD0DB1052D01D90A2070BD2C4802F0E2
:101A5000DAF8C0B2012801D0092070BD2A46A11CC5
:101A6000274801F072FEA07070BD70B50C46017879
:101A700000254278FF2901D0072070BD0AB1052A50
:101A800001D90A2070BD03212180811C1C4801F06E
:101A90001BFE218808442080284670BD70B504468E
:101AA00000786578FF2801D0072070BD0DB1052DA5
:101AB00001D90A2070BD124802F0A5F8C0B2012871
:101AC00001D0092070BD2A46A11C0D4801F03DFE41
:101AD000A07070BD70B505460024094802F093F867
:101AE000C0B2012810D00920A87070BD842D01203B
:101AF000740000203C2D0120359200082021012097
:101B00006C2F0020D82800202046EEE700207047E8
:101B100002460020052A1AD008DC012A10D0022A29
:101B20000ED0032A10D0042A08D10DE0812A11D04A
:101B3000822A0FD0832A0DD0842A0BD0012070472F
:101B40002829FCD3072070471429FBD270470429A9
:101B5000F8D270470829F5D270472DE9F05F0E786A
:101B60004B780C460746934619463046FFF7D0FFA0
:101B7000DFF8809405004FF0000A20D1052E21D017
:101B800008DC012E13D0022E0DD0032E0DD0042E12
:101B90000DD115E0812E17D0822E17D0832E17D0AD
:101BA000842E04D116E0283300E05033DBB201224A
:101BB000B22F11D0B42F15D0B62F19D001258FE038
:101BC0006433F3E77833F1E78033EFE78833EDE709
:101BD0009033EBE79833E9E7180200F5807040F0A6
:101BE00010060AE0180200F5807040F0200604E0BC
:101BF000180200F5807040F03006FE4808211038C9
:101C0000DFF8FCC30660017380F80DA0827380F8D2
:101C10000FA080F80BA080F80AA080F809A080F837
:101C200008A080F807A080F806A080F805A080F83A
:101C300004A00022F049F14800DFEF4F083F18B937
:101C4000F048B968FEF736FBEE48DFF8BCC300DFAA
:101C5000B8B3EC48FEF71EFBF860010038D0DFF89F
:101C60009483A8F1500808F1400090E80D1081E835
:101C70000D100222E548DFF898C300DF012821D0CB
:101C80001422DD49DD48DFF878C300DF012821D0C8
:101C9000B96808F1500891E80D10A8E80D10D9486E
:101CA000FEF708FBD9F8000046F08001884200D01A
:101CB00004250022D049D148DFF844C300DF58B1E1
:101CC0000EE005E0CF48F968FEF7F4FA032507E0D7
:101CD000062505E00525ECE7CA48B968FEF7EAFAEB
:101CE000A57085B184F80AA084F809A084F808A03A
:101CF00084F807A084F806A084F805A084F804A05E
:101D000084F803A017E099F80410E17099F8051021
:101D1000217199F80610617199F80710A17199F86D
:101D20000810E17199F80910217299F80A1061728E
:101D300099F80B00A0720B21ABF800102846BDE803
:101D4000F09F2DE9F0470D46814691F800804C78D0
:101D500091F80AA01146AF4801F055FFC0B2012822
:101D600003D00920A870BDE8F08721464046FFF760
:101D7000CFFE06007ED14046B8F1050F26D009DC23
:101D8000012815D002280FD003280FD0B8F1040F76
:101D90000ED119E081281BD082281BD083281BD0AC
:101DA000B8F1840F04D119E0283400E05034E4B2D3
:101DB000A9F1B100012209283ED2DFE800F0113D6F
:101DC000263D2C3D323D38006434F0E77834EEE7B0
:101DD0008034ECE78834EAE79034E8E79834E6E7C3
:101DE000B8F1040F02D0B8F1820F02D1BAF1020F9C
:101DF00005D0200200F5807040F041071CE0200271
:101E000000F5807040F0420716E0200200F5807077
:101E100040F0500710E0200200F5807040F06007AD
:101E20000AE0200200F5807040F0700704E0200214
:101E300000F5807040F071076E480821103007608F
:101E40000173002141738273C173B9F1B30F1FD0C5
:101E5000B9F1B50F1CD0A9780171E97841712979E0
:101E600081716979C171A9790172E9794172297A1F
:101E7000817200E054E0697AC1725F490022083142
:101E80005E48DFF87CC100DF5B4C083C18B106E01F
:101E900008F10301E0E75B482169FEF70BFA5948B6
:101EA000DFF864C100DFE0B35648FEF7F3F9606184
:101EB00001003ED0A0464F4C503C04F1600090E839
:101EC0000D1081E80D1002225048DFF844C100DFF8
:101ED000012827D0B9F1B10F34D047490A2208317F
:101EE0004648DFF81CC100DF012824D0D8F81010C4
:101EF000703491E80D10A4E80D104248FEF7DAF9AD
:101F00003C4847F0800120300068884200D0042619
:101F10003949002208313948DFF8E4C000DF60B1F8
:101F200010E006E03748D8F81410FEF7C3F903268E
:101F300008E0062606E00526EAE73248D8F8101041
:101F4000FEF7B8F9AE7030460DE770B505460024CF
:101F5000304801F058FEC0B2012802D00920A87014
:101F6000C3E52046C1E52DE9FC4105460026294888
:101F700001F049FEC0B2012802D00920BDE8FC8171
:101F8000A978EB782A78687801EB032189B212B13D
:101F9000012A04D1AAE0022801D20C2901D0012093
:101FA000ECE7E9796F68134C61F31F67303408215F
:101FB00027602173002161730122A273E173297AE2
:101FC0002171697A6171A97AA171E97AE171297B3C
:101FD0002172697B6172A97BA172E97B064D0226A1
:101FE000E172083D04F110084FF0000205F11801FC
:101FF000C0B111E0082900207C000020602D0120E4
:102000003592000820210120AD9000089830012071
:10201000919100086C2F00203648DFF8DCC000DF0B
:1020200080B33BE03548DFF8D0C000DF18B9344852
:10203000A969FEF73FF93348CDE9000694E80F009F
:1020400000F09FF810F0FF0650D128222E492B48AF
:10205000DFF8A4C000DF012815D0A969103491E889
:102060000D10A4E80D102648FEF724F9D8F800005A
:10207000B84200D00426002223492048DFF878C067
:1020800000DF31E006E00526F5E71D48A969FEF707
:1020900011F92BE01A48A969FEF70CF91B48CDE9A4
:1020A000000694E80F0000F06CF810F0FF061DD158
:1020B000282215490F48DFF840C000DF012817D05B
:1020C000A969103491E80D10A4E80D100C48FEF732
:1020D000F1F8D8F80000B84200D0042600220A49DE
:1020E0000448DFF814C000DF0028CED0304645E7B2
:1020F0000526F3E7602D0120359200083C2D0120D4
:1021000020210120842D01208C0000209830012006
:10211000A949C0EBC00001EB8000C07870472DE9F1
:10212000F04780460026082060F30704354665F333
:102130000F24012060F3174491468A4665F31F641B
:102140009E48DFF87CC200DFB8B19C48FEF7A2F8D9
:10215000070012D0C7E90085C7E902541FFA89F2C7
:1021600039465046DFF85CC200DF012806D1394607
:102170009248FEF79FF8032600E006263046BDE8A9
:10218000F0872DE9F05F0546DDE90ABA0E461746ED
:10219000994600248948DFF828C200DFB0B187489B
:1021A000FEF778F85FEA000810D088E8E0021FFA2E
:1021B0008AF241465846DFF80CC200DF012806D1FA
:1021C00041467E48FEF776F8032400E006242046C8
:1021D000BDE8F09F10B504468168007803F024FB49
:1021E000E0784FF001030028207808D00022002179
:1021F00004F06CFB2078BDE8104003F05ABB4FF4AC
:102200007E52F4E72DE9F0416F4E6B4F05460024F6
:10221000305D284205D0C4EBC40007EB8000FFF717
:10222000D9FF641C022CF3D3BDE8F081C3780A689F
:10223000002BC2F307200ED1D2B200280BD0634B83
:10224000B3F8F831834206D3401EC0B20B1D0146DD
:102250005F4803F0DFB87047022805D2564AC0EB4A
:10226000C00002EB8000E1E770477CB50446C088FF
:1022700008B1401EE080E07804F10C054FF0000248
:1022800001A930B15348DFF850C100DF002856D013
:102290002CE05248DFF840C100DF10B1E08828BBD5
:1022A00028E0019E04F10C0C96E80F00ACE80F004A
:1022B000C1B22139C82007291AD2DFE801F004058C
:1022C000060708090A00E080E080E080E080E08006
:1022D000E080E080022231464148DFF8E8C000DFBC
:1022E000012803D135480199FDF7E4FF00207CBDAA
:1022F00031462BE020790121401CC0B22071022818
:102300000CD9217131496078B1F8F811491E884221
:1023100001DA401C00E00020607008E0022020711B
:102320006079401CC0B26071022800D961710095CB
:10233000637922796178264802F07FFF09E00199EC
:1023400004F10C0C91E84D00ACE84D001B48FDF782
:10235000B1FF20780122294603F0FAFA7CBD022859
:1023600005D21549C0EBC00001EB80007DE7704746
:1023700030B51C4B01240022197811B101290ED16E
:1023800006E0047042708270174C8460C27006E0F0
:102390000225057042708270144D8560C470C28041
:1023A000491C197030BDC078704702231C22AFF25F
:1023B0003F01014805F0AABB342F00202021012055
:1023C000AD90000891910008BEA800085CB60020FE
:1023D0005C9600209830012035920008842D012061
:1023E0003C2D01209000002020A1070048E80100BA
:1023F000F84A01460020D2F830210A4200D00120DC
:10240000704700F5EE62D0F870070843106070471F
:1024100070B50024F04EEF4D09E000BF04EB04104E
:1024200006EB001001F0E0FE30B1641CE4B295F858
:102430000201A042F2D870BDBDE870400121E5481C
:10244000DFE710B504F0F5FDE249002491F84C27D0
:10245000E249C02A08D1DF4A92F84D27A82A03D1C1
:10246000DC4A92F84E27E2B3C00547D50868421C03
:102470000A601E2843D91F2008600021D848DFF8D1
:1024800064C300DF01283AD0D249C02081F84C074C
:10249000A82081F84D07084680F84E47C32081F8F0
:1024A0004F07D14822210446FEF70AFAC9492423DE
:1024B0004FF4C852A1F86A072146002004F0D7FC67
:1024C000002004F04CFB012004F049FB022004F042
:1024D00046FB032004F043FB042004F040FB0520EE
:1024E00000E00BE004F03BFB062004F038FB072083
:1024F00004F035FBBDE8104004F0B4BE0C6010BD24
:1025000030B5BA49B34B00201A1892F860270A5424
:10251000401CC0B20628F7D3B54C0020191801F2B0
:102520004C710A78225422180D7915710D7A1572A2
:102530000D7B1573401C097CC0B211740428EDD3C7
:10254000A448AC49B0F86807088030BD2DE9F041D7
:1025500000F5E965044600264FF4C85724233A469F
:102560002946304604F06EFC24212846FEF7A8F9DF
:10257000F0B9A149D4F84807884219D194F84C071A
:10258000FF2815D094F84D07FF2811D094F84E0776
:10259000FF280DD094F84F07FF2809D0B4F868073A
:1025A00030B101262046FFF7ABFF3046BDE8F08191
:1025B00024229249284605F0E2F922212846FEF716
:1025C0007FF9A4F86A0724233A462946002004F03C
:1025D0004EFCE7E72DE9F04786B00C46154614217E
:1025E000684605F020FA302D02D80DB100216EE0CA
:1025F000012006B0BDE8F08701EB810604EB860000
:102600004388F02B11D8C288782A0ED84789282F02
:102610000BD8B0F80EC0E146BCF1280F05D8B0F8D1
:1026200012C0E246BCF1100F01D90220E1E769B304
:1026300030F814CC30F8128C34F82660C444B44519
:1026400022D130F8106C30F80ECC6644B0F804C0DB
:10265000664519D130F80C6C30F80ACC6644B0F8F5
:1026600008C0664510D130F8086C30F806CC6644D6
:10267000B0F80CC0664507D130F8046C30F802CCD5
:10268000008A6644864210D00320B2E720880028E2
:10269000FAD1A0880028F7D120890028F4D1A08998
:1026A0000028F1D1208A0028EED10098491C184456
:1026B00000900198104401900298039A38440290C7
:1026C00002EB0900049A039002EB0A000490A9426D
:1026D00092D300994FF4A06081420BD801998142B6
:1026E00008D80299814205D80399814202D80498FA
:1026F000802801D904207CE700207AE72DE9F04109
:1027000000F55575044600264FF472773B464FF4AA
:1027100080622946304604F095FB39462846FEF78C
:10272000CFF8354F50B9D4F85403B84206D130220F
:1027300004F556712046FFF74DFF00B30020C4F8A2
:102740005473A4F81807024602EB820104EB8101DE
:1027500001F55671521C088048808880C880088125
:1027600048818881C88108824882302AECD340F2AF
:10277000C6312846FEF7A4F8A4F81A0700E001269F
:10278000304613E7002070472DE9F047884604469D
:102790004FF000094FF40035062975D2DFE801F04B
:1027A000FE03080E1430302704F5DC76BA022CE064
:1027B00004F50E7630274FF4803226E004F52E76AD
:1027C0001C274FF4A03220E004F53F761C274FF47D
:1027D000C0321AE06C2F0020AC370020940000209B
:1027E000BC300120E1930008B4360020280000200E
:1027F0002E000020700000200200010000A9000847
:1028000004F550760C274FF4E0323B463146002069
:1028100004F018FB39463046FEF752F810B930681C
:10282000A84256D001212020B8F1060F2CD2DFE8B3
:1028300008F0B503111E2C39C4F8B851A4F8E411FE
:10284000002018212218401C80B282F8BC112828D0
:10285000F8D334E0C4F83852A4F8641200216218A6
:10286000491C89B282F83C022829F8D327E0C4F831
:10287000B852A4F8D01200216218491C89B282F81B
:10288000BC021429F8D31AE088E0C4F8FC52A4F87A
:10289000141300216218491C89B282F8000314291C
:1028A000F8D30CE00421C4F84053A4F848130121E4
:1028B0006218491C89B282F844030429F8D3B81E6F
:1028C00081B23046FDF7FCFFF11901F8020D000A54
:1028D00048700020B8F1060F60D2DFE808F05F030F
:1028E00016283A4CA4F8E8015FF0010004EB40011F
:1028F0002318B1F8E62193F8BB31401C1A4480B28A
:10290000A1F8E8212828F1D346E0A4F868020120C4
:1029100004EB40012318B1F8662293F83B32401CC7
:102920001A4480B2A1F868222828F1D334E0A4F830
:10293000D402012004EB40012318B1F8D22293F80D
:10294000BB32401C1A4480B2A1F8D4221428F1D31F
:1029500022E0A4F81803012004EB40012318B1F889
:10296000162393F8FF32401C1A4480B2A1F81823B2
:102970001428F1D310E0A4F84C03012004EB40012B
:102980002318B1F84A2393F84333401C1A4480B209
:10299000A1F84C230428F1D348462BE6002029E671
:1029A00070B500F5D8750446002608234FF4407230
:1029B0002946304604F046FA08212846FDF780FFF4
:1029C0004FF0011118B9D4F8B001884208D0C4F80A
:1029D000B01106212846FDF773FFA4F8B60100E008
:1029E0000126304670BD00F21C700121018040F2CA
:1029F000E93141807F210171002141718171022201
:102A0000C271018170470888012800D000207047FA
:102A10003EB5054600240C234FF4CC5269462046AF
:102A200004F010FA0C216846FDF74AFF18B9BDF80A
:102A30000000012804D02846FFF7D5FF20463EBD00
:102A40009DE8070005F21C75012407C5F6E7B0F8FC
:102A500038110022F02902D94FF4F07102E002EBA4
:102A6000410189B2B0F83A21782A01D9F03101E068
:102A700001EB4201B0F83E2189B2102A01D9403160
:102A800001E001EB820189B201F1380292B247F60E
:102A90006D53B3FBF2F300F638005B1E02804380F7
:102AA0003331818040F21451B1FBF2F1C1807047A3
:102AB0000868A0F50032303A45D191F84E00302830
:102AC00041D800283FD091F84F00E0BB91F850006A
:102AD000082838D891ED160AFF4810EE102A8242D5
:102AE0007DDCB5EEC00AF1EE10FA78D991ED190A45
:102AF00010EE102A824272DCB5EEC00AF1EE10FA36
:102B00006DD991ED170AF54A10EE100A904266DC75
:102B1000B5EEC00AF1EE10FA61D9D1ED1A0AF04A09
:102B200010EE900A90425AD8F4EEC00AF1EE10FA74
:102B300055DA91ED180AEB4810EE102A82424EDC6D
:102B4000B5EEC00A00E04AE0F1EE10FA47D991ED87
:102B50001B0A10EE102A824241DCB5EEC00AF1EEEB
:102B600010FA3CD9086FE04AE04B401C04D0086FD3
:102B7000904234DC984232D8486F401C04D0486FF1
:102B800090422CDC98422AD801F1700090EC020AA5
:102B9000B4EEE00AF1EE10FA21DC886F00281FD0B5
:102BA000D1F880004CF25032904218D3D04890F8BF
:102BB00080000A2815D9B1F88400F0280FD8B1F8A0
:102BC000860078280BD891F88800282807D891F833
:102BD0008900282803D8B1F88A00102801D90020DC
:102BE00070470120704770B504460025011DB023D1
:102BF0004FF48072284604F025F9B021201DFDF71E
:102C00005FFE80B96068A0F5003130390BD1211D1D
:102C10002046FFF74DFF30B1B022211D04F1B40072
:102C200004F0ADFE012594F802010126302803D9F5
:102C3000302084F8020102E008B984F802612046DD
:102C4000FFF705FF00210A4601EB810004EB80003D
:102C500000F55670018046808180C68002814281E5
:102C60008281C2810182491C46823029ECDB2846E0
:102C700070BD10B50A7A0020282A7DD84A7A282A01
:102C80007AD88A7A142A77D8CA7A142A74D80A7B0E
:102C9000082A71D84A7B082A6ED88A7B082A6BD802
:102CA000CA7B082A68D80A7C202A7ED84A7C202A37
:102CB0007BD88A7C402A78D8CA7C402A75D80A7D7D
:102CC000402A72D84A7D402A6FD88A7D202A6CD843
:102CD000CA7D202A69D80A8B41F288339A4264D887
:102CE0004A8B1E2A61D88A8B322A5ED8CA8B4FF64D
:102CF000B753323A9A4258D20A8C323A9A4254D254
:102D00004A8C323A9A4250D28A8C4CF25034521E3B
:102D1000A2424AD2CA8C4FF6E854A24245D80C8D42
:102D20004FF6F942F03C94423FD24C8DF03C944235
:102D30003BD28C8DF03C944237D2CC8DF03C944207
:102D400033D20C8EF03C94422FD24C8EF03C944205
:102D50002BD28C8EF03C944227D2CC8EF03C944205
:102D600023D20C8FF03C94421FD24C8FF03C944203
:102D70001BD28C8FF03C00E017E0944215D2CC8F30
:102D8000F03C944211D2B1F84040F03C94420CD255
:102D9000B1F84220323A9A4207D291F84420052AEB
:102DA00003D891F84510052900D9012010BD2DE95F
:102DB000F041002600F5B27504464C233246294600
:102DC000304604F03FF84C212846FDF779FD4FF4DA
:102DD000A02740B929462046FFF74BFF18B9D4F881
:102DE0006401B84251D004F5B474012044F8047C65
:102DF000207060700021A170E17028222271627140
:102E00001422A271E271082222726272A272E2722C
:102E10001822227320226273A273E27320746074FA
:102E2000A074E0743220A0820323E382052222836F
:102E30004FF4FA606083A08341F28837E7832284ED
:102E40006184A084E08420856085A085E0854210AF
:102E500022866286A286E08620876087A08764201B
:102E6000E08784F84030022084F8410084F8421062
:102E700084F8431084F8441084F845104A21284609
:102E8000FDF71EFDA4F8460000E00126304678E478
:102E900010B51848FFF78BFF1648FFF7A4FE15483A
:102EA000FFF7B6FD1348FFF77BFD01211148FFF73F
:102EB0006BFC02210F48FFF767FC03210D48FFF769
:102EC00063FC04210B48FFF75FFC05210948FFF76D
:102ED0005BFC084810E000008096984B0024744981
:102EE0000050C3C7F9029550000048430000A0C13C
:102EF000B6A500086C2F0020FFF700FCBDE81040CD
:102F0000FD48FFF723BB00F5EE62D0F87007884359
:102F10001060704730B5002400F19C030470F7483E
:102F2000986118201877092159774FF4FC60D883ED
:102F3000F3499C3B204600BF03EB400211F81050C0
:102F400002F8BC5F31F81050401C2D0A5570102853
:102F5000F2D3EB490020163103EB400211F8105078
:102F600002F8DC5F31F81050401C2D0A5570102813
:102F7000F2D34FF61C2023F8FC0F30205880C021DC
:102F8000197158719871DC711C725C729C72DC72E0
:102F90001C735C739C73DC739FEDDA0ADFEDDA0A55
:102FA00003F1100080EC020ADFEDD80AC3ED060A37
:102FB00083ED070A9FEDD60A103080EC020AB3EECB
:102FC000090A83ED0A0A9FEDD30A47F2870083EDD1
:102FD0000B0AC3E90C044CF250309863CE48FC3B1A
:102FE00090F880000A2812D903F59C73C4491C800C
:102FF0005C801C715C71DC800020A3F59C734439FB
:103000001D180A5C401C85F840212028F8D34FF099
:10301000FF311846FFF777FF0021C92203EBC100FB
:1030200000F5E560491C047044708470C47004713C
:103030004471C2800429F1DB83F8744783F8754733
:1030400083F876475FF0000003EB4001401CA1F8D5
:103050007847A1F8D8473028F6D33820A3F83808A5
:103060004FF40F70A3F83A083320A3F83C08192056
:10307000A3F83E08184630BDF0B518230B7009239D
:103080004B70E0238B700723CB70091D04230024B1
:1030900005195B1C95F8BC50641C01F8015B9BB2E0
:1030A000202CF5D3002405195B1C95F8DC50641C1A
:1030B00001F8015B9BB2202CF5D31C240C70FA2480
:1030C0004C7090F8FE408C70B0F8FE40924D240A8F
:1030D000CC70091D1B1D9EB20023761CEC5C5B1C92
:1030E00001F8014BB6B2FF2BF7D9C0230B70302388
:1030F0004B7090F802318B700024CC7090F8043142
:103100000B7190F805314B71891DB61DB3B226467F
:1031100087195B1C97F80671761C01F8017B9BB23E
:10312000062EF5D300F586775FF000065B1C17F8D6
:1031300006C0761C01F801CB9BB2042EF6D300F535
:10314000887700265B1C17F806C0761C01F801CBB7
:103150009BB2042EF6D300F58A7700265B1C17F885
:1031600006C0761C01F801CB9BB2042EF6D300F505
:103170008C7700265B1C17F806C0761C01F801CB83
:103180009BB2042EF6D300F58E7700265B1C17F851
:1031900006C0761C01F801CB9BB2042EF6D300F5D5
:1031A000907700265B1C17F806C0761C01F801CB4F
:1031B0009BB2042EF6D300F5927700265B1C17F81D
:1031C00006C0761C01F801CB9BB2042EF6D300F5A5
:1031D000947700265B1C17F806C0761C01F801CB1B
:1031E0009BB2042EF6D300F5967700265B1C17F8E9
:1031F00006C0761C01F801CB9BB2042EF6D300F575
:10320000987700265B1C17F806C0761C01F801CBE6
:103210009BB2042EF6D300F59A7700265B1C17F8B4
:1032200006C0761C01F801CB9BB2042EF6D3FF2614
:10323000012A24D0022A2BD00E704E708C70CC70D4
:10324000091D1B1D1FFA83F340F21E7290F81E67C2
:103250000E70125A120A4A70891C9B1C9AB20023E3
:10326000C618521C96F860675B1C01F8016B92B29D
:10327000062BF5D395F880300A2B13D09FE000225F
:103280005B1C521C01F8016B9BB2042AF8D3DBE7EC
:103290005FF000025B1C521C01F8014B9BB2042A38
:1032A000F8D3D1E75FF0000303EB830600EB86065B
:1032B000921C96F85A730F70B6F85A635B1C360A64
:1032C0004E70891C92B2302BEED305E00C704C701E
:1032D000921C891C92B25B1C602BF7D35FF0000339
:1032E00003EB830600EB860696F85E730F70B6F864
:1032F0005E63360A4E7011E06C2F00203000020031
:1033000024A9000800401C4600409C45005043474B
:103310000000000000008242B6A50008921C891C33
:103320005B1C92B2302BDBD305E00C704C70921C0E
:10333000891C92B25B1C602BF7D3002303EB83063E
:1033400000EB8606521C96F862635B1C01F8016B69
:1033500092B2302BF2D304E0521C01F8014B92B22E
:103360005B1C602BF8D3002303EB830600EB86067F
:10337000521C96F866635B1C01F8016B92B2302B0D
:10338000F2D304E0521C01F8014B92B25B1C602B9B
:10339000F8D3002303EB830600EB8606521C96F855
:1033A0006A635B1C01F8016B92B2302BF2D304E02C
:1033B000521C01F8014B92B25B1C602BF8D395F8BC
:1033C00080300A2B25D900F59C70521C03780B70B5
:1033D00003881B0A4B7083788B7043881B0ACB7061
:1033E00003790B7143794B7183798B71C388A0F595
:1033F0009C701B0ACB710831D21D92B20023C418F5
:10340000521C94F840415B1C01F8014B92B2202BF6
:10341000F5D31046F0BD70B50446087820724878A0
:10342000607200254888608104202A468318A61807
:10343000CB5C521C3373202AF8D32030002283182F
:10344000A618CB5C521C86F82C30202AF7D34FF6F6
:103450001C2224F84C2F22300A5A6280C02222718A
:103460003022001D62710A5CA2710022801CE27190
:103470000A5C401C22720A5C62724C3C401C0022B6
:103480008318A618CB5C521C86F85630062AF7D350
:10349000801D0A58001DE2650A58001D22660A5860
:1034A000001D62660A58001DA2660A58001DE266E9
:1034B0000A58001D22670A58001D62670A58001D3D
:1034C000A2670A58001DE2670A58001DC4F8802050
:1034D0000A58C4F88420FC4A001D92F880200A2A69
:1034E00019D90A5A24F8882F801C0A5A801C628035
:1034F0000A5C401C22710A5C6271401C0A5AE2801C
:10350000883C801C00220B5CA618401C521C86F8CC
:103510009030202AF7D3ED486060211D2046FFF748
:10352000C7FA18B3AE21201DFDF7CAF9A4F8B200FE
:103530001421E748DFF89CC300DF012816D04FF4C0
:103540008076B0233246211D002003F090FCB0238A
:103550003246211D002003F075FCDD48DFF878C3FA
:1035600000DFB021201DFDF7ABF910B10125284681
:1035700070BDB4F83801B4F8881088420BD1B4F8A3
:103580003A01B4F88A10884205D1B4F83E01B4F883
:103590008E10884201D000F01CFCB022211D04F1E5
:1035A000B40004F0ECF9DFF834C300DF2046FFF785
:1035B0004EFADFF82CC300DFD9E72DE9F0410446CD
:1035C000C24804F1B401C4F8B40001250F462046F6
:1035D000FFF76EFA08B3AE213846FDF771F9A4F88B
:1035E00062011421BA48DFF8ECC200DF012814D0D0
:1035F0002E02B02332463946002003F038FCB023B7
:103600003246211D002003F01DFCB148DFF8C8C27E
:1036100000DFB021201DFDF753F9284637E470B5CF
:103620000446012604F21C75A0F81C670A212846EE
:10363000FDF746F9A4F826071421A548DFF894C23F
:1036400000DF01280AD00C234FF4CC522946002079
:1036500003F00DFC9E48DFF880C200DF304670BDED
:10366000034610B5002003F5B4730246401C9C5C71
:103670008C54521CD2B280B2462AF7D310BD70B51A
:103680000446002500F5B47228460B5C1354401C18
:10369000C0B24628F9D304F5B27006464A21FDF7B8
:1036A0000FF9A4F8AE0114218948DFF828C200DF21
:1036B000012806D000224C233146104603F0D7FBE8
:1036C00000E00125284670BD70B500242546062A75
:1036D00020D2DFE802F01F03080D121790F8E43142
:1036E00000F5DE7012E090F8643200F50F700DE026
:1036F00090F8D03200F52F7008E090F8143300F500
:10370000407003E090F8483300F5517001F8013B38
:10371000002206E0002070BD865C521C3544ADB22C
:10372000D2B29A42F8D30D702A0A4A70891CE41C5E
:10373000002206E0855C641C521C01F8015BA4B207
:10374000D2B29A42F6D3204670BD2DE9F0414B78B3
:103750008D784FF00008044603EB052308781FFA24
:1037600083FC4646C91C4746434609E0CD5C002D14
:103770006FD0B54200D92E463D445B1CAFB2DBB2E0
:103780008342F3D3674564D10025062A61D2DFE87E
:1037900002F060033A74BCF728285AD8202EFCD8CF
:1037A000A4F8E401002205E08B5CA618521C86F800
:1037B000BC31D2B28242F7D3A4F8E85101210BE028
:1037C00004EB41026618B2F8E63196F8BB61491C79
:1037D0003344A2F8E831C9B28142F1D304EB40018D
:1037E0000AE0221804EB400382F8BC51B1F8E6214C
:1037F000401CA3F8E821C0B22828F2D3302504F5F4
:10380000DC74AE02F3E02828C7D8202EC5D8A4F86F
:103810006402002205E08B5CA618521C86F83C323C
:10382000D2B28242F7D3A4F8685201210CE000BF63
:1038300004EB41026618B2F8663296F83B62491C06
:103840003344A2F86832C9B28142F1D304EB40019B
:103850000BE093E0221804EB400382F83C52B1F8ED
:103860006622401CA3F86822C0B22828F2D304F5CF
:103870000E7430254FF48036B9E014287ED8402EDF
:103880007CD8A4F8D002002205E08B5CA618521C5C
:1038900086F8BC32D2B28242F7D3A4F8D4520121C6
:1038A0000CE000BF04EB41026618B2F8D23296F881
:1038B000BB62491C3344A2F8D432C9B28142F1D36D
:1038C00004EB400119E00000B6A50008300002003A
:1038D000BC300120E1930008FD920008CD9900085A
:1038E000B99A0008221804EB400382F8BC52B1F8E0
:1038F000D222401CA3F8D422C0B21428F2D304F57B
:103900002E741C254FF4A03671E0142836D8402EB2
:1039100034D8A4F81403002205E08B5CA618521CCE
:1039200086F80033D2B28242F7D3A4F818530121AB
:103930000CE000BF04EB41026618B2F8163396F8AB
:10394000FF62491C3344A2F81833C9B28142F1D353
:1039500004EB40010AE0221804EB400382F8005314
:10396000B1F81623401CA3F81823C0B21428F2D3D0
:1039700004F53F741C254FF4C03638E054E0FFE7EF
:10398000042851D8202E4FD8A4F84803002205E07F
:103990008B5CA618521C86F84433D2B28242F7D30D
:1039A000A4F84C5301210BE004EB41026618B2F875
:1039B0004A3396F84363491C3344A2F84C33C9B2E6
:1039C0008142F1D304EB40010AE0221804EB4003EA
:1039D00082F84453B1F84A23401CA3F84C23C0B2E8
:1039E0000428F2D304F550740C254FF4E036A81ED9
:1039F00081B22046FCF764FF6119DFF85CC301F86F
:103A0000020D000A48701421D24800DF012809D0B5
:103A10002B4632462146002003F029FACD48DFF834
:103A20003CC300DF4046F9E50120F7E50868B0F146
:103A3000011F01D00020704701207047002070470F
:103A40000020704700207047002070470868C44974
:103A5000884201D00020704701207047034610B50E
:103A600000200146BF4A93F8023110E001EB011437
:103A700002EB0414D4F80C4194F83D40012C04D01E
:103A80001CB1052C01D0012010BD491CC9B28B42CC
:103A9000ECD810BD70B5054688790C46FF2841D09A
:103AA000E079FF283ED0207AFF283BD0607AFF28BB
:103AB00038D01421A748DFF8A0C200DF012830D099
:103AC0005FF000002A18401C14F8011BC0B282F8F5
:103AD00060170628F6D300202A18401C14F8011B92
:103AE000C0B282F84C170428F6D32178A5F86817DD
:103AF00062784FF4ED6001EB0221415305F5E96076
:103B000022210446FCF7DCFEA5F86A0724234FF4C3
:103B1000C8522146002003F0AAF92846FEF7F0FC1F
:103B2000002070BD012070BD10B500221346C418DE
:103B3000521C5B1C94F86047DBB201F8014B92B257
:103B4000062BF4D30023C418521C5B1C94F84C477A
:103B5000DBB201F8014B92B2042BF4D300F5ED6314
:103B600090F8680708701888000A4870921C90B294
:103B700010BD10B5042300F26C700022845C521C4E
:103B800001F8014B042AF9D3184610BD70B5002383
:103B9000754D1C465B1C2E5D641C01F8016B9BB2CD
:103BA000062CF7D3FF250024012A16D0022A1DD0A7
:103BB0000D704D708C70CC70091D1B1D9BB26B4A33
:103BC00002F21E7092F81E270A700088000A4870E0
:103BD0008C701B1DCC7098B270BD00205B1C401C0B
:103BE00001F8015B9BB20428F8D3E8E700228518AE
:103BF0005B1C95F82057521C01F8015B9BB2042A0C
:103C0000F5D3DCE770472DE9F04700240F7890F8F2
:103C100020272346974210D14A7890F82157AA428C
:103C20000BD18A7890F82257AA4206D1CA7890F828
:103C30002357AA4201D1012452E0DFF834A1002227
:103C40001646AAF1080900BF00EBC20595F828C77F
:103C5000BCF1010F20D019F802502B43521C042A4A
:103C6000F2DBCBB300224D46AF5C1F4235D000EBF8
:103C7000C20000F5E5600123037046700B78837085
:103C80004B78C3708B780371C9784171C6803AF85C
:103C90001200801C84B223E095F82AC76745DDD165
:103CA00091F801C095F82B87C445D7D191F802C08F
:103CB00095F82C87C445D1D191F803C095F82D57BC
:103CC000AC45CBD100EBC204A4F82E673AF8122021
:103CD000921C1404240CC4D002E0521C042AC3DB3E
:103CE0002046BDE8F0870346002004290DD203EBEF
:103CF000C10000F5E5600022027042708270C2705F
:103D000002714271C921C1800120704710B50022A3
:103D100000EBC20191F82837012B11D1B1F82E47E1
:103D200040F22E73641CA4B25C52C82C08D301F577
:103D3000E56100230B704B708B70CB700B714B7176
:103D4000521C042AE4DB10BDD0F870077047074806
:103D5000FFF7E0B8BC300120E1930008FD920008B5
:103D600002000100AC370020280000206C2F00204A
:103D7000D0A8000830B5020045F65A2011D0F94C01
:103D8000B4F8B23093420CD300210DE001EB4105B1
:103D900005EBC10504EB8505B5F8B850954201D196
:103DA000084630BD491C89B28B42EFD830BD00F5C2
:103DB0008670002102681165026882F84910026865
:103DC000A2F84A100268A2F84C100068A0F84E1041
:103DD000704730B50023E44DE44C06E003EB0310DC
:103DE00005EB0010FFF7E3FF5B1C94F8020198421B
:103DF000F4D830BD2DE9F043D0F80C71DB4D97F8C5
:103E00003D10B5F83A41B5F83821052913D2DFE85D
:103E100001F012120303030042F61641795A91424F
:103E200000D201B9114642F61843FB5AA34203D20D
:103E300013B11C4600E011460378DFF834835A437F
:103E40001FFA82FC08EB4C02A946B2F902200023BB
:103E500015460EE00CEB030608EB4606B6F90260C9
:103E6000964201DD324602E0AE4200DA35465B1C86
:103E70009BB28B42EED3C7F8AC20D0F80C11C1F83E
:103E8000B450B9F83A11027851438EB208EB4601AA
:103E90000022B1F9021A0B460DE0B51808EB4505F2
:103EA000B5F9025A8D4201DD294602E09D4200DA51
:103EB0002B46521C92B2A242EFD3D0F80C21C2F88A
:103EC000BC10D0F80C01C0F8C430BDE8F08330B5A8
:103ED0000446D0F80C0190F83D2090F83E108A423C
:103EE00008D0012916D080F83C20D4F80C013D30D0
:103EF000417801702046FFF77DFFD4F80C010022C5
:103F0000042590F83D10062939D2DFE801F01E0A99
:103F10000F242A2F80F83D10D4F80C0180F83C10B3
:103F2000E8E72079800710D4022018E021794907BA
:103F30000BD48E49B1F88A312178491C4B43A168D2
:103F40008B4203D901F13201A16030BDA580A2608E
:103F500080F8482030BD20790007FBD40820A080DD
:103F600030BD2179C906FBD4102103E021798906EF
:103F7000F6D42021A180C189A0F85C1030BDA280B8
:103F8000017B802242EA0121C181D4F80C0180F832
:103F90003E5030BD70B57548FFF7B8FE0024724E34
:103FA000724D06E004EB041006EB0010FFF78FFFE4
:103FB000641C95F80201A042F4D870BD017830224B
:103FC000C1EB01118900B1FBF2F16431016170476D
:103FD00000F586700121026882F83C100268002119
:103FE00082F83D10026882F83E10026882F83F10A5
:103FF0000268A2F840100268A2F842100268A2F813
:1040000044100268A2F84610026891810068B0F876
:104010004C20B0F84A309A4201D180F849107047DC
:1040200010B5D0F80C1142F68442D431002301E0DF
:1040300021F8023BD0F80C4114448C42F8D2D0F85D
:104040000C010121C0F8141110BD00F5867000218B
:10405000026882F849100268A2F84A100268A2F8C1
:104060004C100268A2F84E10026811650268A2F8AE
:1040700054100268A2F85610026891650268A2F80E
:104080005C100268A2F85E1002689FED3A0A1166A1
:10409000026882ED190A026891660268D1660268B8
:1040A00011670268516702689167026882ED1F0A12
:1040B000026882ED200A026882ED210A026882ED20
:1040C000220A026882ED230A026882ED240A02684D
:1040D00082ED250A026882ED260A026882ED270A2F
:1040E000026882ED280A026882ED290A0268C2F895
:1040F000A8100268C2F8B0100268C2F8B8100268CE
:10410000C2F8C01003684FF4B4421A810368012258
:104110005A81026891810268A0F58670D389832B49
:1041200000D0D18100F5867002681161026851618A
:1041300002681183026851830268D16102681162CA
:10414000016881ED090A016881ED0A0A016881EDC3
:104150000B0A016881ED0C0A00689FED070A80EDEB
:104160000D0A7047AC6A0020AC3700206C2F00208D
:1041700058B8002000000000339388C30146012096
:10418000D1F80C115A230A89B3EB122F00D000206A
:104190000A7B223ADC2A00D80020FC4A0B699342B1
:1041A00000D900204B69934200D900200B8B41F6C7
:1041B0008442934200D900204B8B934200D90020C7
:1041C000F34ACB69934200D900200B6A934201D98C
:1041D000002001E00028C4D18322CA81C1E7D0F8C1
:1041E0000C01EC494160BCE7D0F80C01E94940689A
:1041F000884201D00020B4E70120B2E768302C21CA
:1042000003F0EFBB08461C2103F0EBBB70B5E2499D
:104210000446E04E0878002530B972064A601368FB
:10422000B34201D0166095804AF6A522DB4B42438B
:104230001A4402F00303D21AC4F80C212070401C67
:10424000087084F8245065804FF0FF30206104F13D
:1042500048001C2103F0C5FB2046FFF7CFFF204696
:10426000FFF7C2FFB8B12046FFF788FFB0B1D4F81E
:104270000C11C8890A2801D0A1F85600D4F80C0105
:104280000A21012290F83D60062E11D2DFE806F0E7
:10429000171025434346D4F80C0146602046FFF72B
:1042A000D4FE2046FFF794FE2046FFF7B9FE35E026
:1042B00080F83C20D4F80C0180F83D5008E090F8DC
:1042C0003C20022A03D02046FFF782FE26E0C1816F
:1042D000D4F80C0180F83E5020E0B0F84230A3F54D
:1042E0007F46FE3E0BD042F65E43C35AFF2B06D0FC
:1042F000C181D4F80C013C304178017001E080F8B4
:104300003C20D4F80C0180F83D50D4F80C0180F822
:104310003E50D4F80C014089A4F848002046FFF72D
:104320004DFE002104F12800DFF874C200DF0021F7
:1043300004F13000DFF868C200DF002104F1400022
:10434000DFF85CC200DF002104F13800DFF850C262
:1043500000DF204670BDD0F80C0131B1012901D039
:10436000022905D090F83D0004E090F83E0001E0FD
:1043700090F83C00062801D90020F2E60120F0E682
:10438000884A0146002092F86821002A06D0D1F818
:104390000C1191F8CC10002900D10120E1E630B5D4
:1043A0000446D0F80C01002590F83D10062904D2EF
:1043B000DFE801F01621072121212046FFF708FE42
:1043C0000EE00A21C181D4F80C013C304178017023
:1043D000D4F80C0180F83D50D4F80C0180F83E5020
:1043E000D4F80C01B0F84C10B0F84A20914201D139
:1043F00080F8495030BD80F83C10E9E7B1E62DE97E
:10440000F04104464FF00008DFF89CC100DFD4F80B
:104410000C014C22C830654903F0B1FA634FD4F85F
:104420000C11643F0025B7F8B2004FF48C76C1F848
:1044300014010EE005EB450101EBC50106EB81021D
:10444000104407EB8101B8312C2203F098FA6D1C5F
:10445000EDB2D4F80C01D0F81411A942EAD8DFF873
:1044600050C100DF6EE004F5867405EB450022685C
:1044700000EBC500002106EB8003D15222684FF407
:104480008D7303EB8003D1524FF48E73226803EBDC
:104490008003D1501FEDC90A4FF49073226803EBDB
:1044A00080031A444FF4927382ED000A226803EBF2
:1044B00080036D1CD15222684FF4937303EB800389
:1044C000D1524FF49473226803EB80031A444FF4E3
:1044D000967382ED000A226803EB8003EDB2D1529D
:1044E00022684FF4977303EB8003D1524FF4987313
:1044F000226803EB80031A444FF49A7382ED000A9A
:10450000226803EB8003D1504FF49C73226803EBC5
:1045100080031A444FF49E7382ED000A226803EB75
:1045200080031A444FF4A07382ED000A226803EB63
:104530008003D15222684FF4A17303EB8000A4F5ED
:1045400086741152FA2D8ED34046BDE8F081D0F822
:104550000C0142F68442815203E630B5D0F80C21BA
:10456000002492F83D50062D24D2DFE805F0260302
:1045700026262626022319B1A1F57F45FF3D01D14C
:1045800082F83E3000218180816016E0809698009C
:10459000804A5D05300691D198000020000100603E
:1045A0005D9600086C2F0020CD990008106B00204C
:1045B000B99A0008042082F83E00204630BD1C2233
:1045C000483103F0DCB910B502460020D2F80C31B6
:1045D000012293F848400CB1104610BD93F83D40BD
:1045E000052CFAD2DFE804F0040403030500F3E726
:1045F000F3E70029F0D110BDD0F80C01C089B0E577
:10460000D0F80C01C181ACE5D0F80C0180ED0A0AAC
:10461000A7E5C0F88010A4E5D0F80C0180ED090AE8
:104620009FE5C0F884109CE5D0F80C01494900F5DD
:104630003050343090EC020A30EE200AF6EE000AD8
:1046400020EE200AD1ED440ABDEEC00A10EE100A99
:1046500000EE100AB8EEC00AF4EEC00AF1EE10FA4D
:1046600002D2BDEEE00A0CE000EE900A91ED470A9E
:10467000F8EEE00AB4EEE00AF1EE10FA03DDBDEE6A
:10468000C00A10EE100A6CE500EE101ADFED320AD7
:10469000D0F80C01B8EEC00A80EE201A80ED0D1A99
:1046A0005FE55EE55DE5D0F80C0180ED0B0A58E5AD
:1046B000D0F80C318AB20914C3F8B420D0F80C0138
:1046C000C0F8AC104DE5D0F80C318AB20914C3F82B
:1046D000C420D0F80C01C0F8BC1042E5D0F80C01A1
:1046E00081653EE570B50446D6B2C2F307201514C5
:1046F000D4F80C219165A166D4F80C114989814246
:1047000007D194F8640020B104F12800DFF84CC010
:1047100000DF022E04D0032E01D1A4F86C5070BD2E
:104720006D1D0A2095FBF0F0A4F8700070BD3030CC
:10473000DFF828C000DF14E53830DFF820C000DFE4
:104740000FE530234FF48872AFF23F51044803F075
:10475000DDB900006C2F00200000C8429D960008C3
:10476000AC3700202DE9F0410E78044600250EB14B
:10477000072E02D90120BDE8F081DFF8D4C400DFA4
:1047800000200121082E59D2DFE806F058041B272B
:1047900058584F5404F586742268D0812268906579
:1047A000226882F84800206890F83D20062A05D249
:1047B000DFE802F0040404040303F12580F83E104E
:1047C0003CE0D4F80C0190F83D10032936D2DFE824
:1047D00001F0353502000321F0E7D4F80C11022670
:1047E00091F83D20052A29D2DFE802F02828280385
:1047F000060081F83E6021E0CA891427272A0DD0DF
:104800000CDD432A0AD002DCA2F1280206E04B2A82
:1048100004D002DCA2F1440200E04F2AC881D4F89F
:104820000C0180F83E60678408E0D4F80C0180F841
:10483000481003E0D4F80C1181F84800DFF814C4E4
:1048400000DF284697E7D0F80C014A3081880180C4
:104850007047D0F80C0130F84A1F81807047FE483D
:10486000428801EB42010288807901EB420101EBB1
:10487000800080B27047D0F80C114A31488809880E
:10488000884203D2F54AB2F83A281044401A80B25E
:104890007047D0F80C01F149B0F84E20B1F8381843
:1048A00001FB020042F63851405CC0F30210704731
:1048B00010B50078087075204870891C0223002408
:1048C0004FEA04005B1C641C01F8010B9BB2042C32
:1048D000F8D308704870891C9B1D9BB25FF00004E0
:1048E000641C01F8010B042CFAD308704A7088701C
:1048F000C870091D08339AB25FF000035B1C01F811
:10490000010B042BFAD308704870891C921D92B2D7
:104910005FF000035B1C01F8010B042BFAD3121D9E
:1049200093B20022521C01F8010B042AFAD31B1D7A
:104930009BB20022521C01F8010B042AFAD31B1D62
:104940009BB20022521C01F8010B042AFAD31B1D52
:104950009AB200235B1C01F8010B042BFAD3121D41
:1049600092B200235B1C01F8010B042BFAD30870F0
:1049700048708870C8700871093290B210BD1D2A45
:1049800040D2DFE802F00F13181D3F22273F2C31E1
:1049900036393C3F3F3F3F3F3F3F3F3F3F3F414432
:1049A00015475100D0F80C01C06F35E0D0F80C016C
:1049B000D0F8800030E0D0F80C01D0F888002BE06F
:1049C000D0F80C01D0F88C0026E0D0F80C01D0F81B
:1049D000B40021E0D0F80C01D0F8AC001CE0D0F815
:1049E0000C01D0F8C40017E0D0F80C01D0F8BC00DE
:1049F00012E0B0F96C000FE0B0F97C000CE0B0F907
:104A00007E0009E0002007E0B0F9700004E0B0F992
:104A1000720001E0D0F884000870020A4A70020CAB
:104A20008A70000EC8707047D0F80C01F2E72DE9CB
:104A3000F0470C4605460026DFF814C200DF287850
:104A40002070D5F80C0190F83D0040F070006070C7
:104A5000D5F80C21A41C022014320021535C491CFF
:104A600004F8013B0429F9D3D5F80C11801D897A8B
:104A70002170D5F80C114989090A6170D5F80C210B
:104A8000A41C10320021535C491C04F8013B04298A
:104A9000F9D3D5F80C11001D097B04F8011B2A7805
:104AA0006F4912B90A78521C0A70D5F80C2192F895
:104AB0003D70062F04D2DFE807F00303030305056A
:104AC000917B04E00978C907FAD192F85C1004F8E8
:104AD000011BD5F80C11001D097E2170D5F80C11B1
:104AE000098B090A6170D5F80C21A41C1C32002125
:104AF000535C491C04F8013B0429F9D3D5F80C1187
:104B0000801D897E2170D5F80C11498B090A6170CE
:104B1000D5F80C31A41C203300215A5C491C04F840
:104B2000012B0429F9D3D5F80C21001D24320021D2
:104B3000535C491C04F8013B0429F9D3D5F80C2136
:104B4000001D28320021535C491C04F8013B042954
:104B5000F9D3D5F80C21001D2C320021535C491CDF
:104B600004F8013B0429F9D3D5F80C21001D30329B
:104B70000021535C491C04F8013B0429F9D3D5F802
:104B80000C21001D34320021535C491C04F8013B08
:104B90000429F9D3314B001D4FF4A06CB3F83A212E
:104BA000227000EB4200110A801C617087B22878E5
:104BB000A41C504380B2DFF8ACA04FF0FF091118DD
:104BC00013E060450BD20AEB400808F6022298F881
:104BD000028A84F800801288C2F3072202E04A4663
:104BE00084F800906270A41C401C8142E9D8B3F89C
:104BF00038112170080A6070A41C07EB4100801C6A
:104C000082B228784F46484380B2014412E06045A2
:104C10000CD20AEB400999F8028004F8018BB9F82C
:104C200002804FEA182804F8018B02E027706770B1
:104C3000A41C401C8142EAD893F83EC1BCF1100F7D
:104C400001D94FF0100C04F801CB02EB8C000BE003
:104C5000CD990008B99A0008A43000206C2F0020DC
:104C6000A000002058B80020401CDFF840941FFA34
:104C700080FA00279846664513D208EBD70007F064
:104C8000070190F8402119F80100024206D0761C75
:104C90003A4621462846FFF772FE241D7F1C202F2E
:104CA000E9D3DFF80CC400DF5046BDE8F0872DE9FA
:104CB000F0410C460546DFF8FCC300DFD5F80C11C7
:104CC0000020B1F84E20B1F84C309A4206D181F85C
:104CD0004900DFF8DCC300DF00204CE5F64BB3F8F9
:104CE000383803FB021142F638520A442978217001
:104CF000117861709188D388A41C01EB0341491C91
:104D00007ED002F1100300215E5C491C04F8016BA7
:104D10000429F9D391792170D18802F10C03090A91
:104D20006170A41C00215E5C491C04F8016B04291D
:104D3000F9D3117A2170917A6170117DA170918AF5
:104D400002F11803090AE170241D00215E5C491C70
:104D500004F8016B0429F9D3917D2170D18A02F105
:104D60001C03090A6170A41C00215E5C491C04F844
:104D7000016B0429F9D302F1200300215E5C491C78
:104D800004F8016B0429F9D302F1240300215E5CCD
:104D9000491C04F8016B0429F9D302F1280300210E
:104DA0005E5C491C04F8016B0429F9D302F12C0361
:104DB00000215E5C491C04F8016B0429F9D302F15F
:104DC000300300215E5C491C04F8016B0429F9D30F
:104DD000B9492E23B1F83A61782E02D97826A1F884
:104DE0003A6191F83A612670B1F83A61360A667014
:104DF000B1F83A61A41C03EB46039B1C9EB200E091
:104E00005BE002F13803002705E000BF13F801CB97
:104E100004F801CB7F1CB1F83AC1B7EB4C0FF5D3C6
:104E2000B1F83831F02B02D9F023A1F8383191F8DC
:104E300038312370B1F838311B0A6370B1F838315A
:104E4000A41C06EB43039B1C9EB2B1F83A3102EB63
:104E500043033833002704E013F801CB04F801CBF7
:104E60007F1CB1F838C1B7EB4C0FF5D3B1F83E3128
:104E7000102B02D91023A1F83E3191F83E3104F8ED
:104E8000013BB1F83E3106EB83035B1C9EB2B1F8E7
:104E90003A3102EB4302B1F8383102EB43023832C7
:104EA000002304E012F8017B04F8017B5B1CB1F8DD
:104EB0003E71B3EB870FF5D354E0121D0021FF23A1
:104EC000491C04F8013B0429FAD3131D00215E5C40
:104ED000491C04F8016B0229F9D3968802F10803F2
:104EE00000215F5C491C04F8017B0429F9D302F11D
:104EF0000C0300215F5C491C04F8017B0429F9D3F1
:104F0000117C2170118A02F11403090A6170A41C3A
:104F100000215F5C491C04F8017B0429F9D302F1EC
:104F2000180300215F5C491C04F8017B0429F9D3B4
:104F300002F11C0300215F5C491C04F8017B042979
:104F4000F9D302F1200300215F5C491C04F8017BC6
:104F50000429F9D324320021535C491C04F8013B95
:104F60000429F9D3544BD5F80C21B3F83A38B2F8E8
:104F70004E105B1E994203DA491CA2F84E1001E064
:104F8000A2F84E00DFF828C100DF30465AE42DE9D0
:104F9000F0410C4605462626DFF818C100DFD5F89B
:104FA0000C010023B0F84E10B0F84C20914206D10D
:104FB00080F84930DFF8F8C000DF002042E43E4AC4
:104FC000B2F8382802FB010042F63851084429782B
:104FD000021D217000786070A41C0020115C401C30
:104FE00004F8011B0428F9D390792070D08802F1CD
:104FF0000801000A6070A41C00200F5C401C04F82B
:10500000017B0428F9D31079207050796070107BEF
:10501000A070908902F11001000AE070241D0020A8
:105020000F5C401C04F8017B0428F9D3907B2070AE
:10503000D08902F11401000A6070A41C00200F5CEA
:10504000401C04F8017B0428F9D302F11801002068
:105050000F5C401C04F8017B0428F9D302F11C0109
:1050600000200F5C401C04F8017B0428F9D3203297
:105070000020115C401C04F8011B0428F9D30E4ADF
:10508000D5F80C01B2F83A28B0F84E10521E9142F1
:1050900003DA491CA0F84E1001E0A0F84E30DFF80A
:1050A00010C000DF304618E6002070474EA9000807
:1050B000B99A0008CD9900086C2F00200020704795
:1050C000002070470020704730B5012400F50053E0
:1050D000FE4A2104C3F8041192F80211302903D8C2
:1050E00011B192F8031109B1002030BD451805F542
:1050F000005585F80811491C3029F7D392F80201B0
:10510000A3F8F801204630BDDEE7F148FCE70021B6
:105110000A4643189A7083F8C22000EB4103491CE9
:10512000A3F88221C029F4D30021421802F50052CD
:1051300082F80811491C3029F7D30021421802F5E2
:10514000005282F83811491CC029F7D342F2F811F5
:10515000C0220A5270470020704730B5DB4C002057
:10516000024694F8023104E08D182D79C02D06D244
:10517000521C9A42F8D3CA181279C02A01D90120C8
:1051800030BD94F803215343B1F8F420C02A01D86C
:105190009A4201D0022030BD002207E08C1894F81A
:1051A0003440302C01D3042030BD521C9A42F5D338
:1051B00030BD0844807870470346002003EB41016E
:1051C000002A01DA002202E0B1F882311A44A1F883
:1051D000822193B2BD4AB2F87C21934202D3A1F856
:1051E000822101207047C1EBC10100EB810000F575
:1051F00041701C2102F0F5BB70B50646080200F5AF
:10520000807040F03F0010600820107300230125DB
:1052100053739573D373137153719371D371137265
:1052200053729372D3720C4601223046FFF7C4FFCB
:10523000012801D13019857070BD2DE9FF4F87B06D
:105240000F46149C30297CD8380200F58078A1489C
:1052500007EB071100EB01160798C7EBC7014FF0EA
:10526000080B4FF0010A4FF0000900EB8105012AFD
:1052700006D05AB348F0420097492060F7B347E0A0
:1052800031466846FFF79BF905F541701C226946D7
:1052900002F075FB48F0410005F542752060287862
:1052A00020712888000A60712868000CA0712868A5
:1052B000000EE07128792072A888000A6072686880
:1052C000000CA0726868A5F5427575E048F03F00D3
:1052D000206084F80CB084F80D9084F80EA084F857
:1052E0000F9084F8049084F8059084F8069084F870
:1052F000079084F8089084F8099000E004E084F8AE
:105300000A9084F80B902EE0087880F00100087075
:1053100030460978FFF757F995F80413217195F88D
:105320000613617140F08000A071B5F806033528BE
:1053300030D03A282ED045282FD04A282DD04846A4
:1053400000E064E084F8079084F8089084F80990FD
:1053500084F80A90E07284F80CB084F80D9084F818
:105360000EA084F80F90012239460798FFF724FF1A
:1053700001284CD107984C46384480F8029095F8A3
:10538000060310F00A0F19D0D5F80803404200EECA
:10539000100A15E084F807A001E00220E07195F8FA
:1053A00010032072B5F81003000A6072D5F81003DC
:1053B000000CA072D5F81003000ECBE795EDC20AE1
:1053C0003046B8EEC00AFFF71FF9D5F80C0310B944
:1053D0003046FFF729F900EE100A3046B8EEC00A51
:1053E000FFF71AF93046FFF75CF93046FFF75AF934
:1053F000D6F80C01817B302900D1C48196F8640075
:10540000002804D006F12800DFF8D0C000DF0BB080
:10541000BDE8F08F2DE9F0471C4690460F468146C7
:1054200030297CD24FF0FF32FFF7C6FE294907EB47
:10543000071201EB021540B92846FFF7DDF83028C6
:1054400003D128460021FFF7DBF84FF4807000EB12
:10545000072646EA080609EB0700B8F1A20F5DD05F
:1054600073DCB8F1940F59D061DCB8F1810F7CD0B6
:1054700047DCA8F12108B8F1060F50D81848DFF82A
:1054800064C000DF00284AD01548FAF703FF050082
:1054900045D02E602078287120882946000A68713E
:1054A0002068DFF848C0000CA8712068000EE87181
:1054B00020792872A088000A68726068000CA872BF
:1054C0006068000EE8720222074811E06C2F00208D
:1054D0005C960020AC370020A10000209D960008BB
:1054E00020210120AD9000083C2D01209191000861
:1054F00000DF012852D12946BDE8F0478348FAF77A
:10550000D9BEB8F1910F09D00ADCB8F1820F75D07D
:10551000B8F1830F73D0B8F1900F3FD176E03DE042
:10552000B8F1920F72D0B8F1930F37D16EE0A8F1B5
:105530009508B8F10D0F31D2DFE808F06868303017
:1055400068686868686868686800B8F1D40F5DD0FA
:105550003BDCB8F1C10F08D022DCB8F1A60F55D062
:105560000BDCB8F1A30F51D000E07EE0B8F1A40F3E
:105570004CD0B8F1A50F11D148E0B8F1A70F45D034
:10558000B8F1B00F42D0B8F1BF0F07D12178A1B365
:10559000012964D0022962D000218170BDE8F08722
:1055A000B8F1D10F32D009DCB8F1C20F26D0B8F172
:1055B000C30F24D0B8F1D00FF0D127E0B8F1D20F4B
:1055C00024D0B8F1D30FE9D120E0B8F1DB0F1DD022
:1055D00005DCA8F1D508B8F1050FDFD816E0B8F161
:1055E000DF0F13D00CDCB8F1DC0F0FD0B8F1DD0FFA
:1055F0000CD0B8F1DE0FD1D108E030E075E06AE000
:10560000B8F1E00F02D0B8F1F00FC7D13F48DFF892
:1056100000C100DF0028C1D03C48FAF73BFE05007E
:10562000BCD02E602078287120882946000A687135
:105630002068DFF8E4C0000CA8712068000EE87153
:1056400020792872A088000A68726068000CA8722D
:105650006068000EE87202222E4800DF49E701214F
:105660008170217880F8C21098E790F8C20018B1D4
:1056700001280BD0022826D094ED000A2846B8EE67
:10568000C00AFEF7C1FF94ED010A0FE020680A2668
:1056900090FBF6F000EE100A2846B8EEC00AFEF7BE
:1056A000B3FF606890FBF6F000EE100AB8EEC00A97
:1056B0002846FEF7B1FF2846FEF7F3FF2846BDE86F
:1056C000F047FEF7EFBF94ED000A2846FEF79CFF77
:1056D00094ED010AECE728462168FEF79AFF284678
:1056E0006168BDE8F047FEF79CBFD4E90012284688
:1056F000BDE8F047FEF7F6BF00B587B01C2269464B
:1057000002F03DF907B000BD044800E5202101206A
:10571000AD9000083C2D0120919100085C9600207E
:105720002DE9F0473D4A4FF4A06311780170491C00
:10573000117000224FEA020100EB4204521C61800A
:105740009A42F9D3364C002200EB4205521CA5F8D0
:10575000024A9A42F8D3002241F2044300EB820449
:10576000521CE150282AF9D3002241F2A44300BF81
:1057700000EB8204521CE150282AF9D3002241F2A6
:10578000445300BF00EB8204521CE150042AF9D3B9
:10579000002140F2EF7341F254544FF4FA6541F2A4
:1057A000B45640F2191741F214694FF0FA0C41F265
:1057B000746A00BF00EB4102491C1353955322F851
:1057C000097022F80AC03029F4D3BDE8F08740F20E
:1057D000011008600020087148718871C871087252
:1057E00048728872C87208220A7301228A73C873C9
:1057F000704700200870487003228A70C8700871D2
:1058000048718871C871087248728872C8720873CA
:10581000487388730F207047024881E7A200002078
:1058200054F5FFFF58B800202DE9F047764F0646A3
:10583000451E4FF00108386808FA05F4894604420D
:1058400006D17248012100EBC500DFF8C4C100DFBA
:105850007048017849B980F80080102240F20C515C
:105860006D4802F064F9012816D06C4805EB450537
:1058700000EB45106021DFF8A8C100DF6348DFF8C6
:10588000A0C1C03800EB4510602100DF3868044239
:1058900004D00020BDE8F0870220FBE7304600F08E
:1058A00085FD0028F6D149463046BDE8F04700F0B6
:1058B0000CBE421E01219140534A1268114201D090
:1058C0000020704700F027BEF8B517460E46054683
:1058D000441E00F03EFE78B34F48FAF7DBFC009020
:1058E000010033D096E80D1081E80D104B4804EB11
:1058F000440200EB421004463A46DFF828C100DFBC
:10590000012804D0284600F024FE38B118E04248AF
:105910000099FAF7CFFC012816D013E020463A464A
:105920006946DFF804C100DF01280BD03A4800992E
:10593000FAF7C0FC012807D03146284600F036FEB1
:105940000020F8BD0820F8BD0720F8BD0620F8BDEE
:1059500030B40023CB73441E0123A3402A4C246897
:10596000234202D030BC01F07DBF30BCACE7012344
:10597000CB73A9E72DE9F041884606461546144643
:105980004FF6FF77304600F0E4FD60B1BD4200D134
:10599000641C641E0120DFF894C000DF002CF1DAE3
:1059A0000820BDE8F0814146304600F0A9FE0446DB
:1059B0001648DFF87CC000EBC600083800DF204640
:1059C000EFE738B50C46401E104900EB4000C039E7
:1059D00001EB40106946DFF850C000DF01280AD013
:1059E000009991E82D002DC40B48FAF763FC0128BB
:1059F00003D0002038BD082038BD072038BD00F096
:105A000065BF00F0A2BF000024000020B8D5002030
:105A10005D960008A30000202CCF002038D4002081
:105A2000B590000891910008359200085D8F00083C
:105A30009D96000807283FD2DFE800F004060B3EE1
:105A4000131E2C00002035E0002001F02BF801206F
:105A500030E0002001F026F8012001F023F80220B8
:105A600028E0002001F01EF8012001F01BF80220C0
:105A700001F018F803201DE0002001F013F80120C8
:105A800001F010F8022001F00DF8032001F00AF8EF
:105A900004200FE0002001F005F8012001F002F8D9
:105AA000022000F0FFFF032000F0FCFF042000F0C4
:105AB000F9FF052000F0F6FFFEE710B502F0A4FCA8
:105AC00002F0B6FF02F0DCFD04F030FCBDE810404F
:105AD00002F09EBA10B502F0B1FC02F0AFFFBDE8D3
