:020000040800F2
:1000000000630120817F0008897F0008019D0008AE
:100010008D7F00088F7F0008917F0008000000009E
:10002000000000000000000000000000D5020008F1
:10003000957F00080000000081030008F503000818
:10004000FF9C00089B7F00089B7F00089B7F0008A7
:100050009B7F00089B7F00089B7F00089B7F000818
:100060009B7F00089B7F00089B7F00089B7F000808
:100070009B7F00089B7F0008EFA000089B7F000883
:100080009B7F00089B7F00089B7F0008D79100089A
:10009000239200089B7F00089B7F00089B7F00083D
:1000A0009B7F0008AD9C00089B7F00089B7F000899
:1000B0003FA20008DBA200089B7F00089B7F00088E
:1000C0009B7F00089B7F00089B7F00089B7F0008A8
:1000D0008F970008AD9E00089B7F00085DA1000877
:1000E0009B7F00089B7F00089B7F00089B7F000888
:1000F0009B7F00089B7F00089B7F00089B7F000878
:100100009B7F00089B7F00089B7F00089B7F000867
:100110009B7F00089B7F00089B7F00089B7F000857
:100120009B7F00089B7F00089B7F00089B7F000847
:100130009B7F0008998800089B7F00086792000851
:10014000B79200089B7F00089B7F00089B7F0008F8
:100150009B7F00089B7F00087F9E00089B7F000814
:100160009B7F00089B7F00089B7F00089B7F000807
:100170009B7F00089B7F00089B7F00089B7F0008F7
:100180009B7F00089B7F000800F002F800F05EF8FB
:100190000AA090E8000C82448344AAF10107DA45E2
:1001A00001D100F053F8AFF2090EBAE80F0013F0D6
:1001B000010F18BFFB1A43F001031847B0D9000024
:1001C000D0D900000A444FF0000C10F8013B13F0A6
:1001D000070408BF10F8014B1D1108BF10F8015BA0
:1001E000641E05D010F8016B641E01F8016BF9D193
:1001F00013F0080F1EBF10F8014BAD1C0C1B09D1EA
:100200006D1E58BF01F801CBFAD505E014F8016B5B
:1002100001F8016B6D1EF9D59142D6D370470000ED
:100220000023002400250026103A28BF78C1FBD8FF
:10023000520728BF30C148BF0B6070471FB50DF093
:1002400008F90AF02BFA1FBD10B510BD0AF038FAF4
:100250001146FFF7F3FF00F0EFF90AF056FA03B486
:10026000FFF7F2FF03BC0AF057FA000080F3098899
:100270007047EFF309807047684680F309880448A7
:100280000078C00714BF0220032080F31488704751
:100290001CDB0008DFF818C0EFF305831B0618BF4E
:1002A0006047EFF31483DB0708BF604700DF704748
:1002B00029BA0008DFF818C0EFF305831B0618BF42
:1002C0006047EFF31483DB0708BF604700DF704728
:1002D000D1BB0008EFF30980816911F8021CC9BB8A
:1002E00010B590E80F10E047BDE81040EFF3098C1F
:1002F000204B93E80600914229D081B10CB41EF046
:10030000100F06BF2CED108A0323012381F826303D
:100310002CE9F00FC1F82CC00CF00CF80CBC1A60E2
:10032000D2F82CC0BCE8F00F92F8263013F0020F80
:100330001ABFBCEC108A6FF0120E6FF0020E8CF335
:10034000098813F0010F08BF704792F82500CCF818
:100350000000704710B5084A1268914209D8074C4E
:1003600054F8214090E80F10A047EFF3098C8CE877
:100370000F0010BD3C01002028A7000828A7000896
:1003800010B50BF071FEBDE81040194B93E8060064
:10039000914208BF70470CB4EFF3098C1EF0100FA8
:1003A00006BF2CED108A0223002381F826302CE9A9
:1003B000F00FC1F82CC00BF0BDFF0CBC1A60D2F8D6
:1003C0002CC0BCE8F00F92F8263013F0020F1ABFD1
:1003D000BCEC108A6FF0120E6FF0020E8CF30988DD
:1003E00013F0010F1CBF92F82530CCF80030704795
:1003F0003C01002010B50CF06FF8C4E710B50BF00D
:10040000D9FA0CF069F8BEE7F04A032100200CF09D
:100410007BFDEF4908700846007828B1ED48018857
:10042000EB4800780CF09EFD06E00221EA48DFF878
:10043000ACC300DF0BF02CFAF7E709F00DFC02F07B
:10044000B0FC19E01421E648DFF890C300DF012872
:100450000FD0E4480078401CC0B2E24908700A2876
:1004600004DD00200870032008F0FEFF05F08FF87F
:1004700002E0022008F0F8FFE4E700BF42F6E06087
:10048000DFF864C300DFF9E71FB500BF012269464A
:10049000104607F03CFC98B96946002002F06FFB5B
:1004A0000020D2490860D2480068401CD04908604A
:1004B0000828EBD900200860052008F0D5FFE5E703
:1004C000CA480068401CC949086008460068C82836
:1004D00001D900200860002002F0F6FBD6E71FB526
:1004E00000BF01226946022007F011FC98B9694655
:1004F000012002F044FB0020BE490860BE480068AD
:10050000401CBD4908600828EBD900200860042081
:1005100008F0AAFFE5E7B7480068401CB549086045
:1005200008460068C82801D900200860012002F0B0
:10053000CBFBD6E70021A848DFF8C0C200DFB048F7
:10054000DFF8C0C200DF09F091FAAF49086009F096
:100550007FF909F043F8AC48006809F01CFF08F087
:10056000F7FE03F0CBFC06F031FD0AF07FFFA74950
:100570000978A64A527841EA020002F0C1FA07F06F
:10058000CDFC0020A249086009F056FAA149086094
:1005900064210020DFF880C200DF00239F4AA049C9
:1005A000AFF26910DFF87CC200DF9F4908600023CA
:1005B0009E4A9B491431AFF2AF10DFF868C200DFEA
:1005C0009B49086014210020DFF84CC200DF0023A3
:1005D000984A9949AFF25D10DFF848C200DF9749A9
:1005E00008600023964A8E491131AFF26310DFF89C
:1005F00034C200DF934908600023934A8E490F39C3
:10060000AFF22510DFF81CC200DF8E49486012E00F
:100610007F4801680068401C7D4A1060642904D945
:1006200065201146086002F0D5FB1420DFF8B8C140
:1006300000DF0CF053FCEBE7FFF71EFE0022114633
:10064000AFF20F10DFF804C200DF00BFFEE700E0EA
:10065000401E0028FCD1704710B57D480068401C42
:100660007B490860084600687A49884203D3052020
:1006700008F0E8FE02E0052008F05AFE7448006821
:100680007549884203D3042008F0DCFE02E0042010
:1006900008F04EFE6E4800687049884203D303207C
:1006A00008F0D0FE02E0032008F042FE684800682F
:1006B0006B49884203D3022008F0C4FE02E0022006
:1006C00008F036FE624800686649884203D301207C
:1006D00008F0B8FE02E0012008F02AFE5C4800683D
:1006E0006149884203D3002008F0ACFE02E00020FC
:1006F00008F01EFE56480068401C554908605B49DA
:10070000884204D300205249086008F0ADFE10BDB5
:100710005AE057480068401C554908600846006880
:100720005049884203D3002008F08CFE02E00020EC
:1007300008F0FEFD4E4800684E49884203D3012070
:1007400008F080FE02E0012008F0F2FD4848006851
:100750004549884203D3022008F074FE02E00220DB
:1007600008F0E6FD424800684349884203D303206D
:1007700008F068FE02E0032008F0DAFD3C4800685B
:100780003A49884203D3042008F05CFE02E00420CA
:1007900008F0CEFD364800683849884203D305206A
:1007A00008F050FE02E0052008F0C2FD3048006865
:1007B000401C2F4908603249884205D300202C494B
:1007C0000860012008F050FEA3E700001F090008A0
:1007D0002800002072000020D4000020F5C200088C
:1007E000DC000020000000207DBB00080800002085
:1007F00004000020100000200C0000207DC2000832
:10080000CC3201200DBF00082400002098D400083D
:100810001C000020200000203DC6000868050020C4
:100820001E00040059C50008BC000020680100201B
:10083000C0000020680B00203C000200C80000201F
:10084000680D0020CC0000206811002081C3000842
:10085000140000205034030080A90300C0450400A8
:1008600080200500A0680600808B080040D10C00A5
:10087000180000200053070000410A000017110073
:1008800080A219002DE9F8430546884691460027C5
:10089000B5F5B86F01DD012000E000200DB90121A0
:1008A00000E00021084301D0BDE8F883314805800D
:1008B0004FF4B8602F4948804A4641462D4800F021
:1008C0008FFA074600202C490860F7B929490888A3
:1008D0000CF00AFB0646002404E02648001D005DDB
:1008E0003055641C23480088A042F6D8214800886F
:1008F00033460090214802882149224800780CF0B4
:10090000D7FB062008F0B0FD03E03946194800F097
:100910003BF800BFC8E70146002000BF70472DE943
:10092000F04105460C4616461F46DDF81880207833
:100930001349087060784870A0788870E078C870B3
:100940000E4806800846FFF7E6FF10B10020BDE81C
:10095000F0810C480078854201D00020F7E707209D
:1009600008F082FD064A39464046FFF78BFF00201B
:10097000EDE70000681300201C000020700000203C
:100980006C000020280000202DE9F04104460D46AF
:1009900000260027092D06D2DFE805F00506080528
:1009A00009070A0B0C0000BF00BF00BF00BF00BF5B
:1009B00000BF00BF7D2020717B21617127722680DE
:1009C00000BF00BF002008F04FFD012008F04CFDE3
:1009D000BDE8F08110B502464FF6FF7008E012F84E
:1009E000013B5840C3B2FB4C34F8133083EA20205B
:1009F0000B00A1F10104A1B2F1D110BD2DE9F04726
:100A000004460F4690460025267994F80590802EDE
:100A10000AD0F148805D484502D1B9F1FF0F06D1F7
:100A2000ED48815D617102E0EB48815D617147B124
:100A3000812E06D00721A171052020802088BDE8E5
:100A4000F087A6F18000722873D2DFE800F0394306
:100A50004E5760727272726973819072727299B637
:100A60009AB79BB89CB99DBA9EBB9FBCA0BDA1BEC6
:100A7000A4C172C2CFDDF5F3F2F17272F072EFEE43
:100A8000EDECEBEAE9E87272A2BFA3C0E772A5C37E
:100A9000A6C4A7C572727272727272727272727228
:100AA0007272727272727272727272727272727226
:100AB000727272727272727272727272727272E6A2
:100AC00042462146A01D00F053FB05462088C01C6D
:100AD000208038E143463A462146A01D00F074FBD1
:100AE00005462088C01C20802DE14146A01D00F055
:100AF0004FFE0546A5710520208024E14146A01D3A
:100B000000F004FF0546A571052020801BE1414649
:100B1000A01D01F01CF80546A5710520208012E1FA
:100B20004146A01D01F016F80546A571052020805C
:100B300009E100E12146A01D01F00FF805461DB1B5
:100B4000A5710520208002E02088C01C2080FAE0EA
:100B500042462146A01D01F00EF805461DB1A571C3
:100B60000520208002E02088C01C2080EBE0414668
:100B7000A01D01F018F80546A57105202080E2E0CF
:100B800000BF00BF00BF00BF00BF00BF00BF00BF6D
:100B900000BF00BF00BF00BF00BF00BF2246A11DB5
:100BA000304601F02FF805461DB1A57105202080C3
:100BB00002E02088C01C2080C5E000BF00BF00BF4D
:100BC00000BF00BF00BF00BF00BF00BF00BF00BF2D
:100BD00000BF00BF00BF00BF4246A11D304601F06C
:100BE00020F90546E57106202080ACE02146A01DD5
:100BF00001F025FA05461DB1A5710520208002E00F
:100C00002088C01C20809EE04146A01D01F02FFAE4
:100C10000546E5710620208095E07FE072E064E003
:100C200051E061E04EE05EE04BE05BE03BE031E054
:100C300027E018E00EE0FFE72146A01D01F03CFA96
:100C400005461DB1A5710520208002E02088C01C4A
:100C5000208078E04146A01D01F04DFA0546E5717F
:100C6000062020806FE02146A01D01F06CFA0546A9
:100C70001DB1A5710520208002E02088C01C2080C5
:100C800061E04146A01D01F07DFA0546E5710620B0
:100C9000208058E04146A01D01F0AEFA0546E571FE
:100CA000062020804FE02146A01D01F0BAFA05463B
:100CB0001DB1A5710520208002E02088C01C208085
:100CC00041E000BF00BF2246A11D304601F0F1FA0D
:100CD00005461DB1A5710520208002E02088C01CBA
:100CE000208030E000BF00BF00BF4246A11D30465B
:100CF00001F0EEFB0546E5710021217261720620CC
:100D0000208020E04146A01D01F02DFD0546E57143
:100D10000021217261720620208014E04146A01D4E
:100D200001F035FD0546A5710021E1712172617266
:100D30000620208007E00821E17100212172617204
:100D40000620208000BF00BFB4F800A0504676E621
:100D50002DE9F04706460D46174698464FF0000924
:100D60002888092802DC0220BDE8F087002405E07D
:100D7000281D015D301D0155601C84B2072CF7DB76
:100D80006888093815494880002407E0281DE11DBE
:100D9000415C1248001D0155601C84B22888A042A5
:100DA000F4DC424639460D48FFF728FE002407E0F0
:100DB0000A48001D025D301DE11D4254601C84B2D2
:100DC00006480088A042F3DC04480088C01D30803B
:100DD0004846C9E730D8000830D70008EA24002088
:100DE0002DE9F74F86B005460E4600200590824655
:100DF0000490288803906888103880B20290D34607
:100E0000042001904FF00009002000900024E3E04E
:100E1000BAF1FF0F00D1E3E0BAF1040F64D00CDCAB
:100E2000BAF1000F16D0BAF1010F19D0BAF1020FC2
:100E300027D0BAF1030F0CD139E0BAF1FB0F73D010
:100E4000BAF1FC0F71D0BAF1FD0F6FD0BAF1FE0FFD
:100E50006DD000BF305D7D2801D14FF0010AB9E0AF
:100E6000305D7B2804D07D2805D04FF0000A06E0D5
:100E70004FF0020A03E0012009B0BDE8F08F00BF87
:100E8000A8E0305D7D280CD1601C305C822806D142
:100E9000641C7D20B44908804FF0030A06E002205C
:100EA000EAE7305DB04908804FF0030A92E0305D18
:100EB0007D2801D10220DFE7AB480088315D40EAA0
:100EC0000120A94908800846B0F8008001880298EE
:100ED000814201DD0220CFE70027BB46601C80B2C3
:100EE00001904FF0040A75E0305D7D2820D1601C30
:100EF000305C7B2804D07D2803D0822803D000BF3B
:100F000000BF0320B8E7641C0BF101001FFA80FB4F
:100F100095480088401E944908807D2238467F1CF1
:100F2000091D0A5400BF09E011E029E042E049E050
:100F3000325D38467F1C8C49091D0A540BF10100B3
:100F40001FFA80FBC34501DB4FF0FB0A42E0305D36
:100F50007D2810D1601C305C7B2804D07D2803D014
:100F6000822803D000BF00BF042085E7641C4FF037
:100F70007D0900BF01E016F804904FF0FC0A29E05B
:100F8000305D7D2810D1601C305C7B2804D07D282A
:100F900003D0822803D000BF00BF04206CE7641C8C
:100FA00049F4FA4900BF02E0305D49EA00294FF0F8
:100FB000FD0A0FE0305D7D2801D005205CE74FF091
:100FC000FE0A07E0305D7D2801D0052054E74FF090
:100FD000FF0A00BF00BF641C03988442FFF418AFEF
:100FE00000BFBAF1FF0F74D1019970185946FFF78D
:100FF000F1FC484501D004203EE75B490298488057
:1010000000BF59495948089B009AFFF7A1FE059077
:10101000059800287ED17D2028717B2169710427E5
:101020004FF00008002418E008F101001FFA80F8D2
:101030004E48001D025D38467F1C291D0A544B484E
:10104000001D005D7D2807D1822238467F1C0A548E
:1010500008F101001FFA80F8641C44480088A0428F
:10106000E2D80298804518DD0498401CC0B2049074
:10107000049803280FDC6888A8EB00003230009940
:10108000084480B2009069880098B0EB610F01DBE2
:101090000720F1E6B5E70720EEE685F806804FEA7F
:1010A0002821E971A8797D2814D13C4605E0601E0D
:1010B000291D095C281D0155641E032CF7D88221C7
:1010C000281D01557F1C4146401DFFF783FC8146CA
:1010D00006E030E0414605F10800FFF77BFC814661
:1010E00038467F1C291D01F8009009F0FF007D287B
:1010F00003D1822238467F1C0A544FEA29223846FF
:101100007F1C291D0A5409F47F40B0F5FA4F05D120
:10111000822200E00CE038467F1C0A547D223846CB
:101120007F1C291D0A5438467F1C0A542F8019E061
:101130000820059016E0BAF1050F04D2DFE80AF0A6
:1011400006070A0B0E00062005900AE000BF0120EA
:10115000059006E000BF0220059002E00320059004
:1011600000BF00BF059887E6141F00203E1900202D
:101170002DE9F04704460E4617464FF0000AD046C8
:101180003946FE4803F068FF804608F0FF0001285A
:101190000ED12178607801EB002085B2F748B0F8D5
:1011A0001E07A84204D0F548A0F81E5703F098FB8C
:1011B00008F0FF022146F14802F0D7FF8146A6F869
:1011C00000905046BDE8F0872DE9FF4F85B00446FA
:1011D000002004900390824620780290E71C6178FA
:1011E000A07801EB002080B2019040F28A2107989C
:1011F000884205DA49000798081A1FFA80F803E0C8
:10120000072009B0BDE8F08FDC4804F027F810F0A3
:10121000010F48D00120207060786070A078A07025
:101220000020E0700426241D002536E0D34890F805
:10123000741790F80201814204DAD04890F87407DC
:10124000302803DB0021CD4880F8741706F1330005
:10125000404500DD26E0C94991F8741701EB011102
:10126000C74A02EB01108222214605F00CF9C3485F
:10127000B0F83C08304486B2C048B0F83C0804449A
:101280003878401C3870BD4890F87407401CC1B2D3
:10129000BA4880F87417681CC5B2B84890F80201C3
:1012A000A842C3DC4EE2B548089903F0D5FE834658
:1012B0000BF0FF00012807D002286CD0012020701D
:1012C0000020387004263CE20298022802D00298DE
:1012D00003287BD10298032821D10020019000210E
:1012E000A64880F87617002513E005EB0511A44AFF
:1012F00002EB011005F077F805EB0511A04A02EBAF
:10130000011005F08AF801469E4820F81510681C67
:10131000C5B29A4890F80201A842E6DC76E09A4805
:10132000006881880198814251D097480068808880
:1013300080B3022008F098F8904890F87607401C97
:10134000C1B28E4880F8761790F8760704281FDB24
:1013500000218A4880F87617002513E005EB051177
:10136000874A02EB011005F037F805EB0511844AB6
:1013700002EB011005F051F80146824820F81510E3
:10138000681CC5B27D4890F80201A842E6DC3DE049
:10139000002515E01BE07AE105EB0511784A02EB28
:1013A000011005F020F805EB0511754A02EB01105C
:1013B00005F033F80146734820F81510681CC5B2D3
:1013C0006E4890F80201A842E6DC1FE011E100211E
:1013D0006A4880F87617002513E005EB0511684A86
:1013E00002EB011004F0F8FF05EB0511644A02EB73
:1013F000011005F012F80146624820F81510681C2B
:10140000C5B25E4890F80201A842E6DC0198A0F55A
:101410007F41FF3904D101205B490968888004E0DD
:101420000198401C584909688880544890F875070D
:10143000302806DA514890F8751790F80201814279
:1014400003DB00214D4880F875174F48006800798C
:1014500060704D48006880880012A0700020E07025
:101460000426241D85E0454890F87517454830F856
:101470001100002860DD414991F8751701EB011159
:101480003F4A02EB011004F0E9FF06282CD03B494B
:1014900091F8751701EB0111394A02EB0110214651
:1014A00005F0A9FA3548B0F83C08A8EB00001FFA8F
:1014B00080F83248B0F83C08304486B22F48B0F883
:1014C0003C0804443878401C38702C4890F8751754
:1014D0002C4830F81100401E81B2284890F875273A
:1014E000284820F8121044E0A8F126001FFA80F8DE
:1014F0000AEB4A0202EB0A12244B03EB42011F4A99
:1015000092F8752702EB02121D4B03EB021005F057
:1015100045FC0AF1010000F0FF0A184890F8751721
:10152000184830F81100401E81B2144890F8752711
:10153000144820F812101CE00398401CC0B203901D
:101540000E4890F802110398814200DC22E00B481B
:1015500090F87507401CC1B2084880F8751790F8DC
:10156000751790F80201814203DB0021034880F8DF
:1015700075170248B0F83C08404509E07431002076
:10158000B43900204C3900209C000020602B002042
:101590007FF769AF00BFBAF1000F16DD04F801ABA9
:1015A000002004F8010B00BF07E0FE49095C04F8C5
:1015B000011B711C8EB2411C88B20AEB4A0101EB7F
:1015C0000A11B0EB410FF0DB06E0002004F8010B3C
:1015D00004F8010BB01C86B20398E8BB3878D8B386
:1015E000F14890F87507401CC1B2EF4880F87517B4
:1015F0004CE00020E0700426241D002539E0EA4874
:1016000090F87407302806DAE74890F8741790F8D5
:101610000201814203DB0021E34880F87417E248AD
:10162000B0F83C083044404500DD27E0DE4991F841
:10163000741701EB0111DD4A02EB0110214605F0A0
:1016400048F8D948B0F83C08304486B2D648B0F8DB
:101650003C080444387800E018E0401C3870D24858
:1016600090F87407401CC1B2CF4880F87417681C0A
:10167000C5B2CD4890F80201A842C0DC00BF0020EE
:1016800004F8010B04F8010BB01C86B259E04FEAD4
:101690002B2901202070002038700426241DB9F168
:1016A000040F00DB8146002539E0C14800EBC9008A
:1016B0004078302804DB0021BD4800EBC9004170B0
:1016C000B948B0F83C083044404504DDA8EB0600BA
:1016D0001FFA80F828E0B64901EBC901497801EB0F
:1016E0000111B24A02EB0110214604F0F2FFAE48AC
:1016F000B0F83C08304486B2AB48B0F83C0804442B
:101700003878401C3870AA4800EBC9004078401C6B
:10171000C1B2A74800EBC9004170681CC5B2A2481D
:1017200090F80201A842C0DC00BF002004F8010BC1
:1017300004F8010BB01C86B2A8EB06001FFA80F873
:1017400000BF00BF012004F8010B022004F8010BC8
:10175000032004F8010B042004F8010B301D86B2AD
:10176000914890F805212146924806F074F90090BE
:101770000098304486B200980444002004F8010B1D
:1017800004F8010BB01C86B206980680049838E570
:101790002DE9F84F074689464FF000084946824830
:1017A00003F05AFC009000243EE0062C02D14FF0DA
:1017B000000A01E04FF0080A002530E005EBC406FE
:1017C000302E00DB2DE0385D7B49495D084224D096
:1017D00006EB0611754A02EB011007F1200104F037
:1017E000A3FC8046B8F1000F06D0B8F1010F04D079
:1017F000B8F1F10F10D103E00EE04046BDE8F88FDC
:10180000701C172141EA002B02226C49584601F056
:10181000EAF84FF0000800BF00BF681CC5B255458C
:10182000CCDB00BF601CC4B2072CBEDB4046E5E742
:1018300001460122B1F85C00A0F57F43FF3B07D0D1
:10184000B1F85C30AA20405A834201DD0020704785
:101850006220405AF02807DC6420405A782803DCD4
:101860006620405A102801DD0020F0E791F8A8001A
:10187000A8B1A920405C91F8A83098420FDCAA20BA
:10188000405A60B1AC20405848B1AA20435AAC201D
:101890004058834203D3AA20405AFA2801DD002091
:1018A000D5E71046D3E70FB410B50D9C0121BDF864
:1018B0000820601C824203DD002010BC5DF814FB90
:1018C000BDF80A00102801D10120F6E7BDF80A0092
:1018D000222805DBBDF80A00FE2801DC0020ECE729
:1018E000BDF81400212803DABDF81C00212801DB13
:1018F0000020E2E7BDF816000B2803DABDF81E0051
:101900000B2801DB0020D8E70846D6E72DE9F04395
:1019100089B006460F464FF0000835463946224842
:1019200003F09AFB81462846FFF782FF18B9012091
:1019300009B0BDE8F0832248007820B101287CD0AE
:1019400002286ED1F3E0A920405D002872D1B022B8
:1019500031461B48083008F0DDFD0020184988801A
:10196000C880002446E02C2304FB03F2B032911916
:1019700004EB440202EBC403114AB83202EB8300C9
:101980002C2208F0C7FDE0B2079004EB440000EB06
:10199000C4020B48B83000EB820000F110011C2299
:1019A00068460FE0602B002074310020B43900201D
:1019B0009C38002060BA002030DA0008942F012003
:1019C000B46C002008F0EBFD04EB440000EBC40114
:1019D000FB4800EB810CBCE80F00FFF764FF08B97F
:1019E0000120A5E7F648B838C088401CF449B8394A
:1019F000C880641CAC204059A042B4D8F048B83824
:101A00008088401CEE49B83988800846818890F863
:101A1000B000814207DB0220E949B83908700BE0C9
:101A20000BE087E006E00120E549B8390870C820DE
:101A3000488001E001207BE786E0A920405DE04985
:101A4000B8398988884206D1B0223146DC48B0389E
:101A500008F060FD06E00020D949B83908704880D8
:101A6000012065E7002441E02C2304FB03F2B0329F
:101A70009119D34AB83AD288224402EB420303EBCD
:101A8000C203CF4A02EB83002C2208F043FDCC486E
:101A9000B83880792044C0B20790C948B838C088A7
:101AA000204400EB400202EBC002C54800EB82007C
:101AB00000F110011C22684608F071FDC048B838DA
:101AC000C088204400EB400101EBC001BC4800EBA2
:101AD000810CBCE80F00FFF7E6FE30B90020B849E2
:101AE000B83908704880012022E7641CAC204059B6
:101AF000A042B9D8B248B838C188AC20405B08448D
:101B0000AF49B839C88008468088401C888008469C
:101B1000818890F8B000814204DB0220A849B839DE
:101B2000087003E0C820A649B83948800CE04FF09F
:101B3000020809E00020A249B8390870488088806E
:101B4000C8804FF0010800BF00BF4046F0E60246E3
:101B50000020704702460020704770B505460C46CD
:101B600000262946974803F0E1F920802088801C50
:101B70002080304670BD2DE9F04704460D461646DC
:101B80000027B94631468F4803F066FA814609F0CE
:101B9000FF0221468B4803F002FA8046A5F8008038
:101BA0003846BDE8F0872DE9F04705460E464FF070
:101BB000000800272978687801EB00201FFA80F9D7
:101BC0003146804803F048FA0746F8B2022814D19B
:101BD000002404E0315D7C480155601CC4B2042C33
:101BE000F8DB7848A0F81E9702F07AFE39127548A3
:101BF00003F0C1FA4FF0000801E04FF00108404641
:101C0000BDE8F0872DE9FC4707460C4691464FF0AA
:101C100000082078401CC6B26A4890F80201B04221
:101C200002DA0720BDE8FC87002268496848DFF82F
:101C3000A4C100DF20B9654801686748FEF73AFB98
:101C400038469E2F3AD00CDCA0F190000D2855D2DA
:101C5000DFE800F018541C542054245428542C5409
:101C60003000BC283AD006DCA0282BD0A2282DD0EA
:101C7000BA2843D12EE0C02834D0C22836D0C42898
:101C80003CD137E01B2040EA06253BE0202040EA1B
:101C9000062537E0162040EA062533E0102040EA0A
:101CA00006252FE0112040EA06252BE0122040EA0D
:101CB000062527E0132040EA062523E0192040EA04
:101CC00006251FE01A2040EA06251BE0302040EAE6
:101CD000062517E01C2040EA062513E01D2040EAF7
:101CE00006250FE0142040EA06250BE0152040EA07
:101CF000062507E01E2040EA062503E000254FF0F8
:101D000001084FE000BF922F14D1002004E0411CD5
:101D1000625C32490A54401C0228F8DB0220304938
:101D2000CDE900102D48001F0FC800F0A7FE00F0FD
:101D3000FF0806E002222A49284600F054FE00F07F
:101D4000FF08B8F1000F00D02CE00A221F492048FC
:101D5000DFF880C000DF012802D14FF0050814E051
:101D600020481A49D1F800C09CE80E10A0E80E10D7
:101D7000164801681848FEF79DFA1A48006845F0B1
:101D80008001884201D04FF0040800220F4910481A
:101D9000DFF840C000DF20B90C4801680E48FEF7AC
:101DA00089FA00BF84F801806078E8B10020607291
:101DB0002072E071A07160712071E070A0702BE062
:101DC0006C6D0020743100209438002074000020D5
:101DD0004C2F012055BE000830230120C42A0020CA
:101DE000942F0120D02A0020FA480079A070F948E9
:101DF0004079E070F74880792071F648C0796071C9
:101E0000F448007AA071F348407AE071F148807A92
:101E10002072F048C07A60720A20A9F8000040469B
:101E200000E72DE9FE4F06460C4690460027BA46CD
:101E30002078401CC5B2BB46002002904146E648CF
:101E400003F00AF983460BF0FF00012803D00920B4
:101E50006070BDE8FE8FE04890F80201A84201DA08
:101E60000720F6E7A32E09D16178DB4890F802013C
:101E7000814201DC607808B90720EAE70022D749EF
:101E8000D748DFF860C300DF20B9D4480168D648DE
:101E9000FEF710FA3046A12E43D00DDCA0F19100E0
:101EA0000F2860D2DFE800F0195F1D5F255F295F12
:101EB0002D5F315F355F3900BD283AD006DCA3289D
:101EC0003BD0A5283DD0BB284DD12EE0C1283ED027
:101ED000C32840D0C52846D141E05B20C3490860F3
:101EE00042E06020C1490860282002904FF0010ABA
:101EF0003AE05620BD49086036E05020BB490860F2
:101F000032E05120B94908602EE05220B7490860FC
:101F10002AE05320B549086026E05920B3490860FB
:101F200022E05A20B14908601EE05C20AF490860F9
:101F30001AE05D20AD49086016E07020AB490860EA
:101F400012E05720A9490860282002900CE0542094
:101F5000A649086008E05520A449086004E05E2016
:101F6000A249086000E000BF00BFA048006840EA46
:101F7000052949F0800908209C490873002048730E
:101F8000012088730020C87300BF05E0411C625C1B
:101F90009649091D0A54401C0828F7DB934800683D
:101FA00040EA05209149086002209149CDE90010DE
:101FB0008E480FC800F062FDC7B207B13CE005B91A
:101FC0003AE002980A3082B284498548DFF814C2A8
:101FD00000DF012801D1052714E086497F48D0F8A9
:101FE00000C0DCE90023DCE9020CC1E9020C0CC1F1
:101FF0007A4801687C48FEF75DF97E4800684845EC
:1020000000D00427002275497548DFF8D8C100DFE9
:1020100020B9724801687448FEF74CF9BAF1000F14
:1020200009D0012040EA05207049086000220868B4
:102030006F4900F0D8FC00BF6770384609E72DE90A
:10204000F04104460D460027267800BFFF2E02D03F
:102050000720BDE8F081641C0120288021465E48ED
:1020600002F06CFC2988084428803846F1E72DE905
:10207000F041044688460026277800BFFF2F02D093
:102080000720BDE8F0814146534802F0E5FF0546D0
:10209000E8B2012801D00920F3E7E11E4E4801F023
:1020A0003CFD28B9611C4C4802F059FC064600E092
:1020B000012666703046E4E72DE9F04104460D46FE
:1020C000002794F800806678B8F1FF0F02D007204F
:1020D000BDE8F0810EB1052E01DD0A20F8E70320EE
:1020E00028803246A11C3C4802F064FC2988084440
:1020F00028803846ECE72DE9F04704460F460026D5
:1021000094F800806578B146B8F1FF0F02D007203F
:10211000BDE8F0870DB1052D01DD0A20F8E739464D
:102120002D4802F099FF814609F0FF00012801D0F7
:102130000920EDE72A46A11C274802F08EFC06463E
:10214000A6703046E4E72DE9F04104460D4600272D
:1021500094F800806678B8F1FF0F02D00720BDE840
:10216000F0810EB1052E01DD0A20F8E7032028805A
:102170003246A11C184802F01DFC2988084428801A
:102180003846ECE72DE9F04704460F46002694F860
:1021900000806578B146B8F1FF0F02D00720BDE896
:1021A000F0870DB1052D01DD0A20F8E739460A4810
:1021B00002F052FF814609F0FF00012801D00920FA
:1021C000EDE72A46A11C044802F047FC0646A6702B
:1021D0003046E4E7D02A0020743100207800002047
:1021E0004C2F012055BE000830230120E02A00209A
:1021F000942F0120F02A00202DE9F04104460D46DD
:10220000002600272946F74802F026FF0746F8B2C5
:10221000012803D00920A070BDE8F081641C30467D
:10222000FAE70246002020B190700023D370042307
:102230000B80704702460020052A22D008DC012AC4
:102240000FD0022A11D0032A13D0042A2DD114E072
:10225000812A1AD0822A1CD0832A1ED0842A24D113
:102260001FE0282900DB072021E0282900DB0720C8
:102270001DE0142900DB072019E0142900DB0720EA
:1022800015E0042900DB072011E0082900DB072006
:102290000DE0082900DB072009E0082900DB072002
:1022A00005E0082900DB072001E0012000BF00BF96
:1022B00070472DE9F04780460C469146002794F878
:1022C00000A0657829465046FFF7B4FF074607B1DE
:1022D000D3E0BAF1050F28D00CDCBAF1010F16D00B
:1022E000BAF1020F15D0BAF1030F16D0BAF1040FEC
:1022F0002FD116E0BAF1810F1BD0BAF1820F1CD09A
:10230000BAF1830F1DD0BAF1840F22D11DE0EDB2D6
:1023100020E005F12800C5B21CE005F15000C5B26F
:1023200018E005F16400C5B214E005F17800C5B20B
:1023300010E005F18000C5B20CE005F18800C5B2DF
:1023400008E005F19000C5B204E005F19800C5B2BF
:1023500000E000BF00BFB8F1B20F06D0B8F1B40F73
:1023600008D0B8F1B60F0FD109E0681C102141EA7E
:1023700000260BE0681C202141EA002606E0681CCC
:10238000302141EA002601E0012776E000BF9648AF
:102390000660082094490873002048730120887360
:1023A0000020C87300219048C1728172417201728D
:1023B000C17181714171017100228C498C48DFF833
:1023C00034C200DF20B9894801688B48FDF772FFED
:1023D0008948DFF828C200DF08B38748FDF75AFFB5
:1023E0008749086008460068B8B108460068DFF809
:1023F000F8C19CE80E10A0E80E1002228048016887
:102400008048DFF804C200DF012809D17C48016858
:102410007948FDF74FFF032702E0062700E0062773
:1024200007B12AE0142271497148DFF8C8C100DF02
:10243000012801D1052713E074486C49D1F800C088
:102440009CE80E10A0E80E10684801686A48FDF785
:1024500031FF6E48006846F08001884200D00427B2
:10246000002262496248DFF88CC100DF20B95F4872
:1024700001686148FDF71EFF00BFA770A07848B152
:102480000020A07260722072E071A07160712071F2
:10249000E07017E05D480079E0705C484079207199
:1024A0005A48807960715948C079A0715748007ABC
:1024B000E0715648407A20725448807A60725348DE
:1024C000C07AA0720B20A9F800003846BDE8F0875A
:1024D0002DE9F84F07460D4692464FF0000995F852
:1024E00000806C7895F80AB00020009051463D4875
:1024F00002F0B2FD00900098C0B2012803D009207C
:10250000A870BDE8F88F21464046FFF793FE81464C
:10251000B9F1000F00D022E1B8F1050F28D00CDC92
:10252000B8F1010F16D0B8F1020F15D0B8F1030FB2
:1025300016D0B8F1040F2FD116E0B8F1810F1BD0DF
:10254000B8F1820F1CD0B8F1830F1DD0B8F1840F01
:1025500022D11DE0E4B220E004F12800C4B21CE066
:1025600004F15000C4B218E004F16400C4B214E0F5
:1025700004F17800C4B210E004F18000C4B20CE0B1
:1025800004F18800C4B208E004F19000C4B204E091
:1025900004F19800C4B200E000BF00BFA7F1B10091
:1025A000092844D2DFE800F0054318433443394397
:1025B0003E00B8F1040F02D0B8F1820F07D1BBF191
:1025C000020F04D1601C422141EA002603E0601C96
:1025D000412141EA00262BE0601C502141EA0026FF
:1025E00026E0000074310020002B00207C00002039
:1025F000702F012055BE000830230120CDBC0008FB
:1026000080000020A8320120B1BD0008102B00205E
:10261000601C602141EA00260AE0601C702141EA4A
:10262000002605E0601C712141EA002600E000BFA1
:1026300000BFD64806600820D449087300204873BC
:10264000012088730020C873B32F01D0B52F04D1A7
:1026500008F10300CD49087102E0A878CB49087160
:10266000E978CA484171297981716979C171A9797B
:102670000172E9794172297A8172697AC172002204
:10268000C349C448DFF810C300DF20B9C04801685F
:10269000C248FDF70FFEC148DFF804C300DF18B3DE
:1026A000BE48FDF7F7FDBF49086008460068C0B1A5
:1026B00008460068DFF8D4C29CE80E10A0E80E10AF
:1026C0000222B8480168B848DFF8E0C200DF0128FC
:1026D0000CD1B4480168B148FDF7ECFD4FF0030997
:1026E00004E04FF0060901E04FF00609B9F1000FD0
:1026F00000D034E0B12F00D131E00A22A449A5482E
:10270000DFF894C200DF012802D14FF0050919E07B
:10271000A7489F49D1F800C0DCE90132DCF800107D
:10272000DCF80CC0C0E9022C0AC0994801689B483B
:10273000FDF7C0FD9E48006846F08001884201D048
:102740004FF00409002292499248DFF84CC200DFA2
:1027500020B98F4801689148FDF7ACFD00BF85F8AE
:1027600002904846CDE62DE9F04104460D4600268C
:10277000002729468F4802F06FFC0746F8B201286F
:1027800003D00920A070BDE8F0813046FBE72DE9B9
:10279000FC5F04468B460025AA465946854802F050
:1027A0005BFC82460AF0FF00012802D00920BDE848
:1027B000FC9F94F800806678A178E07801EB002017
:1027C0001FFA80F9B8F1000F03D0B8F1010F73D1EF
:1027D000D4E0022E02DAB9F10C0F01D00120E6E7B5
:1027E0002079617940EA0120A17940EA0140E1794C
:1027F00040EA01677048076008206F4908730020AD
:102800004873012088730020C873207A0871617AA8
:1028100069484171A17A8171E17AC171217B0172AC
:10282000617B4172A17B8172E17BC1722079213889
:1028300007281AD2DFE800F004070A0D101316006B
:102840002079207114E02079207111E02079207125
:102850000EE0207920710BE02079207108E02079CA
:10286000207105E02079207102E02079207100BFFD
:1028700000BF002E42D1002250495148DFF818C154
:1028800000DF20B94D4801684448FDF713FD0220E0
:102890004C49CDE9001048480FC800F0EFF8C5B228
:1028A00005B170E0282245494548DFF8ECC000DF5B
:1028B000012802D1052513E061E043483F4909683A
:1028C00091E80C10C96880E80C10C1603B480168B1
:1028D0003248FDF7EFFC3C480068B84200D00425C0
:1028E000002236493648DFF8B0C000DF002844D166
:1028F000324801682948FDF7DDFC3EE000222F49FF
:102900002448DFF894C000DF20B92C480168234830
:10291000FDF7D0FC02202449CDE9001026480FC85D
:1029200000F0ACF8C5B205B12DE0282223491948C2
:10293000DFF864C000DF012801D1052511E022483D
:102940001E49D1F800C09CE80E10A0E80E101B48EC
:1029500001681248FDF7AEFC1B480068B84200D081
:102960000425002215490B48DFF82CC000DF20B9F0
:10297000124801680948FDF79DFC02E001E00120D2
:1029800015E700BF00BF284611E70000202B0020FC
:1029900084000020702F012055BE00083023012044
:1029A000CDBC000888000020A8320120B1BD00087D
:1029B000302B002074310020402B00208C000020A0
:1029C0004C2F0120942F0120502B00200146C87865
:1029D000704700B50246C2EBC201DB4B03EB81003E
:1029E000FFF7F4FF00BD2DE9FF4105460E461746EF
:1029F0004FF00008009508208DF80C0000208DF89D
:102A00000D0001208DF80E0000208DF80F008DF8CC
:102A1000040000218DF805108DF806108DF80710C0
:102A20008DF808108DF809108DF80A108DF80B102C
:102A3000C648DFF81CC300DFD0B1C448FDF72AFC4C
:102A4000044694B19DE80F0084E80F00BAB2214615
:102A50003046DFF800C300DF01280BD12146BB4818
:102A6000FDF728FC4FF0030804E04FF0060801E0F2
:102A70004FF00608404604B0BDE8F0812DE9FF4163
:102A8000DDE90A560027B148DFF8C4C200DFC0B153
:102A9000AE48FDF7FFFB04468CB19DE80F0084E8CB
:102AA0000F00B2B221462846DFF8A8C200DF012895
:102AB00008D12146A548FDF7FDFB032702E00627C4
:102AC00000E00627384604B0BDE8F08110B50446A2
:102AD0002078A16805F000F8E07838B92078012363
:102AE0004FF47E52002106F015FB05E0207801230B
:102AF0000022114606F00EFB207805F036F810BDD6
:102B000070B5054600240BE09348005D284206D0CE
:102B1000C4EBC4018C4A02EB8100FFF7D7FF641CB1
:102B2000022CF1D370BD2DE9F04107460D46F8782F
:102B300090B92888C0F307242E7864B18748B0F88C
:102B4000F400A04207DB601EC1B22B1D3246844850
:102B500004F0E3FC11E010E02888C0F307242E788D
:102B6000002C01DD282C08DD282C01DD502C04DD93
:102B7000502C01DD642C00DD00BFBDE8F08170B594
:102B800004460D46022C00D370BDC4EBC4016E4A4E
:102B900002EB81002946FFF7C6FF00BFF4E77CB5D2
:102BA0000446E088002802DDE088401EE080E078EE
:102BB00000286FD1002201A96A48DFF8ACC100DF0C
:102BC000002838D1019B0FCB04F10C050FC5257BE4
:102BD000A5F12100072827D2DFE800F004070A0D3D
:102BE00010131600C820E08000BFC820E08000BF9E
:102BF000C820E08000BFC820E08000BFC820E0807F
:102C000000BFC820E08000BFC820E08002225748F3
:102C1000DFF840C1019900DF012803D14B48019939
:102C2000FDF748FB00207CBD48480199FDF742FBB9
:102C300000BF00BF41E0E08808B10020F3E7207941
:102C4000401C2071207902280FDD0120207161785D
:102C50004248B0F8F400401E814203DA6078401C1C
:102C600060700CE00020607009E002202071607943
:102C7000401CC0B26071022801DD0120607104F1C6
:102C80000C000090637922796178354804F062FA8B
:102C900013E0FFE7002201A93548DFF8CCC000DFD0
:102CA00048B9019B0FCB04F10C050FC527480199CA
:102CB000FDF700FB01E00020B5E72078012204F1D8
:102CC0000C0104F0B5FFAEE710B50446022C00D3AA
:102CD00010BDC4EBC4011C4A02EB8100FFF75FFF8B
:102CE00000BFF5E72349097811B1012918D10BE09C
:102CF00020490978491C01700021417081701E49EA
:102D000081600021C1700CE01A490978491C0170EA
:102D1000002141708170194981600121C17000E07A
:102D200000BF00BF0021C18012490978491C114A27
:102D30001170704710B502231C22AFF257010248F0
:102D400007F0F4FC10BD00003C31002030230120CE
:102D5000CDBC0008B1BD000838DA000868B9002011
:102D600064980020942F012055BE00084C2F0120AC
:102D7000A83201209000002020A1070048E80100AF
:102D800001460020FE4AD2F830210A4200D001203C
:102D900070474FF4EE6212580A434FF4EE631A5034
:102DA000704710B500240EE004EB0411F54A02EB65
:102DB000011002F059FD20B90121F148FFF7E9FFA8
:102DC00006E0601CC4B2EE4890F80201A042EBDCC1
:102DD00000BF10BD10B506F02FFE0446E84890F87D
:102DE0004C07C0280CD1E64890F84D07A82807D119
:102DF000E34890F84E0718B90020E349086010BD79
:102E000014F4807F49D0E04801680068401CDE4A25
:102E100010601E2944D91F20114608600021DB489C
:102E2000DFF86CC300DF01283AD0C021D44880F815
:102E30004C17A82180F84D17002180F84E17C321A8
:102E400080F84F17222100F5E960FDF7C3FDCC495A
:102E5000A1F86A0724234FF4C85201F5E961002064
:102E600006F0CBFC002006F0EDFA012006F0EAFAAD
:102E7000022006F0E7FA032006F0E4FA042006F048
:102E8000E1FA052006F0DEFA062006F0DBFA07205C
:102E900006F0D8FA06F024FF02E00020BA490860E4
:102EA00000BFACE70246002005E0BA49095CBA4B16
:102EB0001954411CC8B20628F7DB00201EE0B549B2
:102EC0001439095CB54B1954B24910390B5CB3493C
:102ED000091D0B54AF490C390B5CB04908310B5438
:102EE000AC4908390B5CAD490C310B54A949091F99
:102EF0000B5CAA4910310B54411CC8B20428DEDB1C
:102F00009F49B1F86817A64B1980704770B5044601
:102F1000002604F5E96524234FF4C8522946002011
:102F200006F054FC24212846FDF754FDD0B94FF497
:102F3000E96000599B49884214D140F24C70005D11
:102F4000FF280FD094F84D07FF280BD094F84E07B8
:102F5000FF2807D094F84F07FF2803D04FF4ED6007
:102F6000005BA8B92422904904F5E96007F017FB3B
:102F7000222104F5E960FDF72DFD40F26A71085346
:102F800024234FF4C8522946002006F036FC00E006
:102F900001262046FFF786FF304670BDF0B585B0AC
:102FA00007460D4616461421684607F04CFB302EA6
:102FB00000DC16B9012005B0F0BD0024D3E004EB1D
:102FC000840005EB80004088F0281BDC04EB8400C3
:102FD00005EB8000C088782814DC04EB840005EB46
:102FE0008000408928280DDC04EB840005EB80007C
:102FF000C089282806DC04EB840005EB8000408AA9
:10300000102801DD0220D6E7F4B904EB840035F87E
:103010002000B8B904EB840005EB8000808888B9F3
:1030200004EB840005EB8000008958B904EB8400B0
:1030300005EB8000808928B904EB840005EB800053
:10304000008AE8B30320B6E7601E00EB800035F885
:103050002010601E00EB800005EB800040880844D3
:1030600004EB840135F82110884251D1601E00EB39
:10307000800005EB80008188601E00EB800005EB7E
:103080008000C088084404EB840105EB8101898835
:1030900088423DD1601E00EB800005EB8000018975
:1030A000601E00EB800005EB80004089084404EBC3
:1030B000840105EB81010989884229D1601E00E065
:1030C00028E000EB800005EB80008189601E00EBAA
:1030D000800005EB8000C089084404EB840105EB07
:1030E00081018989884213D1601E00EB800005EBC5
:1030F0008000018A601E00EB800005EB8000408AA2
:10310000084404EB840105EB8101098A884201D05F
:10311000032050E704EB840105EB81014988009806
:103120000844009004EB840105EB8101C9880198F3
:103130000844019004EB840105EB81014989029860
:103140000844029004EB840105EB8101C9890398CE
:103150000844039004EB840105EB8101498A04983B
:1031600008440490641CB442FFF429AF0098B0F501
:10317000A06F25D80198B0F5A06F21D8029815E06E
:1031800074310020B439002094000020CC3201209A
:1031900001C00008D43800202A00002030000020A0
:1031A000720000200200010078DA0008B0F5A06F7C
:1031B00006D80398B0F5A06F02D80498802801D9EA
:1031C0000420F8E60020F6E62DE9F0410446002749
:1031D00004F555764FF472734FF480623146002047
:1031E00006F0F4FA4FF472713046FDF7F3FB60B964
:1031F000FA49D4F85403884207D1302204F55671B5
:103200002046FFF7CBFE002857D0F448C4F85403FB
:103210000021A4F81817002544E0002105EB8502E1
:1032200004F5567020F8221005EB850200EB8200B1
:10323000418005EB850204F5567000EB8200818029
:1032400005EB850204F5567000EB8200C18005EBAA
:10325000850204F5567000EB8200018105EB8502C2
:1032600004F5567000EB8200418105EB850204F500
:10327000567000EB8200818105EB850204F55670E3
:1032800000EB8200C18105EB850204F5567000EB6E
:103290008200018205EB850204F5567000EB820086
:1032A00041826D1C302DB8D340F2C63104F5557003
:1032B000FDF790FBA4F81A0700E001273846BDE8A7
:1032C000F08110B50346002010BD2DE9F84F0546EA
:1032D000894600200090B9F1060F31D2DFE809F0ED
:1032E00030030C151E2705F5DC764FF030084FF43F
:1032F000404A4FF4003726E005F50E764FF03008CF
:103300004FF4803A4FF400371DE005F52E764FF06C
:103310001C084FF4A03A4FF4003714E005F53F764F
:103320004FF01C084FF4C03A4FF400370BE005F59E
:1033300050764FF00C084FF4E03A4FF4003702E0BB
:103340000020BDE8F88F00BF4346524631460020BA
:1033500006F03CFA41463046FDF73CFB40B93246A8
:1033600049462846FFF7ADFF10B93068B84271D022
:10337000B9F1060F70D2DFE809F06F03142C445C3A
:10338000C5F8B87101214FF4F2704153002405E0F3
:10339000182105F5DE700155601C84B2282CF7DB7E
:1033A0005CE0C5F838728E4890F8050100B100BFA6
:1033B00001214FF419704153002405E0202105F547
:1033C0000F700155601C84B2282CF7DB00BF00BFD2
:1033D00044E0C5F8B872824890F8050100B100BF1A
:1033E00001214FF434704153002405E0202105F5FC
:1033F0002F700155601C84B2142CF7DB00BF00BF96
:103400002CE0C5F8FC72764890F8050100B100BFC9
:1034100001214FF445704153002405E0202105F5BA
:1034200040700155601C84B2142CF7DB00BF00BF54
:1034300014E0C5F8407304214FF452704153012445
:1034400005E0202105F551700155601C84B2042C63
:10345000F7DB03E013E0FFE7002072E700BFA8F10D
:10346000020081B23046FDF7B5FA8346A8F10200AA
:1034700006F800B04FEA1B21401C315400BFB9F1DF
:10348000060F7DD2DFE809F082031C354E6700206D
:10349000A5F8E801012410E0601E05F5F47131F88B
:1034A0001020611E05F5DE70405C104481B205F508
:1034B000F47020F81410601C84B2282CECDB67E058
:1034C0000020A5F86802012410E0601E05F51A71BD
:1034D00031F81020611E05F50F70405C104481B278
:1034E00005F51A7020F81410601C84B2282CECDB4F
:1034F0004EE00020A5F8D402012410E0601E05F57E
:10350000357131F81020611E05F52F70405C1044B4
:1035100081B205F5357020F81410601C84B2142CAB
:10352000ECDB35E00020A5F81803012410E0601E54
:1035300005F5467131F81020611E05F54070405CBC
:10354000104481B205F5467020F81410601C84B256
:10355000142CECDB1CE00020A5F84C03012412E045
:10356000601E05F5537131F81020611E05F551708C
:10357000405C104481B205F5537020F8141000E04F
:1035800004E0601C84B2042CEADB01E00020D8E6F1
:1035900000BF0098D5E670B50446002604F5D8753E
:1035A00008234FF440722946002006F00FF9082145
:1035B0002846FDF70FFA20B9D4F8B001B0F1011F89
:1035C00010D04FF00110C4F8B001062104F5D870F6
:1035D000FDF700FA4FF4DB71085304E0020001002C
:1035E000743100200126304670BD012240F21C716A
:1035F0000A5240F2E932891C0A527F22891C0A547D
:103600000022491C0A54491C0A540222491C0A542B
:103610000022491C0A52704702460888012801D03E
:10362000002070470120FCE73EB5044600250C232E
:103630004FF4CC526946002006F0C8F80C216846C9
:10364000FDF7C8F9B8B9BDF80000012813D16946E3
:103650002046FFF7E1FF50B10099C4F81C1701990B
:10366000C4F820170299C4F82417012506E0204663
:10367000FFF7BBFF02E02046FFF7B7FF28463EBD3D
:103680000021B0F83821F02A03DD01F5F07291B283
:1036900004E0B0F8382101EB420291B2B0F83A21CF
:1036A000782A03DD01F1F00291B204E0B0F83A218A
:1036B00001EB420291B2B0F83E21102A03DD01F184
:1036C000400291B204E0B0F83E2101EB820291B2D7
:1036D00001F1380293B240F638021352125A47F6FB
:1036E0006D53B3FBF2F2521E93B240F63A021352FC
:1036F00001F1330293B240F63C021352121F125AE8
:1037000040F2145393FBF2F293B240F63E0213528E
:10371000704770B52DED028B05460C462068A0F56C
:103720000031303903D00020BDEC028B70BD94F81D
:103730004E00302802DC94F84E0008B90020F3E770
:1037400094F84F0008B10020EEE794F84E0094F88A
:103750004F1010FB01F0C02801DD0020E4E794F8D1
:103760005000082801DD0020DEE794ED160A10EE77
:10377000101A084609F0FCFD41EC100BB0EE408A2F
:10378000F0EE608A9FEDF80B53EC102B51EC180B08
:1037900009F0B8FD06D394ED160AB5EEC00AF1EEB5
:1037A00010FA01D80020BFE794ED190A10EE101AA4
:1037B000084609F0DDFD41EC100BB0EE408AF0EE5A
:1037C000608A9FEDE90B53EC102B51EC180B09F0BC
:1037D00099FD06D394ED190AB5EEC00AF1EE10FA80
:1037E00001D80020A0E794ED170A10EE101A084641
:1037F00009F0BEFD41EC100BB0EE408AF0EE608A9D
:103800009FEDDB0B53EC102B51EC180B09F07AFDFC
:1038100006D394ED170AB5EEC00AF1EE10FA01D8FE
:10382000002081E794ED1A0A10EE101A084609F0FC
:103830009FFD41EC100BB0EE408AF0EE608A9FEDE8
:10384000CE0B53EC102B51EC180B09F0CBFC08D32A
:1038500094ED1A0AD4ED170AB4EEE00AF1EE10FA6C
:1038600001DB002060E794ED180A10EE101A0846FC
:1038700009F07EFD41EC100BB0EE408AF0EE608A5C
:103880009FEDBF0B53EC102B51EC180B09F03AFDD8
:1038900006D394ED180AB5EEC00AF1EE10FA01D87D
:1038A000002041E794ED1B0A10EE101A084609F0BB
:1038B0005FFD41EC100BB0EE408AF0EE608A9FEDA8
:1038C000B00B53EC102B51EC180B09F01BFD06D379
:1038D00094ED1B0AB5EEC00AF1EE10FA01D80020F3
:1038E00022E7206F401C2DD094ED1C0A10EE101A18
:1038F000084609F03DFD41EC100BB0EE408AF0EEB9
:10390000608A9FEDA10B53EC102B51EC180B09F0C2
:10391000F9FC15D394ED1C0A10EE101A084609F0B4
:1039200027FD41EC100BB0EE408AF0EE608A9FED6F
:10393000980B53EC102B51EC180B09F053FC01D2EF
:103940000020F1E6606F401C2DD094ED1D0A10EEB2
:10395000101A084609F00CFD41EC100BB0EE408A3D
:10396000F0EE608A9FED880B53EC102B51EC180B96
:1039700009F0C8FC15D394ED1D0A10EE101A084684
:1039800009F0F6FC41EC100BB0EE408AF0EE608AD4
:103990009FED7F0B53EC102B51EC180B09F022FC20
:1039A00001D20020C0E694ED1C0AD4ED1D0AB4EE4D
:1039B000E00AF1EE10FA01DD0020B5E6A06F08B9CB
:1039C0000020B1E64CF25031D4F88000884201D298
:1039D0000020A9E6704890F880000A281DDDB4F8A0
:1039E0008400F02801DD00209EE6B4F886007828E7
:1039F00001DD002098E694F88800282801DD0020E9
:103A000092E694F88900282801DD00208CE6B4F8BD
:103A10008A00102801DD002086E6012084E670B5CA
:103A200004460025B0234FF48072211D002005F0CC
:103A3000CDFEB021201DFCF7CDFF80B96068A0F558
:103A4000003130390BD1211D2046FFF762FE30B125
:103A5000B022211D04F1B40006F0A1FD012594F867
:103A60000201302803DD302184F8021105E094F8CA
:103A7000020110B9012184F802112046FFF700FE6F
:103A8000002046E000EB800304F5567121F8230086
:103A9000012200EB800301EB83014A8000EB8003ED
:103AA00004F5567101EB8301888000EB800304F577
:103AB000567101EB8301CA80002200EB800304F5FC
:103AC000567101EB83010A8100EB800304F5567106
:103AD00001EB83014A8100EB800304F5567101EB91
:103AE00083018A8100EB800304F5567101EB8301A9
:103AF000CA8100EB800304F5567101EB8301088253
:103B0000012200EB800304F5567101EB83014A8228
:103B1000401C3028B6DB284670BD10B50346002295
:103B2000087A282801DD012010BD487A282801DD07
:103B30000120F9E7887A142801DD0120F4E7C87A2A
:103B4000142801DD0120EFE7087B082801DD0120B2
:103B5000EAE7487B082801DD0120E5E7887B0828A3
:103B60001CDD0120E0E7000000000000D0127341DE
:103B70000000000080842E4100000000006AF8C0B0
:103B8000000000205FA01242000000000000694019
:103B900000000000000034C030D70008C87B0828AF
:103BA00001DD0120C0E7087C202801DD0120BBE702
:103BB000487C202801DD0120B6E7887C402801DD13
:103BC0000120B1E7C87C402801DD0120ACE7087D79
:103BD000402801DD0120A7E7487D402801DD0120C4
:103BE000A2E7887D202801DD01209DE7C87D2028EF
:103BF00001DD012098E7088B41F28834A04201DD05
:103C0000012091E7488B1E2801DD01208CE7888B7D
:103C1000322801DD012087E7C88B4FF6E854A04227
:103C200002DCC88B322801DA01207DE7088C4FF6D0
:103C3000E854A04202DC088C322801DA012073E744
:103C4000488C4FF6E854A04202DC488C322801DA56
:103C5000012069E7888C4CF25034A04202DC888C49
:103C6000012801DA01205FE7C88C4FF6E854A04232
:103C700001DD012058E7088D4FF6E854A04202DC30
:103C8000088DF02801DA01204EE7488D4FF6E85400
:103C9000A04202DC488DF02801DA012044E7888D3B
:103CA0004FF6E854A04202DC888DF02801DA0120AA
:103CB0003AE7C88D4FF6E854A04202DCC88DF028E0
:103CC00001DA012030E7088E4FF6E854A04202DC0A
:103CD000088EF02801DA012026E7488E4FF6E854D6
:103CE000A04202DC488EF02801DA01201CE7888E11
:103CF0004FF6E854A04202DC888EF02801DA012059
:103D000012E7C88E4FF6E854A04202DCC88EF028B5
:103D100001DA012008E7088F4FF6E854A04202DCE0
:103D2000088FF02801DA0120FEE6488F4FF6E854AC
:103D3000A04202DC488FF02801DA0120F4E6888FE7
:103D40004FF6E854A04202DC888FF02801DA012007
:103D5000EAE6C88F4FF6E854A04202DCC88FF0288C
:103D600001DA0120E0E6B1F840004FF6E854A04245
:103D700003DCB1F84000F02801DA0120D4E6B1F804
:103D800042004FF6E854A04203DCB1F8420032286A
:103D900001DA0120C8E691F84400052801DD012080
:103DA000C2E691F84500052801DD0120BCE6104679
:103DB000BAE670B50446002604F5B2754C2300221D
:103DC0002946104605F002FD4C212846FCF702FE6C
:103DD00048B929462046FFF7A0FE20B9D4F864016F
:103DE000B0F5A02F7ED04FF4A020C4F864010121CB
:103DF0004FF4B4700155401C01550021401C015581
:103E0000401C01552821401C0155401C015514211E
:103E1000401C0155401C01550821401C0155401C07
:103E20000155401C0155401C01551821401C0155ED
:103E30002021401C0155401C0155401C0155012109
:103E4000401C0155401C0155401C0155401C0155AA
:103E50003221401C01530321801C01530521801C89
:103E600001534FF4FA61801C0153801C015341F24D
:103E70008831801C01530521801C01530021801CC6
:103E800001534FF4FA61801C0153801C0153801CC4
:103E90000153801C0153801C0153801C01534910A5
:103EA000801C0153801C0153801C01534900801C5D
:103EB0000153801C0153801C0153A4F8A4116421F8
:103EC000A4F8A611032184F8A811022184F8A911ED
:103ED000002184F8AA1184F8AB1184F8AC1184F89D
:103EE000AD1100E007E04A2104F5B270FCF772FD65
:103EF000A4F8AE0100E00126304670BD10B5F948C7
:103F0000FFF757FFF748FFF78AFDF648FFF78CFBEE
:103F1000F448FFF740FB0121F248FFF7D6F90221F0
:103F2000F048FFF7D2F90321EE48FFF7CEF904215C
:103F3000EC48FFF7CAF90521EA48FFF7C6F9E94856
:103F4000FFF742F9E748FEF7E1FF10BD4FF4EE62DC
:103F500012588A434FF4EE631A50704730B5044646
:103F600000202070E04DE148C4F8B4006420B5FBA7
:103F7000F0F100FB1151B82001556420B5FBF0F5BC
:103F8000B5FBF0F100FB1151B92001556420B5FBE0
:103F9000F0F5BA200553002510E0D54810F81510AB
:103FA00004F1BC0000F81510D14830F815000212D9
:103FB0006900491C04F1BC0042546D1C102DECD367
:103FC000002510E0CB4810F8151004F1DC0000F8D3
:103FD0001510C84830F8150002126900491C04F198
:103FE000DC0042546D1C102DECD34FF61C21A4F8BC
:103FF000FC103021A4F8FE10C02184F800113021FB
:1040000084F8011184F80211002184F8031184F866
:10401000041184F8051194F8050100B100BF0021D6
:1040200084F8061184F8071184F8081184F809113E
:1040300084F80A1184F80B1100BF00BF9FEDAE0A8F
:1040400084ED430A9FEDAD0A84ED440A9FEDAC0A6E
:1040500084ED450A9FEDA80A84ED460A9FEDA90A62
:1040600084ED470A9FEDA60A84ED480AB3EE090ADB
:1040700084ED490A9FEDA40A84ED4A0A47F28701BC
:104080004FF4967001510021001D01514CF2503146
:10409000C4F834119D4890F880000A2814DD0021EE
:1040A000A4F83811A4F83A1184F83C1184F83D11B1
:1040B000A4F83E11002505E09548415D04F5A07087
:1040C00041556D1C202DF7D34FF0FF312046FFF7EF
:1040D0003DFF002022E0002204F5E56101F83020D8
:1040E00001EBC0014A7004F5E56101EBC0018A7083
:1040F00004F5E56101EBC001CA7004F5E56101EB6F
:10410000C0010A7104F5E56101EBC0014A71C922E1
:1041100004F5E56101EBC001CA80401C0428DADB2C
:10412000002140F274700155401C0155401C01559E
:10413000002508E0002104F5EF6020F8151060303C
:1041400020F815106D1C302DF4D3382140F63800BE
:1041500001534FF40F71801C01533321801C015314
:104160001921801C0153204630BDF0B50346154689
:1041700000205D4A6426B2FBF6F706FB172601F81D
:10418000016B6426B2FBF6F2401CB2FBF6F706FBAD
:10419000172601F8016B6426B2FBF6F2401C01F809
:1041A000012B401C160A01F8016B401C002207E09D
:1041B00003F1BC06B65C01F8016B461CB0B2521CA0
:1041C000202AF5D3002207E003F1DC06B65C01F8F3
:1041D000016B461CB0B2521C202AF5D31C2601F8F4
:1041E000016B461CB0B2FA2601F8016B461CB0B256
:1041F00093F8FE6001F8016B461CB0B2B3F8FE60A4
:10420000361201F8016B461CB0B2002206E03F4EA8
:10421000B65C01F8016B461CB0B2521CFF2AF6D9FD
:10422000C02601F8016B461CB0B2302601F8016BC4
:10423000461CB0B293F8026101F8016B461CB0B2A3
:10424000002601F8016B461CB0B293F8046101F836
:10425000016B461CB0B293F8056101F8016B461C76
:10426000B0B2002207E003F58376B65C01F8016B7B
:10427000461CB0B2521C062AF5D303F58674002200
:1042800005E0A65C01F8016B461CB0B2521C042A82
:10429000F7D303F58874002205E0A65C01F8016BF2
:1042A000461CB0B2521C042AF7D303F58A740022CC
:1042B00005E0A65C01F8016B461CB0B2521C042A52
:1042C000F7D303F58C74002205E0A65C01F8016BBE
:1042D000461CB0B2521C042AF7D303F58E74002298
:1042E0001EE00000743100209CA133013000020068
:1042F0009CDA0008B2DA000800401C4600409C45E9
:1043000000504347000000000000824230D7000800
:1043100058DA0008A65C01F8016B461CB0B2521CCA
:10432000042AF7D303F59074002205E0A65C01F897
:10433000016B461CB0B2521C042AF7D303F59274E9
:10434000002205E0A65C01F8016B461CB0B2521CCD
:10435000042AF7D303F59474002205E0A65C01F863
:10436000016B461CB0B2521C042AF7D303F59674B5
:10437000002205E0A65C01F8016B461CB0B2521C9D
:10438000042AF7D303F59874002205E0A65C01F82F
:10439000016B461CB0B2521C042AF7D303F59A7481
:1043A000002205E0A65C01F8016B461CB0B2521C6D
:1043B000042AF7D3012D02D0022D16D10AE00022E3
:1043C00005E0FF2601F8016B461CB0B2521C042A1E
:1043D000F7D31FE0002205E0002601F8016B461C20
:1043E000B0B2521C042AF7D314E0FF2601F8016B87
:1043F000461CB0B2FF2601F8016B461CB0B2002685
:1044000001F8016B461CB0B2002601F8016B461C96
:10441000B0B200BF00BF40F21E76F65C01F8016B3F
:10442000461CB0B240F21E76F65A361201F8016B05
:10443000461CB0B2002207E003F5EC66B65C01F85A
:10444000016B461CB0B2521C062AF5D3FE4E96F8FC
:1044500080600A2E73D1002215E002EB820703F57B
:10446000567606EB8706B67801F8016B02EB8207F9
:1044700003F5567606EB87067688361201F8016B4F
:10448000861CB0B2521C302AE7D307E0002601F8A0
:10449000016B01F8016B861CB0B2521C602AF5D387
:1044A000002215E002EB820703F5567606EB87063D
:1044B000B67901F8016B02EB820703F5567606EB3D
:1044C0008706F688361201F8016B861CB0B2521CC2
:1044D000302AE7D307E0002601F8016B01F8016BF1
:1044E000861CB0B2521C602AF5D300220BE002EB0E
:1044F000820703F5567606EB8706B67A01F8016B5C
:10450000461CB0B2521C302AF1D305E0002601F857
:10451000016B461CB0B2521C602AF7D300220BE09C
:1045200002EB820703F5567606EB8706B67B01F8A9
:10453000016B461CB0B2521C302AF1D306E020E0D9
:10454000002601F8016B461CB0B2521C602AF7D35A
:1045500000220BE002EB820703F5567606EB870696
:10456000B67C01F8016B461CB0B2521C302AF1D364
:1045700005E0002601F8016B461CB0B2521C602A0F
:10458000F7D3B14E96F880600A2E3EDD93F838617D
:1045900001F8016B461CB0B2B3F83861361201F86D
:1045A000016B461CB0B293F83A6101F8016B461CEE
:1045B000B0B2B3F83A61361201F8016B461CB0B2E2
:1045C00093F83C6101F8016B461CB0B293F83D6171
:1045D00001F8016B461CB0B293F83E6101F8016B23
:1045E000461CB0B2B3F83E61361201F8016B461CAE
:1045F000B0B2002207E003F5A076B65C01F8016BCB
:10460000461CB0B2521C202AF5D3F0BD2DE9F0476C
:1046100005460E464FF0000900242046641C315C1C
:1046200029722046641C315C6972315B6981A41C6B
:104630004FF0000808E004EB0800315C05F10C00C5
:1046400000F8081008F10108B8F1200FF3D3203466
:104650004FF0000808E004EB0800315C05F12C0085
:1046600000F8081008F10108B8F1200FF3D3203446
:104670004FF61C21A5F84C10A41C315BA5F84E1078
:10468000A41CC02185F85010641C302185F85110FD
:10469000641C2046641C315C85F85210002185F8AA
:1046A0005310641C2046641C315C85F8541020466D
:1046B000641C315C85F855104FF0000808E004EBED
:1046C0000800315C05F1560000F8081008F10108F7
:1046D000B8F1060FF3D3A41D375900EE107A85ED1B
:1046E000170A241D375900EE107A85ED180A241D8B
:1046F000375900EE107A85ED190A241D375900EE5E
:10470000107A85ED1A0A241D375900EE107A85EDCE
:104710001B0A241D375900EE107A85ED1C0A241D52
:10472000375900EE107A85ED1D0A241D375900EE29
:10473000107A85ED1E0A241D3159E967241D31596F
:1047400080204151241D3159C5F88410241D3E4854
:1047500090F880000A2824DD315BA5F88810A41C9D
:10476000315BA5F88A10A41C2046641C315C85F8D6
:104770008C102046641C315C85F88D10315BA5F8E7
:104780008E10A41C4FF0000808E02046641C315C29
:1047900005F1900000F8081008F10108B8F1200FA9
:1047A000F3D32A486860291D2846FEF7B2FF002887
:1047B0005BD0AE21281DFCF70DF9A5F8B20014213D
:1047C0002348DFF890C000DF01284BD0B0234FF41E
:1047D0008072291D002005F010F8B0234FF480727C
:1047E000291D002004F0F2FF1948DFF86CC000DF3B
:1047F000B021281DFCF7EEF810B14FF0010936E0AA
:10480000B5F83811B5F8880081420BD1B5F83A11E6
:10481000B5F88A00814205D1B5F83E11B5F88E0091
:10482000814201D000F05DFDB022291D05F1B400E8
:1048300005F0B5FEDFF824C000DF2846FEF720FFB4
:10484000DFF81CC000DF12E030D7000830000200A3
:10485000CC32012001C000081DBF0008EDC50008D2
:10486000D9C600084FF0010901E04FF001094846A0
:10487000BDE8F08770B504460125FC48C4F8B400D3
:1048800004F1B4012046FEF744FF30B3AE2104F139
:10489000B400FCF79FF8A4F862011421F448DFF893
:1048A000D4C300DF012816D0B0232A0204F1B401DA
:1048B000002004F0A2FFB0232A02211D002004F0F2
:1048C00085FFEB48DFF8B0C300DFB021201DFCF707
:1048D00081F818B102E0012500E00125284670BDED
:1048E00070B504460125012140F21C70015304F209
:1048F0001C712046FEF790FEE8B10A2104F21C70FC
:10490000FCF768F840F2267108531421D848DFF804
:1049100064C300DF01280CD00C234FF4CC5204F206
:104920001C71002004F069FFD148DFF84CC300DFA0
:1049300002E0012500E00125284670BD30B50246A1
:104940000B46002002F5B474002105E0655C5D545F
:10495000451CA8B24D1CE9B24629F7D330BD2DE95C
:10496000F04104460E464FF0000804F5B4770025E8
:1049700003E0705D7855681CC5B2462DF9D304F587
:10498000B2774A213846FCF725F8A4F8AE01142185
:10499000B748DFF8E0C200DF012806D04C23002230
:1049A0003946104604F029FF01E04FF00108404667
:1049B000BDE8F0812DE9F041044617464FF0000CA8
:1049C000E046062F20D2DFE807F01F03080D131979
:1049D00094F8E42104F5DE7619E094F8642204F5F5
:1049E0000F7614E04FF43470025D04F52F760EE07C
:1049F0004FF44570025D04F5407608E04FF45270C4
:104A0000025D04F5517602E00020BDE8F08100BFB0
:104A100001F8012B002505E0705D40441FFA80F885
:104A2000681CC5B29542F7DB01F8018B4FEA1820EC
:104A300001F8010B0CF103001FFA80FC002508E0CF
:104A4000705D01F8010B0CF101001FFA80FC681C7D
:104A5000C5B29542F4DB6046D7E72DE9F74F84B045
:104A600005460F460020039082463E787878B97854
:104A700000EB012080B20290FF1C00200190002476
:104A800011E0385D18B9012007B0BDE8F08F385D3E
:104A9000504501DD17F804A0395D0198084480B243
:104AA0000190601CC4B2B442EBDBDDE90101884235
:104AB00001D00120E8E70698062878D2DFE800F068
:104AC00077034990DEF7282E02DCBAF1200F01DDD2
:104AD0000120D9E74FF4F2704653002405E0395D18
:104AE00005F5DE700155601CC4B2B442F7DB00204E
:104AF000A5F8E801012410E0601E05F5F47131F815
:104B00001020611E05F5DE70405C104481B205F591
:104B1000F47020F81410601CC4B2B442ECDB3446CC
:104B20000EE0002105F5DE700155701E05F5F471EB
:104B300031F8101005F5F47020F81410601CC4B2A0
:104B4000282CEEDB05F5DC784FF030094FF4404BB4
:104B500023E1282E02DCBAF1200F01DD012093E7CA
:104B60004FF419704653002405E0395D05F50F70C8
:104B70000155601CC4B2B442F7DB0020A5F86802FE
:104B8000012410E0601E05F51A7131F81020611E35
:104B900005F50F70405C104481B205F51A7020F8DD
:104BA0001410601CC4B2B442ECDB34460FE0F2E0F7
:104BB000002105F50F700155701E05F51A7131F8C9
:104BC000101005F51A7020F81410601CC4B2282CBF
:104BD000EEDB05F50E784FF030094FF4803BDCE05A
:104BE000142E02DCBAF1400F01DD01204CE74FF436
:104BF00034704653002405E0395D05F52F700155EA
:104C0000601CC4B2B442F7DB0020A5F8D402012432
:104C100010E0601E05F5357131F81020611E05F5B4
:104C20002F70405C104481B205F5357020F81410E7
:104C3000601CC4B2B442ECDB34460EE0002105F542
:104C40002F700155701E05F5357131F8101005F5FE
:104C5000357020F81410601CC4B2142CEEDB05F57E
:104C60002E784FF01C094FF4A03B96E03000020074
:104C7000CC32012001C000081DBF0008142E02DC48
:104C8000BAF1400F01DD0120FEE64FF445704653B6
:104C9000002405E0395D05F540700155601CC4B283
:104CA000B442F7DB0020A5F81803012411E02CE042
:104CB000601E05F5467131F81020611E05F5407043
:104CC000405C104481B205F5467020F81410601C59
:104CD000C4B2B442ECDB34460EE0002105F540706E
:104CE0000155701E05F5467131F8101005F5467036
:104CF00020F81410601CC4B2142CEEDB05F53F78CC
:104D00004FF01C094FF4C03B47E0042E02DCBAF11F
:104D1000200F01DD0120B7E64FF452704653002406
:104D200005E0395D05F551700155601CC4B2B4420F
:104D3000F7DB0020A5F84C03012410E0601E05F508
:104D4000537131F81020611E05F55170405C10441C
:104D500081B205F5537020F81410601CC4B2B4423F
:104D6000ECDB34460EE0002105F551700155701E54
:104D700005F5537131F8101005F5537020F8141033
:104D8000601CC4B2042CEEDB05F550784FF00C0922
:104D90004FF4E03B01E0012076E600BFA9F10200FC
:104DA00081B24046FBF716FE00900098C1B2A9F10F
:104DB000020008F800100098010AA9F1010008F8A3
:104DC00000101421FE48DFF8FCC300DF012809D0E1
:104DD0004B465A464146002004F00FFDF848DFF8E4
:104DE000E8C300DF03984FE602460868B0F1011FF0
:104DF00001D0002070470120FCE710B503460020D9
:104E000010BD10B50346002010BD024600207047BB
:104E10000246002070470246EC4B0868984201D0D9
:104E2000002070470120FCE710B502460020002159
:104E300021E001EB0113E64C04EB0313D3F80C3132
:104E400093F83D30012B14D001EB011304EB031355
:104E5000D3F80C3193F83D305BB101EB011304EB57
:104E60000313D3F80C3193F83D30052B01D001200A
:104E700005E04B1CD9B292F802318B42D9DC00BF5D
:104E800010BD2DE9F04105460C46A079FF2808D059
:104E9000E079FF2805D0207AFF2802D0607AFF2829
:104EA00001D101273FE01421C548DFF818C300DF16
:104EB000012837D0002606E014F8011B05F5EC6048
:104EC0008155701CC6B2062EF6DB002606E014F8EB
:104ED000011B05F24C708155701CC6B2042EF6DB26
:104EE00014F8011B4FF4ED604153415B207801EB56
:104EF000002081B24FF4ED604153222105F5E960B5
:104F0000FBF768FD40F26A71485324234FF4C852FE
:104F100005F5E961002004F070FC2846FDF7C2FFAA
:104F2000002700E001273846BDE8F08110B50346B0
:104F30000020002208E003F5EC64A45C01F8014BBA
:104F4000441CA0B2541CE2B2062AF4DB002208E0A2
:104F500003F24C74A45C01F8014B441CA0B2541C35
:104F6000E2B2042AF4DB93F8684701F8014B441CD1
:104F7000A0B24FF4ED64E45A24120C70441CA0B2A9
:104F800010BD30B50346042003F26C74002203E028
:104F9000A55C01F8015B521C042AF9D330BD30B581
:104FA000034614460020002206E08A4DAD5C01F85D
:104FB000015B451CA8B2521C062AF6D3012C02D074
:104FC000022C18D10AE0002205E0FF2501F8015B60
:104FD000451CA8B2521C042AF7D321E0002207E0A6
:104FE00003F5E465AD5C01F8015B451CA8B2521CF9
:104FF000042AF5D314E0FF2501F8015B451CA8B293
:10500000FF2501F8015B451CA8B2002501F8015BF2
:10501000451CA8B2002501F8015B451CA8B200BFE1
:1050200000BF6D4D95F81E5701F8015B451CA8B2F5
:10503000694DB5F81E572D1201F8015B451CA8B249
:10504000002501F8015B451CA8B2002501F8015BB1
:10505000451CA8B230BD704770B50246002400233D
:105060000D784FF4E460805C854210D14D7892F861
:10507000210785420BD18D7892F82207854206D10F
:10508000CD7892F82307854201D1012471E00020F8
:1050900035E002F5E56515F83050012D2BD10E787D
:1050A00002F5E56505EBC005AD78AE4226D14E7838
:1050B00002F5E56505EBC005ED78AE421ED18E78B0
:1050C00002F5E56505EBC0052D79AE4216D1CE7827
:1050D00002F5E56505EBC0056D79AE420ED10026FF
:1050E00002F5E56505EBC005EE803C4D35F8105046
:1050F000AD1CACB205E03A4D2D5C2B43401C04289E
:10510000C7DB94BB8BB3002031E0354D2D5C1D42D5
:105110002CD0012602F5E56505F83060002605EB88
:10512000C0056E700E7802F5E56505EBC005AE7042
:105130004E7802F5E56505EBC005EE708E7802F558
:10514000E56505EBC0052E71CE7802F5E56505EB4A
:10515000C0056E71002602F5E56505EBC005EE8021
:105160001E4D35F81050AD1CACB202E0401C0428B6
:10517000CBDB204670BD10B502460020042935DA8D
:10518000002402F5E56303F8314003EBC1035C70D2
:1051900002F5E56303EBC1039C7002F5E56303EBE5
:1051A000C103DC7002F5E56303EBC1031C7102F57A
:1051B000E56303EBC1035C71C92402F5E56311E00B
:1051C000CC32012001C000081DBF00080200010010
:1051D000B43900202A0000207431002048DA000889
:1051E00040DA000803EBC103DC80012010BD01465A
:1051F000002030E001F5E56212F83020012A29D1C3
:1052000001F5E56202EBC002D288521C93B201F5AF
:10521000E56202EBC002D380C82B1BDB002301F543
:10522000E56202F8303002EBC002537001F5E5622E
:1052300002EBC002937001F5E56202EBC002D3708D
:1052400001F5E56202EBC002137101F5E56202EBC4
:10525000C0025371401C0428CCDB704701464FF458
:10526000EE604058704700B50148FEF777FE00BD7C
:105270007431002010B5024645F65A2022B1FE4B8B
:10528000B3F8B230934200DA10BD00210DE001EB1B
:10529000410303EBC104F84BB83333F82430934295
:1052A00001D1084606E04B1C99B2F34BB3F8B2307B
:1052B0008B42ECDC00BF00BFE6E7002200F5867001
:1052C00001680A65016881F849200168A1F84A204F
:1052D0000168A1F84C200168A0F58670A1F84E2065
:1052E000704700B5002307E003EB0311E34A02EB2C
:1052F0000110FFF7E2FF5B1CE14890F802019842C1
:10530000F2D800BDF0B5D0F80C3193F83DC0BCF137
:10531000060F40D2DFE80CF03D3E0304053C00BF21
:1053200000BF42F6104CD0F80C316344B3F806C00D
:10533000D34BB3F838319C450BDA42F6104CD0F819
:105340000C316344DB8823B1D0F80C316344DE8830
:1053500002E0CB4BB3F8386142F6104CD0F80C3178
:105360006344B3F808C0C64BB3F83A319C450BDA36
:1053700042F6104CD0F80C3163441B8923B1D0F8AD
:105380000C3163441F8902E0BD4BB3F83A7108E069
:1053900000BF00BF00BFBA4BB3F83861B3F83A7131
:1053A00000BF00BFB64BB3F8383190F800C003FB24
:1053B0000CF39AB2B34B33F91240254600211AE0A0
:1053C00002EB010CAF4B33F91C30A34205DD02EBBD
:1053D000010CAC4B33F91C400BE002EB010CA94B68
:1053E00033F91C30AB4204DA02EB010CA54B33F964
:1053F0001C504B1C99B2B142E2DBD0F80C31C3F81F
:10540000AC40D0F80C31C3F8B4509D4BB3F83A31EE
:1054100090F800C003FB0CF39AB29B4B33F91230A7
:105420001D461C4600211AE002EB010C964B33F995
:105430001C30A34205DD02EB010C934B33F91C40F9
:105440000BE002EB010C904B33F91C30AB4204DA59
:1054500002EB010C8C4B33F91C504B1C99B2B94236
:10546000E2DBD0F80C31C3F8BC40D0F80C31C3F803
:10547000C450F0BD10B50446D4F80C0190F83D10AE
:1054800090F83E0081421ED0D4F80C0190F83E0006
:1054900001280AD1D4F80C0190F83E1080F83D1094
:1054A000D4F80C0180F83C100DE0D4F80C0190F811
:1054B0003D00D4F80C1181F83C00D4F80C0190F8B0
:1054C0003E1080F83D102046FFF71CFFD4F80C0179
:1054D00090F83D00062846D2DFE800F003040B26D2
:1054E0002D3952E0207910F0020F01D10220A08066
:1054F0004BE0207910F0040F15D16148B0F88A0113
:105500002178491C4843A168884203D9A0683230F9
:10551000A0603AE00420A0800020A0600021D4F820
:105520000C0180F8481030E0207910F0080F01D10C
:105530000820A08029E0207910F0100F06D110205B
:10554000A080D4F80C01C189A0F85C101DE020797E
:1055500010F0200F06D12020A080D4F80C01C189C2
:10556000A0F85C1011E00020A080D4F80C01007BB2
:10557000802141EA002081B2D4F80C01C1810421CC
:10558000D4F80C0180F83E1000BF00BF10BD10B56C
:105590003B48FFF72CFE002407E004EB0411374AD8
:1055A00002EB0110FFF766FF641C354890F802011A
:1055B000A042F2D810BD0178C1EB01118900302260
:1055C00091FBF2F1643101617047012100F58670B1
:1055D000026882F83C104FF00002016881F83D201B
:1055E000016881F83E20016881F83F200168A1F838
:1055F00040200168A1F842200168A1F84420016818
:10560000A1F8462001688A810168B1F84C20A0F514
:105610008670B1F84A108A4204D10022D0F80C11E9
:1056200081F849207047D0F80C2102F1D40102E042
:10563000002221F8022B42F65C43D0F80C211A44D8
:1056400028328A42F4D20123D0F80C21C2F8143156
:105650007047002200F58670016881F849200168D2
:10566000A1F84A200168A1F84C200168A1F84E2059
:1056700001680A65016809E0B46C0020B4390020B3
:105680007431002062BA002062C40020A1F85420C6
:105690000168A1F8562001688A650168A1F85C20BC
:1056A0000168A1F85E2001680A669FEDF90A0168A9
:1056B00081ED190A01688A660168CA6601680A678D
:1056C00001684A6701688A679FEDF10A016881ED08
:1056D0001F0A9FEDEF0A016881ED200A9FEDEC0A99
:1056E000016881ED210A9FEDEA0A016881ED220A35
:1056F0009FEDE70A016881ED230A9FEDE50A016845
:1057000081ED240A9FEDE20A016881ED250A9FEDF3
:10571000E00A016881ED260A9FEDDD0A016881ED4E
:10572000270A9FEDDB0A016881ED280A9FEDD80A60
:10573000016881ED290A0168C1F8A8200168C1F853
:10574000B0200168C1F8B8200168C1F8C0204FF44A
:10575000B441026811814FF0010201684A814FF0A3
:10576000000201688A810168A0F58670C9898329D1
:1057700002D0D0F80C11CA81002200F586700168B1
:105780000A6101684A6101680A8301684A83016805
:10579000CA6101680A629FEDBE0A016881ED090ACB
:1057A0009FEDBB0A016881ED0A0A9FEDB90A016805
:1057B00081ED0B0A9FEDB60A016881ED0C0A9FEDA1
:1057C000B50A0168A0F5867081ED0D0A70470146A3
:1057D0000120D1F80C21128902F47F42B2F5B44FB6
:1057E00000D00020D1F80C21127B222A05DBD1F851
:1057F0000C21127BFE2A00DC0020D1F80C2112695A
:10580000A54B9A4200D90020D1F80C215269A24B35
:105810009A4200D90020D1F80C21128B41F6844322
:105820009A4200DD0020D1F80C21528B41F68443CE
:105830009A4200DD0020D1F80C21D269974B9A42A0
:1058400000D90020D1F80C21126A944B9A4200D959
:10585000002018B98323D1F80C21D38170479049D7
:10586000D0F80C21516070470146D1F80C01406816
:105870008B4A904201D0002070470120FCE770B5B0
:10588000044604F168052C21284604F0BAFE70BDD8
:1058900070B505460C461C21204604F0B2FE70BDD2
:1058A00070B504467F48007888B94FF0C0407E4903
:1058B00008600846006800687949884207D00846B1
:1058C0007949096808600020774909688880754827
:1058D00000784AF6A52148437449451805F00306A7
:1058E000AD1BC4F80C516F48007820706D480078EB
:1058F000401C6C490870002084F824006080401E21
:10590000206104F148012046FFF7C2FF2046FFF75F
:10591000B6FF2046FFF7A8FF60B92046FFF79FFFBC
:105920002046FFF796FE2046FFF74FFE2046FFF782
:105930007AFE88E02046FFF74AFF48B92046FFF785
:1059400088FE2046FFF741FE2046FFF76CFE7AE016
:10595000D4F80C01C0890A2804D0D4F80C01C189FC
:10596000A0F85610D4F80C0190F83D00062804D297
:10597000DFE800F01203266061670120D4F80C1103
:1059800081F83C000021D4F80C0180F83D10D4F8D7
:105990000C0180F83E1055E0D4F80C0190F83C0062
:1059A000022809D10A21D4F80C01C1810021D4F8C0
:1059B0000C0180F83E1002E02046FFF706FE41E0B1
:1059C000D4F80C01B0F84200A0F57F41FE391DD09B
:1059D00042F65C41D4F80C0108444088FF2815D0F9
:1059E0000A2104F586742068C181206890F83D0082
:1059F000216881F83C004FF00001206880F83D10DC
:105A00002068A4F5867480F83E100DE00120D4F8DB
:105A10000C1181F83C000021D4F80C0180F83D10F5
:105A2000D4F80C0180F83E10D4F80C014089A4F899
:105A3000480007E000BFD4F80C014089A4F84800F2
:105A400000E000BF00BF2046FFF7B5FD002104F1D4
:105A50002800DFF85CC000DF002104F13000DFF82F
:105A600050C000DF002104F14000DFF844C000DF37
:105A7000002104F13800DFF838C000DF204670BD97
:105A800002460B46E3B1012B14D0022B13D11CE0CC
:105A900000000000339388C380969800804A5D051B
:105AA000300691D1980000209C0000200001006089
:105AB0007DC2000800BFD2F80C0190F83D1009E04B
:105AC000D2F80C0190F83E1004E0D2F80C0190F8E6
:105AD0003C1000BF00BF062901DD002070470120F7
