:020000040800F2
:10000000F0600120E5610008ED61000865790008F5
:10001000F1610008F3610008F561000800000000CC
:10002000000000000000000000000000D5020008F1
:10003000F96100080000000081030008F5030008D2
:1000400063790008FF610008FF610008FF61000894
:10005000FF610008FF610008FF610008FF61000800
:10006000FF610008FF610008FF610008FF610008F0
:10007000FF610008FF610008717C0008FF61000853
:10008000FF610008FF610008FF61000807700008B9
:1000900049700008FF610008FF610008FF61000867
:1000A000FF61000811790008FF610008FF61000886
:1000B000897D00080D7E0008FF610008FF610008CF
:1000C000FF610008FF610008FF610008FF61000890
:1000D000D7740008A37A0008FF6100088F7C00082D
:1000E000FF610008FF610008FF610008FF61000870
:1000F000FF610008FF610008FF610008FF61000860
:10010000FF610008FF610008FF610008FF6100084F
:10011000FF610008FF610008FF610008FF6100083F
:10012000FF610008FF610008FF610008FF6100082F
:10013000FF610008D7680008FF61000883700008AD
:10014000C9700008FF610008FF610008FF61000836
:10015000FF610008FF6100087F7A0008FF61000866
:10016000FF610008FF610008FF610008FF610008EF
:10017000FF610008FF610008FF610008FF610008DF
:10018000FF610008FF61000800F002F800F05EF86F
:100190000AA090E8000C82448344AAF10107DA45E2
:1001A00001D100F053F8AFF2090EBAE80F0013F0D6
:1001B000010F18BFFB1A43F00103184728AF0000D6
:1001C00048AF00000A444FF0000C10F8013B13F058
:1001D000070408BF10F8014B1D1108BF10F8015BA0
:1001E000641E05D010F8016B641E01F8016BF9D193
:1001F00013F0080F1EBF10F8014BAD1C0C1B09D1EA
:100200006D1E58BF01F801CBFAD505E014F8016B5B
:1002100001F8016B6D1EF9D59142D6D370470000ED
:100220000023002400250026103A28BF78C1FBD8FF
:10023000520728BF30C148BF0B6070471FB50AF096
:1002400039FD07F09FFF1FBD10B510BD07F0ACFFD3
:100250001146FFF7F3FF00F0C8F907F0CAFF03B437
:10026000FFF7F2FF03BC07F0CBFF000080F3098823
:100270007047EFF309807047684680F309880448A7
:100280000078C00714BF0220032080F31488704751
:1002900094B00008DFF818C0EFF305831B0618BF01
:1002A0006047EFF31483DB0708BF604700DF704748
:1002B00011950008DFF818C0EFF305831B0618BF7F
:1002C0006047EFF31483DB0708BF604700DF704728
:1002D000B9960008EFF30980816911F8021CC9BBC7
:1002E00010B590E80F10E047BDE81040EFF3098C1F
:1002F000204B93E80600914229D081B10CB41EF046
:10030000100F06BF2CED108A0323012381F826303D
:100310002CE9F00FC1F82CC009F080FD0CBC1A606C
:10032000D2F82CC0BCE8F00F92F8263013F0020F80
:100330001ABFBCEC108A6FF0120E6FF0020E8CF335
:10034000098813F0010F08BF704792F82500CCF818
:100350000000704710B5084A1268914209D8074C4E
:1003600054F8214090E80F10A047EFF3098C8CE877
:100370000F0010BD38010020108200081082000814
:1003800010B509F0E5FBBDE81040194B93E80600F5
:10039000914208BF70470CB4EFF3098C1EF0100FA8
:1003A00006BF2CED108A0223002381F826302CE9A9
:1003B000F00FC1F82CC009F031FD0CBC1A60D2F866
:1003C0002CC0BCE8F00F92F8263013F0020F1ABFD1
:1003D000BCEC108A6FF0120E6FF0020E8CF30988DD
:1003E00013F0010F1CBF92F82530CCF80030704795
:1003F0003801002010B509F0E3FDC4E710B509F09D
:100400004DF809F0DDFDBEE7D44A032100200AF0D3
:10041000EFFAD349487018B1D24909880AF016FB9F
:100420000221D148DFF844C300DF08F0A5FFF7E759
:1004300007F050FA02F0ECF8C94C00251421CC4822
:10044000DFF828C300DF01280CD02078401CC0B2A0
:1004500020700A2803D92570032006F0F0FE03F06F
:1004600080FFEBE7022006F0EAFEE7E742F6E064F1
:100470002046DFF800C300DFFAE71FB5B84C0025BF
:1004800001226946104605F0A8FD48B1A068401C4D
:10049000A060C82800D9A560002002F061F8EFE74D
:1004A0006946002001F0D5FFA5606068401C6060CF
:1004B0000828E5D96560052006F0C1FEE0E71FB514
:1004C000A74C002501226946022005F086FD48B1AF
:1004D0002069401C2061C82800D92561012002F054
:1004E0003FF8EFE76946012001F0B3FF2561E068BE
:1004F000401CE0600828E5D9E560042006F09FFE76
:10050000E0E700219848DFF870C200DF9B48DFF881
:1005100070C200DF07F010F9914C606207F036F806
:1005200006F028FF606A07F0BEFC06F028FE02F025
:1005300063FE05F0AAF808F00DFD032001F059FF55
:1005400005F020FE0020E06107F0E0F82062642161
:100550000020DFF830C200DF8B4A8C490023AFF265
:100560002F10DFF82CC200DF8A490860874900237A
:10057000894A1431AFF26F10DFF814C200DF8749E7
:10058000086014210020DFF8FCC100DF844A85499F
:100590000023AFF22710DFF8F8C100DF82490860BE
:1005A0007A490023814A1131AFF23110DFF8E0C1FE
:1005B00000DF7F4D28607B4900237E4A0F39AFF270
:1005C0000110DFF8CCC100DF68606525E069411CDF
:1005D000E161642802D9E56102F032F81420DFF805
:1005E00094C100DF0AF0EEF9F0E7FFF745FE0022C4
:1005F0001146AFF2F100DFF8C0C100DFFEE700E016
:10060000401E0028FCD1704710B5554C6069401C55
:1006100060616A49884203D3052006F0FFFD02E0CD
:10062000052006F09DFD66486169814203D30420E0
:1006300006F0F4FD02E0042006F092FD61496069D5
:10064000884203D3032006F0E9FD02E0032006F010
:1006500087FD5D496069884203D3022006F0DEFD14
:1006600002E0022006F07CFD58496069884203D30D
:10067000012006F0D3FD02E0012006F071FD54498F
:100680006069884203D3002006F0C8FD02E0002024
:1006900006F066FD60694F49401C6061884205D3E1
:1006A00000206061BDE8104006F0C9BD10BD484E95
:1006B000DFF820812A4C484D484F4FEA46094FEA5F
:1006C000480ADFF808B142E0002006F0A7FD02E08A
:1006D000002006F045FDA069A84203D3012006F0E2
:1006E0009DFD02E0012006F03BFDA069B04203D36E
:1006F000022006F093FD02E0022006F031FDA06921
:10070000B84203D3032006F089FD02E0032006F07F
:1007100027FDA069404503D3042006F07FFD02E0D9
:10072000042006F01DFDA069484503D3052006F00E
:1007300075FD02E0052006F013FDA069401CA061D4
:10074000504504D30020A061012006F078FDA06987
:10075000401CA0615845BBD3B6E70000590800080B
:100760000000002070000020D0000020DD9D000867
:10077000D800002065960008659D0008BC30012067
:10078000F599000825A10008600500201E0004005E
:1007900041A00008BC00002060010020C000002033
:1007A000600900203C000200C4000020600B002013
:1007B000C8000020600F0020699E0008503403002C
:1007C00080A90300C045040080200500A068060041
:1007D000808B080040D10C000053070000410A0044
:1007E00038B54FF4B865A84201D9012300E00023D1
:1007F00090B1002423432CD12C4C208065802046CE
:1008000000F0F0F901462A4A0020106031B120467C
:10081000BDE8384000F052B80124EBE720880AF028
:10082000D7F80346002103E0601800795854491CAA
:1008300020888842F8D8208800901E48811C0288B1
:100840001D4800780AF0A8F9BDE83840062006F0F7
:10085000F6BC38BD002070472DE9F0410546069FE3
:100860001E46144C0878A41C207048786070887864
:10087000A070C878E070A01E0280801CFFF7EAFF1D
:1008800010B10020BDE8F0810B480078854201D00E
:100890000020F7E7072006F0D2FC064A3146921CFA
:1008A0003846FFF79DFF0020ECE7000060110020B4
:1008B0001C0000206A0000200100002010B57D21EE
:1008C00001717B214171002101720180002006F03D
:1008D000B6FCBDE81040012006F0B1BC10B54FF6E3
:1008E000FF72FB4C07E010F8013B5340DAB234F8DA
:1008F000122082EA13220B00A1F1010189B2F2D188
:10090000104610BD2DE9F0418C4604461146207971
:100910006279F04B802806D01B5C934201D1FF2AFC
:1009200004D1637102E093F8802062710525BCF167
:10093000000F07D0812805D00720A0712846258008
:10094000BDE8F081A0F1800200270626722A71D24C
:10095000DFE802F039424C5258707070705E64717A
:100960007E70707084908490849084908490849041
:100970008490849084908490709097A3A9B5BBC70D
:100980007070CD70D3EBDFEBDFEBDFEB707084903A
:100990008490F67084908490849070707070707001
:1009A0007070707070707070707070707070707047
:1009B0007070707070707070707070707070707037
:1009C0007070707070FE0A462146A01D00F07AFA21
:1009D0002088C01C2080C9E00B4662462146A01D2D
:1009E00000F096FA2088C01C2080BFE0A01D00F017
:1009F000F2FCA0712580B9E0A01D00F088FDA07177
:100A00002580B3E0A01D00F058FEA0712580ADE068
:100A1000A01D00F054FEA0712580A7E02146A01D76
:100A200000F04FFE10B1A07125809FE02088C01C0F
:100A300020809BE095E00A462146A01D00F04CFE78
:100A400010B1A071258091E02088C01C20808DE02D
:100A5000A01D00F051FEA071258087E02246A11D57
:100A600000F07CFE10B1A07125807FE02088C01CC2
:100A700020807BE00A46A11D00F065FFE071268022
:100A800074E02146A01D01F057F810B1A071258037
:100A90006CE02088C01C208068E0A01D01F06EF88A
:100AA000E071268062E02146A01D01F083F810B1BC
:100AB000A07125805AE02088C01C208056E0A01D2F
:100AC00001F091F8E071268050E02146A01D01F070
:100AD000A6F810B1A071258048E02088C01C2080B5
:100AE00044E0A01D01F0B4F8E07126803EE0A01DB6
:100AF00001F0CAF8E071268038E02146A01D01F01F
:100B0000D1F810B1A071258030E02088C01C208071
:100B10002CE02246A11D01F003F910B1A07125803F
:100B200024E02088C01C208020E00A46A11D01F09E
:100B3000E8F9E07127726772268017E008E0FFE7A6
:100B4000A01D01F0EAFAE0712772677226800DE0BD
:100B5000A01D01F0F0FAA071E7712772677226807C
:100B600004E00820E0712772677226802088E7E69B
:100B70002DE9F041054610460C461A46002721880B
:100B8000092901D80220DBE6002163186E181B79C1
:100B90003371491C89B20729F7D361884E4E093950
:100BA0007180002107E0631806EB010CDB7A8CF8FA
:100BB0000430491C89B223888B42F4D80146464848
:100BC000FFF7A0FE002105E070186A180079D072C6
:100BD000491C89B230888842F6D83088C01D2880E8
:100BE0003846ADE62DE9F74F82B0054600240027D0
:100BF0002A8801926A88103A1FFA82F90022042397
:100C00000093002690460023DFF8D0A0B3E0FF2C2D
:100C10006FD0FB2C6ED008DC012C13D0022C1ED020
:100C2000032C2FD0042C06D142E0FC2C74D0FD2CD8
:100C300073D0FE2C72D011F803B0BBF17D0F00D140
:100C4000012497E0CC5C7B2C03D07D2C03D00024C6
:100C500090E002248EE0012005B0BDE8F08FCC5C6E
:100C60007D2C03D0AAF80040032483E0CC186478DC
:100C7000822C01D00220EFE75B1C7D24AAF8004003
:100C8000032477E0C85C7D2809D0BAF8002042EA46
:100C9000002CAAF800C0CC4503D90220DCE70220D2
:100CA000DAE7002000225C1CA4B20094042461E076
:100CB00011F803B0BBF17D0F12D08646D644401C1C
:100CC0008EF804B0521C92B2624553D3FB2451E01B
:100CD000BEAD0008BEAC0008E22200200C1D0020C2
:100CE00001EB030B9BF801B0BBF1820F03D0032093
:100CF000B2E745E013E05B1C521C92B2BAF800B0B8
:100D0000ABF1010BAAF800B08346D3444FF07D0E3F
:100D1000401C8BF804E0D5E70EE01EE024E0CE5C3A
:100D20007D2E07D1CC186478822C01D0042093E763
:100D30005B1C7D26FC241DE0CC5C7D2C03D046EAA8
:100D40000426FD2416E0CC186478822C01D00420FF
:100D500082E75B1C46F4FA46F3E7CC5C7D2C01D0BD
:100D6000052079E7FE2405E0CC5C7D2C01D0052030
:100D700072E7FF245B1CDDF804B05B45FFF447AF6E
:100D8000FF2C06D0052C74D2DFE804F090909292EC
:100D90009400009808441146FFF7A0FDB04201D02E
:100DA000042059E7AAF80290DFF810A1424644490E
:100DB0004248049BFFF7DCFE06460EB108267AE0A7
:100DC0007D2028717B20687104240021002082236B
:100DD00014E0491C89B20AEB0002A346AB4492F826
:100DE00004C0641C8BF804C012797D2A05D1224608
:100DF0002A44641C1371491C89B2401CBAF80020B3
:100E00008242E6D8494510D97F1CFFB2032F0AD889
:100E10006888091A414432311FFA81F8B8EB500F43
:100E2000C4D3072018E7072016E7C8B2A8710A0A3A
:100E3000EA717D280BD005F10800FFF74FFD02464F
:100E4000611C6319D0B218717D2813D017E02046B9
:100E500003E02A18D3781371401E0328F9D82844D8
:100E600082220271641C05F10900FFF737FD02467A
:100E7000E6E719E00B4682202B44491C1871130A3F
:100E8000481C29440B717D23B3EB122F04D1024679
:100E900082212A44401C1171411C284403714A1CC0
:100EA000481903712A8006E0062604E0012602E0C4
:100EB000022600E003263046CEE60000361700206A
:100EC0000C1D00202DE9F0410E4605461146002775
:100ED000FE4803F074F80446E0B201280FD12878E8
:100EE000697800EB012080B2F849B1F81E17814201
:100EF00005D0F649A1F81E07084602F049FDE2B206
:100F00002946F24802F05AFA30803846BDE8F081AE
:100F10002DE9FF4F83B004460020029081468046B1
:100F20002578E61C6078A17800EB012080B2019062
:100F300040F28A20824213D2A2F21452504287B267
:100F4000E24803F0DFF8DFF884A3C0070AF2747BFD
:100F50003BD00120207084F803900425241D2FE04D
:100F6000072007B0BDE8F08FD84890F87407884292
:100F700001D2302802D3D54880F8749705F13300A8
:100F8000B84221D8D148822290F8740700EB0011B2
:100F9000CF4800EB0110214603F028FFCB48B0F802
:100FA0003C0841198DB204443078401C30709BF8E5
:100FB0000000401C8BF8000008F1010808F0FF0851
:100FC0009AF802114145CFD8EBE1C048069902F0EA
:100FD000F6FFC1B2012907D002297BD00120207081
:100FE000002030700425DCE1022D0AD0032D08D04A
:100FF0004FF0000884F803800425241D4FF00009F9
:101000007EE1DFF8D0B2032D18D0B3480199006813
:10101000808888425FD070B3022006F010F9AB4898
:1010200090F87607401CC0B28BF80000042839D332
:10103000A649002081F8760700252EE000200190C7
:10104000A24981F87607002510E0A14805EB0511BB
:1010500000EB011B584603F096FE584603F0A5FE30
:101060000AEB4501A1F8D8076D1CEDB29AF8020110
:10107000A842EAD84AE02EE0954805EB051100EBBE
:10108000011B584603F078FE584603F08EFE0AEB2B
:101090004501A1F8D8076D1CEDB29AF80201A842EB
:1010A000EAD833E0002510E0894805EB051100EB94
:1010B000011B584603F067FE584603F076FE0AEB24
:1010C0004501A1F8D8076D1CEDB29AF80201A842BB
:1010D000EAD81BE01FE17D49002081F87607002552
:1010E00010E07B4805EB051100EB011B584603F0AF
:1010F00043FE584603F059FE0AEB4501A1F8D80714
:101100006D1CEDB29AF80201A842EAD80198A0F548
:101110007F41FF3904D1704901200968888004E0CB
:101120006D4901980968401C8880684800F2757B09
:1011300090F87507302803D29AF80211884203D339
:101140006249002081F87507634801680979617078
:1011500000688088000AA0700020E0700425241D2B
:1011600065E05A4890F875070AEB4001B1F8D817C6
:10117000F1B300EB0011564800EB011003F026FE1E
:1011800006281FD0514890F8750700EB0011504811
:1011900000EB0110214604F045F84C48B0F83C083B
:1011A000391A8FB241198DB204443078401C307026
:1011B0009BF800000AEB4000B0F8D817491EA0F8D1
:1011C000D81734E0263FBFB208EB480000EB081107
:1011D000424800EB41013D4890F8750700EB0012D2
:1011E0003B4800EB021004F08CF908F1010800E024
:1011F0000BE008F0FF089BF800000AEB4000B0F895
:10120000D817491EA0F8D81711E009F1010909F013
:10121000FF099AF8021149450ED9401CC0B28BF85B
:101220000000884203D32949002081F87507274828
:10123000B0F83C08B84294D9B8F1000F15D084F842
:10124000008000206070A41C08EB4802234902EBD8
:10125000081206E00B5C04F8013B6D1CADB2401CAB
:1012600080B2B0EB420FF5D305E000202070607033
:10127000A41CAD1CADB2B9F1000F31D1307878B3F8
:10128000124890F87507401C8BF8000089E00F4861
:1012900090F87407302801D2884202D30B4880F8B6
:1012A00074870A48B0F83C082844B8422CD807484C
:1012B00090F8740700EB0011054800EB011021467F
:1012C00003F061FE0148B0F83C080AE06C2F0020F2
:1012D000AC370020E23600209C0000205829002076
:1012E0005FE041198DB204443078401C30709BF8A7
:1012F0000000401C8BF8000009F1010909F0FF090A
:101300009AF802114945C2D804F8018B04F8018B00
:10131000AD1CADB245E04FEA1029012004F8040BE2
:10132000002030700425B9F1040F00D381464FF03E
:1013300000082CE00AEBC90000F2297B90F829177D
:10134000302902D3002180F82917FE49B1F83C1852
:101350002944B9421FD890F8290700EB0011FA4838
:1013600000EB0110214603F00EFEF648B0F83C08F1
:1013700041198DB204443078401C30709BF8000055
:10138000401C8BF8000008F1010808F0FF089AF8EB
:1013900002014045CED8002020706070A41CAD1C16
:1013A000ADB201202070022060700320A0700420E4
:1013B000E070241D2D1D9AF805212146E34804F014
:1013C000F8FC29182044002202704270891C0498FD
:1013D00001800298C5E52DE9F04781460027D948EC
:1013E00002F0EDFD0025062D03D04FF00808002483
:1013F0002BE04FF00008FAE704EBC506302E26D2AA
:10140000D34919F80500095D08421CD0CE4906EB06
:10141000061001EB001009F1200103F0EBFB074679
:10142000380010D0012802D0F1280CD102E0384653
:10143000BDE8F087761C172040EA06200222C54945
:1014400000F05EFF0027641CE4B24445D4D36D1C59
:10145000EDB2072DC7D33846EAE70122B0F85C1099
:10146000A1F57F43FF3B05D0B0F8AA30994201D9DE
:1014700000207047B0F86210F02907D8B0F8641067
:10148000782903D8B0F86610102901D900207047D8
:1014900090F8A81069B190F8A9308B4209D8B0F83B
:1014A000AA1031B1D0F8AC0018B1814201D3FA29A9
:1014B00001D900207047104670470FB40B990120E6
:1014C000BDF80020491C8A4202D9002004B07047B0
:1014D000BDF80210102904D02239DC2903D80020DD
:1014E000F4E70120F2E7BDF80C10212903D2BDF882
:1014F0001410212901D30020E8E7BDF80E100B29B4
:1015000003D2BDF816100B29E0D30020DEE72DE949
:10151000F04F89B0054600278A4802F050FD284662
:10152000FFF79BFFD8B1DFF83082B9464FF0020ACF
:1015300098F8000008F108034FF0C80B88B10128A3
:1015400058D002287ED088F80090A8F80290A8F819
:101550000490A8F806900127384609B002E501205A
:10156000FBE795F8A90008B10120F6E7B02229466B
:10157000184606F043FDA8F80490A8F80690002449
:101580001FE004EB440000EBC40005EB800108EB16
:101590008000B830B03106462C2206F02FFDE0B2B4
:1015A000079006F110011C22684606F06CFD0FCE74
:1015B000FFF783FFB0B1B8F80600401CA8F806009A
:1015C000641CD5F8AC00A042DBD8B8F80400401C7D
:1015D00080B2A8F8040098F8B010884204D388F8C4
:1015E00000A0B9E70120B8E7012088F80000A8F8BA
:1015F00002B0B1E795F8A900B8F80410884206D106
:10160000B0222946184606F0F9FC002432E088F89A
:101610000090A8F8029001209FE704EB440000EB43
:10162000C401B8F8060005EB8101204400EB40023C
:1016300002EBC00008EB8000B031B8302C2206F07D
:10164000DDFC00E037E0B8F806001C222044C1B2FF
:10165000079100EB400101EBC00008EB8006B836B3
:1016600006F11001684606F00EFD0FCEFFF725FFCC
:10167000C0B1641CD5F8AC00A042CED8B8F80600C2
:10168000B5F8AC100844A8F80600B8F80400401CEF
:1016900080B2A8F8040098F8B010884208D388F8FF
:1016A00000A059E788F80090A8F80290012054E7BC
:1016B000A8F802B050E702274EE70020704700204C
:1016C000704770B50D46002401461E4802F008FC24
:1016D000801C2880204670BD70B50D460646114618
:1016E0000024184802F06BFCC2B23146154802F0E3
:1016F00029FC2880204670BD70B50C4601784078E2
:1017000001EB002086B221460E4802F058FC054647
:10171000E8B2022801D0012070BD0022094BA05C74
:10172000991881F82007521CD2B2042AF7D3054831
:10173000A0F81E6702F02CF9290A024802F0AEFC5C
:10174000002070BD6C2F0020AC37002058B800205E
:10175000BEAF0008842D0120AC6A00202DE9FC47B3
:1017600081460C4690462078401CC5B2FC4890F853
:101770000201A84202D20720BDE8FC870022F949F5
:10178000F948DFF8E8C300DFF64E18B9F8483168C9
:10179000FEF790FDF74FB9F19E0F43D00CDCA9F195
:1017A00090000D281FD2DFE800F0211E251E291E03
:1017B0002D1E311E351E3900B9F1BC0F42D009DC97
:1017C000B9F1A00F32D0B9F1A20F33D0B9F1BA0FED
:1017D00009D133E0B9F1C00F38D0B9F1C20F39D017
:1017E000B9F1C40F3AD04FF0010988E01B2040EA5C
:1017F000052536E0202040EA052532E0162040EAA3
:1018000005252EE0102040EA05252AE0112040EAB7
:10181000052526E0122040EA052522E0132040EAB3
:1018200005251EE0192040EA05251AE01A2040EAA5
:10183000052516E0302040EA052512E01C2040EA8C
:1018400005250EE01D2040EA05250AE0142040EAA7
:10185000052506E0152040EA052502E01E2040EAA5
:101860000525DFF810A3B9F1920FAAF1100A0AD0EA
:101870000222C149284600F043FD00F0FF09B9F1FA
:10188000000F3CD113E0002021180AEB0002497838
:101890001171401C0228F7DB0220B749CDE9001086
:1018A0009AE80F0000F063FD00F0FF09E7E70A2265
:1018B000AC49AD48DFF8B4C200DF012818D0316868
:1018C00091E80D10CAE9063CCAE90402A848FEF7EF
:1018D000F1FC386845F08001884201D04FF00409DE
:1018E0000022A049A048DFF884C200DF18B106E05A
:1018F0004FF00509F4E79E483168FEF7DBFC84F8F9
:101900000190B9F1000F09D0002060722072E071DF
:10191000A07160712071E070A0700FE03879A07044
:101920007879E070B8792071F8796071387AA071AF
:10193000787AE071B87A2072F87A60720A20A8F892
:101940000000484618E72DE9FC5F0D468246114627
:101950004FF000082878401CC6B20027804802F0EB
:101960002EFBC0B2012803D009206870BDE8FC9F9F
:101970007B4890F80211B14201D20720F6E7BAF194
:10198000A30F03D16A788A420BD852B1754900225D
:10199000091D7548DFF8D4C100DFDFF8C89110B128
:1019A00006E00720E2E77248D9F80410FEF782FC4F
:1019B000704C1034BAF1A10F42D00EDCAAF1910A9A
:1019C000BAF10F0F54D2DFE80AF020532353295302
:1019D0002C532F53325335533800BAF1BD0F35D045
:1019E00009DCBAF1A30F34D0BAF1A50F34D0BAF1A3
:1019F000BB0F3DD127E0BAF1C10F31D0BAF1C30F0F
:101A000031D0BAF1C50F33D130E05B2020602FE038
:101A10006020206028274FF0010829E05620206030
:101A200026E05020206023E05120206020E052205A
:101A300020601DE0532020601AE05920206017E04C
:101A40005A20206014E05C20206011E05D202060BE
:101A50000EE0702020600BE057202060282707E070
:101A60005420206004E05520206001E05E202060CA
:101A7000206840EA062040F0800A082020730020F9
:101A800060730121A173E07329182218497811713C
:101A9000401C0828F8DB206840EA0620206002216C
:101AA000354ACDE900213349103924310EC900F0FF
:101AB0005EFC00F0FF0BBBF1000F39D1C6B30A3753
:101AC0002849BAB2091D2848DFF8A0C000DF012864
:101AD0001BD0D9F80410274891E88C10103830300A
:101AE000A0E88C102248FEF7E5FB22482030006871
:101AF000504501D04FF0040B1A490022091D1A4825
:101B0000DFF868C000DF18B107E04FF0050BF3E71E
:101B10001748D9F80410FEF7CDFBB8F1000F07D035
:101B2000012000EB062020600022134900F0E8FBB2
:101B300085F801B0584619E770B50C4600250178C4
:101B4000FF2901D00720FCE5411C0120208004482A
:101B500001F045FF2188084420802846F1E5000077
:101B60006C2F0020740000203C2D01203D990008BE
:101B700020210120C8280020842D012010B5044612
:101B80002078FF2801D0072010BDF74802F017FA8F
:101B9000C0B2012801D0092010BDE11EF24801F0B9
:101BA000C0F910B10120607010BD611CEE4801F059
:101BB00025FFF8E770B50C46002501784278FF292B
:101BC00001D00720BDE50AB1052A01D90A20B8E5F0
:101BD00003212180811CE44801F035FF218808445D
:101BE00020802846ADE570B5044620786578FF284A
:101BF00001D00720A5E50DB1052D01D90A20A0E5EA
:101C0000D94802F0DCF9C0B2012801D0092098E5DA
:101C10002A46A11CD44801F057FFA07091E570B589
:101C20000C46002501784278FF2901D0072088E57D
:101C30000AB1052A01D90A2083E503212180811CEC
:101C4000C94801F000FF218808442080284678E533
:101C500070B5044620786578FF2801D0072070E52C
:101C60000DB1052D01D90A206BE5BF4802F0A7F997
:101C7000C0B2012801D0092063E52A46A11CBA4858
:101C800001F022FFA0705CE570B504460025B6485F
:101C900002F095F9C0B2012802D00920A07050E5E9
:101CA00028464EE50020704702460020052A23D032
:101CB00008DC012A10D0022A12D0032A14D0042AE8
:101CC00008D115E0812A1BD0822A1DD0832A1FD07B
:101CD000842A21D0012070472829FCD3072070478F
:101CE0002829FCD3072070471429FCD3072070470C
:101CF0001429FCD3072070470429FCD30720704720
:101D00000829FCD3072070470829FCD30720704717
:101D10000829FCD3072070470829FCD30720704707
:101D20002DE9F05F82460C4691462678637830466E
:101D30001946FFF7B9FF05460027DFF83082002D6E
:101D400035D1052E1BD008DC012E26D0022E0DD059
:101D5000032E0ED0042E20D10EE0812E12D0822E22
:101D600013D0832E14D0842E17D114E02833DBB285
:101D700013E05033DBB210E06433DBB20DE07833B4
:101D8000DBB20AE08033DBB207E08833DBB204E089
:101D90009033DBB201E09833DBB2BAF1B20F07D077
:101DA000BAF1B40F09D0BAF1B60F0BD001257FE01C
:101DB0005B1C102040EA032608E05B1C202040EA60
:101DC000032603E05B1C302040EA032667481038F6
:101DD000066008210173477301218173C773C772BD
:101DE000877247720772C771877147710771002246
:101DF0005F496048DFF880C100DFDFF874A1AAF115
:101E0000080A20B95D48DAF80810FEF753FA5B4873
:101E1000DFF86CC100DFDFF854B1ABF1500BE0B17B
:101E20005648FEF737FA0146CAF80C0098B1DBE9CC
:101E3000123CDBE9100281E80D1002225148DFF864
:101E400048C100DF012809D14C48DAF80C10FEF730
:101E500031FA032502E0062500E0062505BB142221
:101E600043494448DFF810C100DF012819D0DAF8EF
:101E7000081091E80D10CBE9163CCBE914023F485D
:101E8000FEF718FAD8F8000046F08001884200D02A
:101E90000425002236493748DFF8DCC000DF10B1E6
:101EA00006E00525F5E73548DAF80810FEF702FAEE
:101EB000A57045B1A77267722772E771A771677144
:101EC0002771E77017E098F80400E07098F80500B3
:101ED000207198F80600607198F80700A07198F8D2
:101EE0000800E07198F80900207298F80A00607202
:101EF00098F80B00A0720B20A9F800002846BDE856
:101F0000F09F2DE9F0470D46814611462E786C78FA
:101F100095F80AA0144802F052F8C0B2012803D084
:101F20000920A870BDE8F08721463046FFF7BCFEC7
:101F30000746002F7ED1052E2ED008DC012E39D089
:101F4000022E0DD0032E21D0042E33D121E0812E7C
:101F500025D0822E26D0832E27D0842E2AD127E08A
:101F60002834E4B226E000006C2F0020082900206D
:101F70007C000020602D01203D99000820210120D7
:101F8000B597000898300120999800085034E4B2C1
:101F900010E06434E4B20DE07834E4B20AE0803456
:101FA000E4B207E08834E4B204E09034E4B201E043
:101FB0009834E4B2A9F1B10009282AD2DFE800F090
:101FC000052916291B2920292500042E01D0822E3F
:101FD00002D1BAF1020F04D0641C412040EA042867
:101FE00017E0641C422040EA042812E0641C5020E0
:101FF00040EA04280DE0641C602040EA042808E060
:10200000641C702040EA042803E0641C712040EA4C
:102010000428AC48C0F800800821017300214173F6
:1020200001228273C173B9F1B30F1ED0B9F1B50F9C
:102030001BD000E067E0A9780171E9784171297946
:1020400081716979C171A9790172E9794172297A3D
:102050008172697AC17200229B499C48DFF870C284
:1020600000DF994E103E18B106E0F61C0671E4E759
:1020700098483169FEF71EF99648DFF85CC200DF28
:10208000904C603CD0B19348FEF704F9706198B170
:10209000D4E91A3CD4E9181280E80E100146022255
:1020A0008E48DFF83CC200DF012808D189487169F9
:1020B000FEF700F9032702E0062700E0062717BB1A
:1020C000B9F1B10F26D00A227F498048DFF800C25B
:1020D00000DF012818D03169703491E80D10A4E8B0
:1020E0000D107C48FEF7E6F8764848F08001103085
:1020F0000068884200D00427002273497348DFF843
:10210000D0C100DF10B105E00527F5E7714831695E
:10211000FEF7D0F8AF70384604E770B504460025E6
:10212000704801F04CFFC0B2012802D00920A07015
:1021300009E5284607E52DE9FC41044600256948E4
:1021400001F03DFFC0B2012802D00920BDE8FC81AA
:1021500021786078A278E37802EB032292B219B179
:10216000012970D00120F1E7022801D20C2A01D008
:102170000120EBE721796279E37941EA0227A2792C
:10218000504E120442EA0362174320363760082299
:102190003273002272730123B373F273227A3271A5
:1021A000627A7271A27AB271E27AF271227B327231
:1021B000627B7272A27BB272E27BF2722139424C74
:1021C000022506F11008103C40B1002204F118016C
:1021D0003E48DFF8FCC000DFB0B341E03A490022DE
:1021E00008314148DFF8E8C000DF18B93948A16973
:1021F000FEF760F83D48CDE9000596E80F0000F0D5
:10220000B6F8C5B2002D5AD12F49282208313648D8
:10221000DFF8BCC000DF012817D0A169103691E8B3
:102220000D10A6E80D102B48FEF744F8D8F8000072
:10223000B84200D004252449002208312A48DFF89A
:1022400090C000DF18B13AE006E00525F3E7214829
:10225000A169FEF72FF832E01E48A169FEF72AF8BF
:102260001E48CDE9000596E80F0000F080F8C5B2E1
:102270002DBB1549282208311448DFF854C000DF6F
:10228000012816D0A169103691E80D10A6E80D10AE
:102290001048FEF70FF8D8F80000B84200D0042527
:1022A0000949002208310948DFF824C000DF10B1D5
:1022B00005E00525F4E70748A169FDF7FBFF28467F
:1022C00044E700001829002084000020602D012030
:1022D0003D99000820210120B59700089830012081
:1022E000999800086C2F00203C2D0120842D01209E
:1022F000C0787047B049C0EBC00001EB8000F7E741
:102300002DE9FF410E4617460025009008208DF864
:102310000C0000208DF80D0001218DF80E108DF8B5
:102320000F0001900290A548DFF894C200DF00285A
:1023300018D0A248FDF7AEFF04468CB19DE80F000F
:1023400084E80F00BAB221463046DFF878C200DFD9
:10235000012808D121469948FDF7ACFF032502E08A
:10236000062500E00625284604B0BDE8F0812DE9E9
:10237000FF41DDE90A6700259048DFF844C200DF2D
:10238000002818D08D48FDF785FF04468CB19DE8E4
:102390000F0084E80F00BAB221463046DFF824C2AD
:1023A00000DF012808D121468448FDF783FF03257B
:1023B00002E0062500E006252846D5E710B50446CC
:1023C0002078A16803F010FDE07850B10022207859
:1023D0000123114604F0CBFD2078BDE8104003F046
:1023E0004BBD207801234FF47E52002104F0BFFD45
:1023F000F2E72DE9F04105460024734E6E4F305D43
:10240000284205D0C4EBC40007EB8000FFF7D6FFDD
:10241000641C022CF3D3A8E7C3780A68002BC2F32C
:10242000072007D0411E272903D92839272900D999
:1024300051387047D2B20028FBD0644BB3F8F83162
:102440008342F6D3401EC0B20B1D0146604803F024
:10245000DDBA022805D2584AC0EBC00002EB80006A
:10246000DAE770477CB50446E088002801D0401EBA
:10247000E080E07804F10C0548B1002201A955483C
:10248000DFF854C100DF00285BD000207CBD0022B3
:1024900001A95248DFF840C100DF18B1E08850B30D
:1024A00000207CBD01990C3491E84D004DC41C3CCA
:1024B000C2B2213AC820072A19D2DFE802F0040587
:1024C000060708090A00E080E080E080E080E08004
:1024D000E080E08002224248DFF8E8C000DF012807
:1024E00003D136480199FDF7E5FE00207CBD334855
:1024F000FDF7E0FE2EE02079401CC0B220710121E2
:1025000002280DD9217131496078B1F8F811491EBE
:10251000884202DA401C60700BE00020607008E026
:10252000022020716079401CC0B26071022800D97D
:1025300061710095637922796178254803F044F947
:1025400008E001990C3491E84D004DC41C3C1B4837
:10255000FDF7B0FE20780122294603F0E7FC7CBDA0
:10256000022805D21449C0EBC00001EB800079E7D6
:10257000704730B51B4B012400221978002902D086
:1025800001290ED106E0047042708270164C8460FE
:10259000C27006E00225057042708270134D85609E
:1025A000C470C280491C197030BD02231C22AFF2D6
:1025B0003D01014805F02EBE342F002020210120CE
:1025C000B597000899980008C6AF00085CB60020CF
:1025D0005C960020983001203D990008842D012050
:1025E0003C2D01209000002020A1070048E80100B8
:1025F00001460020F74AD2F830210A4200D00120DB
:10260000704700F5EE62D0F870070843106070471D
:1026100070B50024F04DEF4E08E004EB041005EB1C
:10262000001001F0CAFF30B1641CE4B296F8020158
:10263000A042F2D870BDBDE870400121E548E0E756
:1026400010B505F063F8E349002491F84C27E349FD
:10265000C02A08D1DF4A92F84D27A82A03D1DD4AC3
:1026600092F84E27F2B3C00549D50868421C0A60AB
:102670001E2843D91F2008600021D948DFF864C311
:1026800000DF01283AD0D349C02081F84C07A820A8
:1026900081F84D07084680F84E47C32081F84F0760
:1026A000D14822210446FEF719F9CA4AA2F86A075E
:1026B00024234FF4C8522146002004F041FF00209B
:1026C00004F0ACFD012004F0A9FD022004F0A6FDF9
:1026D000032004F0A3FD042004F0A0FD052004F075
:1026E0009DFD00E009E0062004F098FD072004F0BD
:1026F00095FDBDE8104005F025B90C6010BD0C60DB
:1027000010BD30B50020B949B24C221892F86027AC
:102710000A54401CC0B20628F7D30020B44B21183D
:1027200001F24C710A781A5403EB00020D7915710D
:102730000D7A15720D7B1573097C117400F101007F
:10274000C0B20428EBD3A348AA49B0F868070880B0
:1027500030BD2DE9F0410446002604F5E9654FF44B
:10276000C85724233A462946002004F0D3FE2421EA
:102770002846FEF7B3F8F0B99F49D4F848078842D5
:1027800019D194F84C07FF2815D094F84D07FF286D
:1027900011D094F84E07FF280DD094F84F07FF286A
:1027A00009D0B4F8680730B101262046FFF7A9FF29
:1027B0003046BDE8F08124229049284605F063FCAC
:1027C00022212846FEF78AF8A4F86A0724233A460D
:1027D0002946002004F0B4FEE7E72DE9F04F85B06C
:1027E0000C4690461421684605F0A1FCB8F1300F64
:1027F00004D8B8F1000F01D000236AE0012005B031
:10280000BDE8F08F03EB830904EB89004588F02DC8
:102810000DD8C688782E0AD84789282F07D8C289AC
:10282000282A04D8B0F812C0BCF1100F01D9022038
:10283000E5E78BB3591E01EB810134F8299034F898
:1028400021A004EB8101B1F802B0DA44CA4521D1DC
:10285000B1F80490B1F806A0D144B0F804A0D14575
:1028600018D1B1F80890B1F80AA0D144B0F808A086
:10287000D1450FD1B1F80C90B1F80EA0D144B0F809
:102880000CA0D14506D1B1F81090498A008A49447C
:1028900081420ED00320B2E7FFE7208838B9A08834
:1028A00028B9208918B9A08908B9208A08B103205D
:1028B000A5E70098284400900198304401900298C0
:1028C00038440290039810440390049860440490A4
:1028D0005B1C434596D300984FF4A06188420BD807
:1028E0000198884208D80298884205D803988842FF
:1028F00002D80498802801D9042080E700207EE7D0
:102900002DE9F0410446002504F555764FF4727721
:102910003B464FF480623146002004F0FBFD39460F
:102920003046FDF7DBFF344F50B9D4F85403B842BA
:1029300006D1302204F556712046FFF74EFF00B352
:10294000C4F854730021A4F81817002202EB820087
:1029500004EB800000F55670018041808180C180C9
:10296000018141818181C18101824182521C302AD1
:10297000ECD340F2C6313046FDF7B0FFA4F81A0799
:1029800000E00125284614E7002070472DE9F047B4
:1029900004460F4600254FF40036062F48D2DFE8E4
:1029A00007F047030A112F3604F5DC784FF03009A1
:1029B0004FF4404231E004F50E784FF030094FF407
:1029C00080322AE004F52E784FF01C094FF4A03233
:1029D00023E000006C2F0020AC3700209400002082
:1029E000BC300120E99A0008B436002028000020FD
:1029F0002E000020700000200200010008B0000836
:102A000004F53F784FF01C094FF4C03205E004F59F
:102A100050784FF00C094FF4E0324B46414600200D
:102A200004F078FD49464046FDF758FF68B902E0DA
:102A30000020BDE8F087424639462046FFF7A4FF54
:102A400018B9D8F80000B04256D001202021062F36
:102A50005AD2DFE807F05903111E2B38C4F8B861C9
:102A6000A4F8E40100201821221882F8BC11401CAF
:102A700080B22828F8D333E0C4F83862A4F864029E
:102A80000020221882F83C12401C80B22828F8D37B
:102A900026E0C4F8B862A4F8D0020020221882F818
:102AA000BC12401C80B21428F8D319E0C4F8FC62B0
:102AB000A4F814030020221882F80013401C80B2EE
:102AC0001428F8D30CE0C4F840630420A4F84803A9
:102AD0000120221882F84413401C80B20428F8D345
:102AE000A9F1020081B24046FDF7F8FE08EB0901AA
:102AF00001F8020D000A48700020062F71D2DFE8AD
:102B000007F070051A2F4459002092E7A4F8E80155
:102B10000120411E04EB41012218B1F8E81192F89E
:102B2000BB21114404EB4002A2F8E811401C80B222
:102B30002828EED352E0A4F868020120411E04EBDD
:102B400041012218B1F8681292F83B22114404EBBB
:102B50004002A2F86812401C80B22828EED33DE063
:102B6000A4F8D4020120411E04EB41012218B1F85F
:102B7000D41292F8BB22114404EB4002A2F8D41202
:102B8000401C80B21428EED328E0A4F818030120DA
:102B9000411E04EB41012218B1F8181392F8FF22EC
:102BA000114404EB4002A2F81813401C80B2142810
:102BB000EED313E0A4F84C030120411E04EB4101C5
:102BC0002218B1F84C1392F84323114404EB40024D
:102BD000A2F84C13401C80B20428EED3284628E704
:102BE000FFE7002025E770B50446002604F5D875F8
:102BF00008234FF440722946002004F08BFC082182
:102C00002846FDF76BFE01004FF0011003D1D4F808
:102C1000B011814208D0C4F8B00106212846FDF762
:102C20005DFEA4F8B60100E00126304670BD00F25A
:102C30001C700121018040F2E93141804FF07F0199
:102C400001714FF00001417181714FF00202C271B8
:102C5000018170470888012801D0002070470120B9
:102C600070473EB5044600250C234FF4CC5269460C
:102C7000002004F04FFC0C216846FDF72FFE18B928
:102C8000BDF80000012804D02046FFF7D0FF2846F9
:102C90003EBD69462046FFF7DDFF30B19DE80700E5
:102CA00004F21C7407C40125F1E72046FFF7BFFFBB
:102CB000EDE70022B0F83811F02902D94FF4F07195
:102CC00002E002EB410189B2B0F83A21782A02D938
:102CD000F03189B202E001EB420189B2B0F83E2145
:102CE000102A02D9403189B202E001EB820189B297
:102CF00001F1380200F6380092B2028047F66D53B7
:102D0000B3FBF2F3A3F10103438001F133018180AE
:102D100040F21451B1FBF2F1C18070470868A0F590
:102D20000032303A01D00020704791F84E00302830
:102D300005D820B191F84F0018B10020704700204D
:102D4000704791F85000082801D90020704791ED94
:102D5000160AFF4A10EE100A904204DCB5EEC00AD3
:102D6000F1EE10FA01D80020704791ED190A10EE2B
:102D7000100A904204DCB5EEC00AF1EE10FA01D858
:102D80000020704791ED170AF24A10EE100A9042A7
:102D900004DCB5EEC00AF1EE10FA01D8002070474D
:102DA000D1ED1A0AEC4A10EE900A904204D8F4EEE3
:102DB000C00AF1EE10FA01DB0020704791ED180A0D
:102DC000E64810EE102A824204DCB5EEC00AF1EEAD
:102DD00010FA01D80020704791ED1B0A10EE102A5E
:102DE000824204DCB5EEC00AF1EE10FA01D80020F0
:102DF0007047086FDA4ADB4B401C06D0086F9042E0
:102E000001DC984201D900207047486F401C06D071
:102E1000486F904201DC984201D90020704791ED43
:102E20001C0AD1ED1D0AB4EEE00AF1EE10FA01DD44
:102E300000207047886F38B1D1F880004CF25032D2
:102E4000904203D20020704700207047C64890F897
:102E500080000A281DD9B1F88400F02801D900208B
:102E60007047B1F88600782801D90020704791F8A2
:102E70008800282801D90020704791F88900282867
:102E800001D900207047B1F88A00102801D900202C
:102E900070470120704770B504460025B0234FF4F9
:102EA0008072211D002004F035FBB021201DFDF7AC
:102EB00015FD80B96068A0F5003130390BD1211DB6
:102EC0002046FFF72BFF30B1B022211D04F1B400E2
:102ED00005F0D9F8012594F802010126302803D91C
:102EE000302084F8020102E008B984F8026120462B
:102EF000FFF7DFFE0020002100EB800204EB8202DE
:102F000002F55672108056809080D68011815181D2
:102F10009181D18110825682401C3028ECDB2846FA
:102F200070BD10B500200A7A282A01D9012010BDF1
:102F30004A7A282A01D9012010BD8A7A142A01D997
:102F4000012010BDCA7A142A01D9012010BD0A7BC4
:102F5000082A01D9012010BD4A7B082A01D9012085
:102F600010BD8A7B082A01D9012010BDCA7B082A1E
:102F700001D9012010BD0A7C202A01D9012010BDF1
:102F80004A7C202A01D9012010BD8A7C402A01D91F
:102F9000012010BDCA7C402A01D9012010BD0A7D44
:102FA000402A01D9012010BD4A7D402A01D90120C3
:102FB00010BD8A7D202A01D9012010BDCA7D202A9A
:102FC00001D9012010BD0A8B41F288339A4201D900
:102FD000012010BD4A8B1E2A01D9012010BD8A8B09
:102FE000322A01D9012010BDCA8B4FF6B753323AAD
:102FF0009A4201D3012010BD0A8C323A9A4201D381
:10300000012010BD4A8C323A9A4201D3012010BDF2
:103010008A8C4CF25034521EA24201D3012010BDC2
:10302000CA8C4FF6E854A24201D9012010BD0C8D84
:103030004FF6F942F03C944201D3012010BD4C8D73
:10304000F03C944201D3012010BD8C8DF03C9442A1
:1030500001D3012010BDCC8DF03C944201D301205E
:1030600010BD0C8EF03C944201D3012010BD4C8E5B
:10307000F03C944201D3012010BD8C8EF03C944270
:1030800001D3012010BDCC8EF03C944201D301202D
:1030900010BD0C8FF03C944201D3012010BD4C8F29
:1030A000F03C944201D3012010BD8C8FF03C94423F
:1030B00001D3012010BDCC8FF03C944201D30120FC
:1030C00010BDB1F84040F03C944201D3012010BD46
:1030D000B1F84220323A9A4201D3012010BD91F852
:1030E0004420052A01D9012010BD91F84510052979
:1030F000FAD9012010BD2DE9F0410446002604F55F
:10310000B27500224C232946104604F003FA4C21E4
:103110002846FDF7E3FB4FF4A02740B92946204697
:10312000FFF7FFFE18B9D4F86401B84260D004F587
:10313000B47444F8047C0120207060700021A170F8
:10314000E1702822227162711422A271E2710DE0F5
:103150008096984B002474490050C3C7F9029550DB
:10316000000048430000A0C1BEAC00080822227243
:103170006272A272E2721822227320226273A27318
:10318000E27320746074A074E0743220A082032380
:10319000E382052222834FF4FA606083A08341F228
:1031A0008837E78322846184A084E0842085608559
:1031B000A085E085421022866286A286E08620876E
:1031C0006087A0876420E08784F84030022084F87C
:1031D000410084F8421084F8431084F8441084F8C5
:1031E00045104A212846FDF779FBA4F8460000E087
:1031F00001263046BDE8F08110B5FA48FFF77BFFA5
:10320000F848FFF748FEF748FFF72BFDF548FFF7B2
:10321000EAFC0121F348FFF7B9FB0221F148FFF76F
:10322000B5FB0321EF48FFF7B1FB0421ED48FFF7A1
:10323000ADFB0521EB48FFF7A9FBEA48FFF760FB70
:10324000BDE81040E748FFF784BA00F5EE62D0F819
:10325000700788431060704730B5034600249C33E4
:1032600003F89C4CE04898611820187709214FF426
:10327000FC605977D8839C3B0020DC4A03EB40017B
:1032800012F8105001F8BC5F32F810502D0A4D7042
:10329000401C1028F2D30020D44A163203EB400120
:1032A00012F8105001F8DC5F32F810502D0A4D7002
:1032B000401C1028F2D34FF61C2023F8FC0F3020BE
:1032C0005880C021197158719871DC711C725C7240
:1032D0009C72DC721C735C739C73DC739FEDC40A7C
:1032E00083ED040ADFEDC30AC3ED050ADFEDC20A70
:1032F000C3ED060A83ED070A9FEDC00A83ED080AB5
:10330000C3ED090AB3EE090A83ED0A0A9FEDBC0A70
:1033100083ED0B0A47F2870018635C634CF2503070
:103320009863FC3BB74890F880000A2812D903F54F
:103330009C731C805C801C715C71DC80A3F59C73A9
:103340000020AA4944391D180A5C85F84021401C18
:103350002028F8D34FF0FF311846FFF776FF002101
:10336000C92203EBC10000F5E5600470447084706D
:10337000C47004714471C280491C0429F1DB83F8D4
:10338000744783F8754783F87647002003EB4001C4
:10339000A1F87847A1F8D847401C3028F6D3382048
:1033A000A3F838084FF40F70A3F83A083320A3F8B5
:1033B0003C081920A3F83E08184630BDF0B5034676
:1033C0001820087009204870E02088700720C87015
:1033D000091D042000241D1995F8BC5001F8015B5B
:1033E000401C80B2641C202CF5D300241D1995F8D4
:1033F000DC5001F8015B401C80B2641C202CF5D32A
:103400001C240C70FA244C7093F8FE408C70B3F8B6
:10341000FE40240ACC70091D001D86B20020794DA3
:103420002C5C01F8014B761CB6B2401CFF28F7D982
:10343000C02008703020487093F802018870002482
:10344000CC7093F80401087193F805014871891D47
:10345000B61DB0B200269F1997F8067101F8017BDE
:10346000401C80B2761C062EF5D303F58677002625
:1034700017F806C001F801CB401C80B2761C042E60
:10348000F6D303F58877002617F806C001F801CBBC
:10349000401C80B2761C042EF6D303F58A770026F2
:1034A00017F806C001F801CB401C80B2761C042E30
:1034B000F6D303F58C77002617F806C001F801CB88
:1034C000401C80B2761C042EF6D303F58E770026BE
:1034D00017F806C001F801CB401C80B2761C042E00
:1034E000F6D303F59077002617F806C001F801CB54
:1034F000401C80B2761C042EF6D303F5927700268A
:1035000017F806C001F801CB401C80B2761C042ECF
:10351000F6D303F59477002617F806C001F801CB1F
:10352000401C80B2761C042EF6D303F59677002655
:1035300017F806C001F801CB401C80B2761C042E9F
:10354000F6D303F59877002617F806C001F801CBEB
:10355000401C80B2761C042EF6D303F59A77002621
:1035600017F806C001F801CB401C80B2761C042E6F
:10357000F6D3FF26012A23D0022A2AD00E704E70DD
:103580008C70CC70091D001D80B293F81E6703F289
:103590001E720E701288120A4A70891C801C80B23A
:1035A00000229E1896F8606701F8016B401C80B2FB
:1035B000521C062AF5D395F880200A2A24D09BE0D5
:1035C000002201F8016B401C80B2521C042AF8D37F
:1035D000DBE7002201F8014B401C80B2521C042A98
:1035E000F8D3D2E76C2F0020300002002CB0000886
:1035F00000401C4600409C4500504347000000002E
:1036000000008242BEAC0008002202EB820603EBFF
:10361000860696F85A730F70B6F85A63360A4E70DB
:10362000891C801C80B2521C302AEED305E00C703D
:103630004C70891C801C80B2521C602AF7D3002277
:1036400002EB820603EB860696F85E730F70B6F8FF
:103650005E63360A4E70891C801C80B2521C302A70
:10366000EED305E00C704C70891C801C80B2521C9B
:10367000602AF7D3002202EB820603EB860696F857
:10368000626301F8016B401C80B2521C302AF2D3F5
:1036900004E001F8014B401C80B2521C602AF8D3B0
:1036A000002202EB820603EB860696F8666301F8B9
:1036B000016B401C80B2521C302AF2D304E001F8A6
:1036C000014B401C80B2521C602AF8D3002202EB4E
:1036D000820603EB860696F86A6301F8016B401CCC
:1036E00080B2521C302AF2D304E001F8014B401C96
:1036F00080B2521C602AF8D395F880200A2A2FD96C
:1037000003F59C731A780A7000F101001A884FEAD9
:1037100012224A709A788A705A884FEA1222CA7026
:103720001A790A715A794A719A798A71DA88A3F5F5
:103730009C734FEA1222CA7101F1080100F10700DF
:1037400080B24FF0000203EB020494F8404101F80C
:10375000014B00F1010080B202F10102202AF2D3F4
:10376000F0BD70B504460025087820724878607274
:10377000488860810422002013182618CB5C33731C
:10378000401C2028F8D32032002013182618CB5CC8
:1037900086F82C30401C2028F7D320324FF61C200E
:1037A00024F84C0F921C885A6080C0202071302071
:1037B0006071121D501C8A5CA2710022E271431CD0
:1037C000581CCA5C2272421C085C6072A4F14C0452
:1037D0004FF0000002EB000304EB0006CB5C86F820
:1037E000563000F101000628F4D3921D8858E06598
:1037F000121D88582066121D88586066121D885850
:10380000A066121D8858E066121D88582067121D98
:1038100088586067121D8858A067121D8858E06795
:10382000121D8858C4F88000121D8858C4F88400FE
:10383000121DF84890F880000A2820D9885A24F8E8
:10384000880F921C885A6080921C501C8A5C2271DE
:10385000421C085C6071885AE080A4F1880402F17F
:1038600002024FF00000134604EB0006CB5C02F1AD
:10387000010286F8903000F101002028F3D3E648D9
:103880006060211D2046FFF749FA00284BD0AE2189
:10389000201DFDF723F8A4F8B2001421DF48DFF85B
:1038A00080C300DF01283CD04FF48076B02332463D
:1038B000211D002003F044FEB0233246211D0020CC
:1038C00003F028FED548DFF85CC300DFB021201DDF
:1038D000FDF704F808B1012526E0B4F83801B4F882
:1038E000881088420BD1B4F83A01B4F88A108842A3
:1038F00005D1B4F83E01B4F88E10884201D000F032
:103900004AFCB022211D04F1B40004F0BCFBDFF836
:1039100018C300DF2046FFF7CCF9DFF810C300DF43
:1039200002E0012500E00125284670BD2DE9F041A7
:1039300004460125B848C4F8B40004F1B4010F46A8
:103940002046FFF7EBF908B3AE213846FCF7C6FF77
:10395000A4F862011421B148DFF8C4C200DF0128D5
:1039600014D02E02B02332463946002003F0E8FD81
:10397000B0233246211D002003F0CCFDA748DFF81C
:10398000A4C200DFB021201DFCF7A8FF284631E4C7
:1039900070B504460126012004F21C75A4F81C072A
:1039A00029462046FFF756F9B8B10A212846FCF708
:1039B00095FFA4F8260714219848DFF864C200DFB9
:1039C00001280AD00C234FF4CC522946002003F0E2
:1039D000B7FD9248DFF84CC200DF304670BD10B52D
:1039E0000346002003F5B47300229C5C8C54401CF9
:1039F00080B2521CD2B2462AF7D310BD70B505462C
:103A0000002605F5B47400200A5C2254401CC0B2A4
:103A10004628F9D305F5B27420464A21FCF75EFF2B
:103A2000A5F8AE0114217D48DFF8F4C100DF0128BC
:103A300006D000224C232146104603F081FD00E011
:103A40000126304670BD70B500250024062A20D21C
:103A5000DFE802F01F03080D121790F8E42100F5CB
:103A6000DE7312E090F8642200F50F730DE090F819
:103A7000D02200F52F7308E090F8142300F540736E
:103A800003E090F8482300F5517301F8012B002062
:103A900006E0002070BD1E5C3444A4B2401CC0B2DD
:103AA0009042F8D30C70200A4870891CED1CA8B213
:103AB000002406E01D5D01F8015B401C80B2641C1F
:103AC000E4B29442F6D370BD2DE9F0410025002701
:103AD0000C784B788E7803EB06231FFA83F8C91C09
:103AE000AC46002309E0CE5C6EB1BE4200D9374639
:103AF00066441FFA86FC5B1CDBB2A342F3D3C445C9
:103B000003D0012043E7012041E70026062A7DD2A9
:103B1000DFE802F07C03408ECCF7282C01D8202F60
:103B200001D9012033E7A0F8E441002205E087181D
:103B30008B5C87F8BC31521CD2B2A242F7D3A0F8FA
:103B4000E86101210EE04A1E00EB42024318B2F880
:103B5000E82193F8BB311A4400EB4103A3F8E821B4
:103B6000491CC9B2A142EED3611E00EB41010AE03B
:103B7000021982F8BC6100EB4403B1F8E821A3F814
:103B8000E821641CE4B2282CF2D300F5DC76302462
:103B9000A70207E1282C01D8202F01D90120F6E641
:103BA000A0F86442002205E087188B5C87F83C325D
:103BB000521CD2B2A242F7D3A0F8686201210EE0F3
:103BC0004A1E00EB42024318B2F8682293F83B32D7
:103BD0001A4400EB4103A3F86822491CC9B2A14270
:103BE000EED3611E00EB41010AE0021982F83C624B
:103BF00000EB4403B1F86822A3F86822641CE4B225
:103C0000282CF2D300F50E76302400E0E7E04FF4E4
:103C10008037C7E0BEAC000830000200BC30012095
:103C2000E99A0008059A0008D5A00008C1A100087B
:103C3000142C01D8402F01D90120A8E6A0F8D042C9
:103C4000002205E087188B5C87F8BC32521CD2B288
:103C5000A242F7D3A0F8D46201210EE04A1E00EB85
:103C600042024318B2F8D42293F8BB321A4400EB54
:103C70004103A3F8D422491CC9B2A142EED3611E6C
:103C800000EB41010AE0021982F8BC6200EB440338
:103C9000B1F8D422A3F8D422641CE4B2142CF2D3D9
:103CA00000F52E761C244FF4A0377BE0142C01D8AD
:103CB000402F01D901206AE6A0F81443002205E054
:103CC00087188B5C87F80033521CD2B2A242F7D31C
:103CD000A0F8186301210EE04A1E00EB42024318CF
:103CE000B2F8182393F8FF321A4400EB4103A3F80B
:103CF0001823491CC9B2A142EED3611E00EB410159
:103D00000BE012E0021982F8006300EB4403B1F803
:103D10001823A3F81823641CE4B2142CF2D300F582
:103D20003F761C244FF4C0373CE0042C01D8202FF0
:103D300001D901202BE6A0F84843002205E08718AE
:103D40008B5C87F84433521CD2B2A242F7D3A0F85E
:103D50004C6301210EE04A1E00EB42024318B2F808
:103D60004C2393F843331A4400EB4103A3F84C234C
:103D7000491CC9B2A142EED3611E00EB41010AE029
:103D8000021982F8446300EB4403B1F84C23A3F812
:103D90004C23641CE4B2042CF2D300F550760C24BE
:103DA0004FF4E037A01E81B23046FCF797FD311981
:103DB00001F8020D000A48701421D548DFF854C3F9
:103DC00000DF012809D023463A463146002003F09F
:103DD000B7FBCF48DFF840C300DF2846D7E5012016
:103DE000D5E50868B0F1011F01D00020704701201F
:103DF0007047002070470020704700207047002067
:103E000070470868C549884201D0002070470120EA
:103E1000704710B5024600200021C14B92F80241C4
:103E200010E001EB011203EB0212D2F80C2192F820
:103E30003D20012A04D01AB1052A01D0012010BD6D
:103E4000491CC9B28C42ECD810BD70B505460C4671
:103E5000A079FF2840D0E079FF283DD0207AFF28C4
:103E60003AD0607AFF2837D01421A948DFF8A4C2DD
:103E700000DF012832D000202A1814F8011B82F834
:103E80006017401CC0B20628F6D300202A1814F888
:103E9000011B82F84C17401CC0B20428F6D32078CE
:103EA00005F5ED61A5F86807627800EB022008804F
:103EB00005F5E96022210446FCF710FDA5F86A0724
:103EC00024234FF4C8522146002003F039FB284632
:103ED000FEF717FC002070BD012070BD012070BDF1
:103EE00010B500220023C41894F8604701F8014B74
:103EF000521C92B25B1CDBB2062BF4D30023C41815
:103F000094F84C4701F8014B521C92B25B1CDBB297
:103F1000042BF4D300F5ED6390F868070870188857
:103F2000000A4870921C90B210BD10B5042400F233
:103F30006C700022835C01F8013B521C042AF9D307
:103F4000204610BD70B500230024764D2E5D01F88B
:103F5000016B5B1C9BB2641C062CF7D3FF2400256D
:103F6000012A16D0022A1DD00C704C708D70CD70B5
:103F7000091D1B1D9BB26C4800F21E7290F81E07B3
:103F800008701088000A48708D70CD701B1D98B2A3
:103F900070BD002001F8014B5B1C9BB2401C042843
:103FA000F8D3E8E70022841894F8204701F8014B81
:103FB0005B1C9BB2521C042AF5D3DCE770472DE949
:103FC000F0470025002491F8008090F820279045C4
:103FD00010D14A7890F821379A420BD18A7890F81C
:103FE00022379A4206D1CA7890F823379A4201D1F3
:103FF000012550E00022DFF834C10027ACF10806AB
:1040000000EBC20393F82897B9F1010F06D0B35C17
:104010001C43521C042AF3DBFDB13CE093F82A97C1
:10402000C845F6D191F8019093F82BA7D145F0D16E
:1040300091F8029093F82CA7D145EAD191F803901A
:1040400093F82D379945E4D100EBC203A3F82E77FE
:104050003CF81220921C95B2DEE7E4B10022B35C7A
:10406000234215D000EBC20000F5E5600123037088
:1040700047700B7883704B78C3708B780371C97865
:104080004171C7803CF8120000F1020085B202E0E5
:10409000521C042AE3DB2846BDE8F08703460020D3
:1040A00004290FD203EBC10000F5E5600022027085
:1040B00042708270C270027142714FF0C901C180BA
:1040C0004FF00100704710B5002200EBC20191F8DB
:1040D0002837012B11D1B1F82E3740F22E745B1C1A
:1040E0009BB26352C82B08D301F5E56100230B7026
:1040F0004B708B70CB700B714B7102F10102042A73
:10410000E3DB10BDD0F8700770470748FFF7A4B88D
:10411000BC300120E99A0008059A0008020001005D
:10412000AC370020280000206C2F0020D8AF0008FA
:1041300030B5014645F65A22002904D0FE4BB3F8AB
:10414000B2408C4201D2104630BD00200DE000EBA1
:10415000400505EBC00503EB8505B5F8B8508D4269
:1041600001D1024603E0401C80B28442EFD81046E1
:1041700030BD00F58670002102681165026882F882
:1041800049100268A2F84A100268A2F84C100068B0
:10419000A0F84E10704730B50023E84CE84D06E01B
:1041A00003EB031004EB0010FFF7E3FF5B1C95F833
:1041B00002019842F4D830BD2DE9F043D0F80CC18B
:1041C000DFF87C839CF83D20B8F83A61B8F83811E4
:1041D000052A15D2DFE802F014140303030042F6A7
:1041E00016423CF802508D4200D205B90D4642F607
:1041F00018423CF80220B24203D212B1164600E047
:104200000D46027851431FFA81F9CE4F07EB490161
:10421000B1F902301C4600210EE009EB010207EB68
:104220004202B2F902209A4201DD134602E0A242A4
:1042300000DA1446491C89B2A942EED3CCF8AC305E
:10424000D0F80C11C1F8B440B8F83A1102785143D3
:104250008DB207EB4501B1F9023A1C4600210DE091
:104260006A1807EB4202B2F9022AA24201DD1446A3
:1042700002E09A4200DA1346491C89B2B142EFD3F8
:10428000D0F80C11C1F8BC40D0F80C01C0F8C43013
:10429000BDE8F08330B50446D4F80C0190F83D2019
:1042A00090F83E108A4208D0012916D080F83C20B0
:1042B000D4F80C013D30417801702046FFF77CFFB7
:1042C000D4F80C010022042590F83D1006293DD2B7
:1042D000DFE801F00F0A10242A3380F83D10D4F8EB
:1042E0000C0180F83C10E8E72079800701D4022017
:1042F000A08030BD21794907FBD49149B1F88A31BA
:104300002178491C4B43A1688B4202D93231A1600C
:1043100030BDA580A26080F8482030BD207900071C
:10432000FBD40820A08030BD2179C906FBD4102120
:10433000A180C189A0F85C1030BD21798906FBD429
:104340002021A180C189A0F85C1030BDA280017B32
:10435000802242EA0121C181D4F80C0180F83E504C
:1043600030BD70B57648FFF7AEFE0024734D744E35
:1043700006E004EB041005EB0010FFF78BFF641C54
:1043800096F80201A042F4D870BD01783022C1EB4A
:1043900001118900B1FBF2F164310161704700F550
:1043A00086700121026882F83C1002684FF000011B
:1043B00082F83D10026882F83E10026882F83F10D1
:1043C0000268A2F840100268A2F842100268A2F83F
:1043D00044100268A2F84610026891810068B0F8A3
:1043E0004C20B0F84A309A4201D180F84910704709
:1043F00010B5D0F80C11D431002242F6844301E00C
:1044000021F8022BD0F80C411C448C42F8D2D0F891
:104410000C010121C0F8141110BD00F586700021B7
:10442000026882F849100268A2F84A100268A2F8ED
:104430004C100268A2F84E10026811650268A2F8DA
:1044400054100268A2F85610026891650268A2F83A
:104450005C100268A2F85E100268116602689FEDA7
:104460003A0A82ED190A026891660268D16602680A
:1044700011670268516702689167026882ED1F0A3E
:10448000026882ED200A026882ED210A026882ED4C
:10449000220A026882ED230A026882ED240A026879
:1044A00082ED250A026882ED260A026882ED270A5B
:1044B000026882ED280A026882ED290A0268C2F8C1
:1044C000A8100268C2F8B0100268C2F8B8100268FA
:1044D000C2F8C01003684FF4B4421A8103684FF069
:1044E00001025A81026891810268A0F58670D38921
:1044F000832B00D0D18100F58670026811610268BB
:10450000516102681183026851830268D1610268B7
:104510001162016881ED090A016881ED0A0A0168EA
:1045200081ED0B0A016881ED0C0A00689FED070A16
:1045300080ED0D0A70470000AC6A0020AC37002007
:104540006C2F002058B8002000000000339388C36F
:1045500001460120D1F80C115A230A89B3EB122F1E
:1045600000D000200A7B223ADC2A00D80020FE4A34
:104570000B69934200D900204B69934200D9002077
:104580000B8B41F68442934200D900204B8B93421F
:1045900000D90020F54ACB69934200D900200B6A6C
:1045A000934200D900200028C4D18322CA81C1E7E8
:1045B000D0F80C01EE494160BCE7D0F80C01EC49A1
:1045C0004068884201D00020B4E70120B2E768309B
:1045D0002C2103F08ABD08461C2103F086BD70B56E
:1045E0000446E44A00251078002808D14FF0C04165
:1045F0005160DF4B0E689E4201D00B608D804AF601
:10460000A521DD4B4143194401F00303C91AC4F845
:104610000C112070401C107084F8245065804FF0FD
:10462000FF30206104F148012046FFF7D4FF204607
:10463000FFF7CDFF2046FFF7C0FFB8B12046FFF7D8
:1046400087FF00B3D4F80C01C1890A2901D0A0F872
:104650005610D4F80C010A22012190F83D60062E74
:104660001BD2DFE806F0251A335D5D602046FFF7B8
:104670009FFF2046FFF7D1FE2046FFF790FE204621
:10468000FFF7B6FE4FE02046FFF7C7FE2046FFF7D4
:1046900086FE2046FFF7ACFE45E080F83C10D4F8DB
:1046A0000C0180F83D50D4F80C0180F83E503AE0FF
:1046B00090F83C10022903D02046FFF770FE32E04C
:1046C000C281D4F80C0180F83E502CE0B0F84230A2
:1046D000A3F57F46FE3E13D042F65E43C35AFF2B3E
:1046E0000ED0C281D4F80C013C3041780170D4F86E
:1046F0000C0180F83D50D4F80C0180F83E5009E0E0
:1047000080F83C10D4F80C0180F83D50D4F80C012E
:1047100080F83E50D4F80C014089A4F8480002E02B
:104720004089A4F848002046FFF72FFE002104F13D
:104730002800DFF848C200DF002104F13000DFF874
:104740003CC200DF002104F14000DFF830C200DF8E
:10475000002104F13800DFF824C200DF204670BDDC
:10476000D0F80C01002906D0012901D0022905D07A
:1047700090F83D0004E090F83E0001E090F83C0025
:10478000062801D90020D5E60120D3E60146002005
:104790007B4A92F86821002A06D0D1F80C1191F8D2
:1047A000CC10002900D10120C4E630B50446002514
:1047B000D4F80C0190F83D10062904D2DFE801F08E
:1047C00042380717222D2046FFF7E9FD3AE00A217B
:1047D000C181D4F80C013C3041780170D4F80C014F
:1047E00080F83D50D4F80C0180F83E502AE080F863
:1047F0003C10D4F80C0180F83D50D4F80C0180F83E
:104800003E501FE080F83C10D4F80C0180F83D5079
:10481000D4F80C0180F83E5014E080F83C10D4F835
:104820000C0180F83D50D4F80C0180F83E5009E0AE
:1048300080F83C10D4F80C0180F83D50D4F80C01FD
:1048400080F83E50D4F80C01B0F84C10B0F84A2073
:10485000914201D180F8495030BD6BE62DE9F0411D
:1048600004460027DFF81CC100DFD4F80C014C22FD
:10487000C830454903F007FCDFF80C81D4F80C116F
:10488000A8F16408B8F8B200C1F8140100254FF48B
:104890008C760EE005EB450101EBC50106EB8102CC
:1048A000104408EB8101B8312C2203F0ECFB6D1CA5
:1048B000EDB2D4F80C01D0F81411A942EAD8DFF80F
:1048C000CCC000DF84E004F5867405EB4500226867
:1048D00000EBC500002106EB8003D15222684FF4A3
:1048E0008D7303EB8003D1524FF48E73226803EB78
:1048F0008003D1501FEDEC0A4FF49073226803EB54
:1049000080031A4482ED000A22684FF4927303EB8D
:104910008003D15222684FF4937303EB8003D1528A
:104920004FF49473226803EB80031A4482ED000A6B
:1049300022684FF4967303EB8003D15222684FF440
:10494000977303EB8003D1524FF49873226803EB03
:1049500080031A4482ED000A4FF49A73226803EB35
:104960008003D15014E0000080969800804A5D05D5
:10497000300691D19800002000010060659D00087C
:104980006C2F0020D5A00008106B0020C1A10008EA
:104990004FF49C73226803EB80031A4482ED000AF3
:1049A0004FF49E73226803EB80031A4482ED000AE1
:1049B00022684FF4A07303EB8003D15222684FF4B6
:1049C000A17303EB8000A4F5867411526D1CEDB247
:1049D000FA2DFFF478AF3846BDE8F081D0F80C012D
:1049E00042F684428152A5E530B50024D0F80C216E
:1049F00092F83D50062D13D2DFE805F0150315158A
:104A00001515022349B1A1F57F45FF3D01D182F87B
:104A10003E3000218180816005E082F83E30F8E779
:104A2000042082F83E00204630BD1C22483103F0AD
:104A30002ABB08B500220092D0F80C0190F848304B
:104A40000122002B01D000920CE090F83D000528D7
:104A500008D2DFE800F0070703030500009201E039
:104A600001B100929DF8000008BDD0F80C01C0898A
:104A700060E5D0F80C01C1815CE55A4991F8051157
:104A8000D0F80C0180ED0A0A54E5564A92F8052147
:104A9000C0F880104EE5D0F80C0180ED090A49E518
:104AA000504A92F80521C0F8841043E5D0F80C0173
:104AB00000F5305090ED0D0AD0ED0E0A30EE200AD0
:104AC000F6EE000A20EE200AFDEEC00A10EE900A73
:104AD000444900EE900A91ED440AF8EEE00AB4EE83
:104AE000E00AF1EE10FA04D2BDEEC00A10EE100A90
:104AF00020E500EE900A91ED470AF8EEE00AB4EEE8
:104B0000E00AF1EE10FAF3DDBDEEC00A10EE100A75
:104B100010E500EE101AB8EEC00ADFED330AD0F847
:104B20000C0180EE201A80ED0D1A03E502E501E587
:104B3000D0F80C0180ED0B0AFCE4D0F80C318AB2FD
:104B4000C3F8B420D0F80C010914C0F8AC10F1E49B
:104B5000D0F80C318AB2C3F8C420D0F80C01091483
:104B6000C0F8BC10E6E4D0F80C018165E2E470B551
:104B700004461C4890F80501D6B2C2F3072015146C
:104B8000D4F80C219165A166D4F80C1149898142B1
:104B900007D194F8640020B104F12800DFF84CC07C
:104BA00000DF022E04D0032E01D1A4F86C5070BD9A
:104BB0006D1D0A2095FBF0F0A4F8700070BD303038
:104BC000DFF828C000DFB5E43830DFF820C000DFB0
:104BD000B0E430234FF48872AFF2FD51044803F083
:104BE00019BB00006C2F00200000C842A59D0008E2
:104BF000AC3700202DE9F04105460E780024002E48
:104C000001D0072E02D90120BDE8F081DFF874C57C
:104C100000DF00220121082E1AD2DFE806F0A804E6
:104C20002432A89A9FA405F586752868C281286851
:104C30008265286880F84820286890F83D20062A78
:104C40000ED2DFE802F00D0D0306090980F83E10D0
:104C50008DE080F83E108AE0F12480F83E1086E076
:104C600080F83E1083E0D5F80C0190F83D10032940
:104C70007DD2DFE801F07C7C0200032180F83E1049
:104C800075E0D5F80C11022691F83D0005286ED28A
:104C9000DFE800F06D6D6D03060081F83E6066E0B0
:104CA000C889142727284DD016DC44D2DFE800F04D
:104CB000434A4A4A4A4A4A4A4A434A4A4A4A4A4A62
:104CC0004A4A4A4A4A4A4A4A4A4A4A434343434367
:104CD0004A4A4A4A4A4A4A00432833D013DCA0F1E0
:104CE00028001B2827D2DFE800F02D2D2D2D2D2D9B
:104CF0002D262D2D2D2D2D2626262626262626262A
:104D000026262D2D2D004B281CD004DCA0F14400BC
:104D1000062810D816E04F2814D006DC4C2811D0F5
:104D20004D280FD04E2806D10CE080280AD08128CB
:104D300008D0822806D0CA81D5F80C0180F83E60E0
:104D40006F8414E0CA81D5F80C0180F83E606F844E
:104D50000DE0D5F80C0190F83D0008E0D5F80C0105
:104D600080F8481003E0D5F80C0180F84820DFF8FF
:104D700018C400DF204647E7D0F80C0100F14A00D4
:104D8000818801807047D0F80C0130F84A1F81807B
:104D90007047FE48428801EB42010288807901EBAE
:104DA000420101EB800080B27047D0F80C1101F194
:104DB0004A0148880988884201D3401A04E0F44A2D
:104DC000B2F83A281044401A80B27047D0F80C016B
:104DD000EF49B0F84E20B1F8381801FB020042F656
:104DE000385108440078C0F30210704710B50078BD
:104DF000087075204870891C02240020002301F8E7
:104E0000013B641CA4B2401C0428F8D30B704B7007
:104E1000891CA41DA4B2002001F8013B401C0428F9
:104E2000FAD3241D0B704A708B70CB70091D241DA2
:104E3000A2B2002001F8013B401C0428FAD30B70F9
:104E40004B70891C921D92B2002001F8013B401C5E
:104E50000428FAD3121D92B2002001F8013B401C35
:104E60000428FAD3121D92B2002001F8013B401C25
:104E70000428FAD3121D92B2002001F8013B401C15
:104E80000428FAD3121D92B2002001F8013B401C05
:104E90000428FAD3121D92B2002001F8013B401CF5
:104EA0000428FAD3121D0B704B708B70CB700B71F2
:104EB000521D90B210BDB64B93F805311D2A10D289
:104EC000DFE802F011151A1F24262B3032373C3F41
:104ED000424545454747474747474747494C4F5253
:104EE0005500002047E0D0F80C01C06F43E0D0F837
:104EF0000C01D0F880003EE0D0F80C01D0F888001A
:104F000039E0D0F80C01D0F88C0034E0002032E019
:104F1000D0F80C01D0F8B4002DE0D0F80C01D0F896
:104F2000AC0028E0002026E0D0F80C01D0F8C40046
:104F300021E0D0F80C01D0F8BC001CE0B0F96C0006
:104F400019E0B0F97C0016E0B0F97E0013E0002013
:104F500011E000200FE0B0F970000CE0B0F9720031
:104F600009E0D0F8800006E0D0F8840003E0D0F833
:104F70000C01D0F884000870020A4A70020C8A7092
:104F8000000EC87070472DE9F05F05460C460026FC
:104F9000DFF8F0C100DF28782070D5F80C0190F818
:104FA0003D0040F070006070A41C0222D5F80C1186
:104FB000143100200B5C04F8013B401C0428F9D399
:104FC000D5F80C01807A2070D5F80C014089000AD0
:104FD0006070A41C921D93B2D5F80C111031002002
:104FE0000A5C04F8012B401C0428F9D31B1D99B25C
:104FF000D5F80C01007B04F8010B2878654A10B93C
:105000001078401C1070D5F80C0190F83D70062FF8
:1050100004D2DFE807F0030303030707807B04F8EB
:10502000010B0AE01278D20703D0807B04F8010B51
:1050300003E090F85C0004F8010BD5F80C01007E49
:105040002070D5F80C01008B000A6070A41C091DAB
:105050008AB2D5F80C111C3100200B5C04F8013B1E
:10506000401C0428F9D3D5F80C01807E2070D5F8B7
:105070000C01408B000A6070A41C921D93B2D5F8FD
:105080000C11203100200A5C04F8012B401C04287C
:10509000F9D31B1D9BB2D5F80C11243100200A5CFA
:1050A00004F8012B401C0428F9D31B1D9BB2D5F832
:1050B0000C11283100200A5C04F8012B401C042844
:1050C000F9D31B1D9BB2D5F80C112C3100200A5CC2
:1050D00004F8012B401C0428F9D31B1D9BB2D5F802
:1050E0000C11303100200A5C04F8012B401C04280C
:1050F000F9D31B1D9AB2D5F80C11343100200B5C8A
:1051000004F8013B401C0428F9D3121D204FB7F8C6
:105110003A112170080A6070A41C02EB4100801C47
:105120001FFA80F82878484380B24FF4A06C1A4BDD
:10513000FF2201EB000A12E060450CD203EB4001B4
:1051400001F6022991F8021A2170B9F80010090A33
:105150006170A41C02E022706270A41C401C824595
:10516000EAD8B7F838112170080A6070A41C08EB5F
:105170004100801C1FFA80F82878484380B201EB78
:1051800000091CE0D5A00008C1A10008A43000203F
:105190006C2F0020A000002058B8002060450AD2E3
:1051A00003EB400191F802A084F800A04988090AA5
:1051B0006170A41C02E022706270A41C401C814536
:1051C000ECD897F83E91B9F1100F01D94FF01009C2
:1051D00004F8019B08EB8900401C1FFA80FA4FF08D
:1051E0000008DFF840B44E4516D24FEAD80008F068
:1051F000070138441BF8011090F84001084206D01E
:10520000761C424621462846FFF755FE241D08F12C
:105210000108B8F1200FE6D3DFF80CC400DF5046D8
:10522000BDE8F09F2DE9F04105460C46DFF8FCC3D0
:1052300000DFD5F80C010023B0F84E20B0F84C1078
:105240008A4206D180F84930DFF8DCC300DF002055
:10525000DAE4F749B1F8381801FB020042F6385198
:1052600042182878207010786070A41C9088D1882B
:1052700000EB0140401C7DD002F1100100200E5CCB
:1052800004F8016B401C0428F9D390792070D08871
:10529000000A6070A41C02F10C0100200E5C04F8EE
:1052A000016B401C0428F9D3107A2070907A60704A
:1052B000107DA070908A000AE070241D02F1180190
:1052C00000200E5C04F8016B401C0428F9D3907D8B
:1052D0002070D08A000A6070A41C02F11C0100201A
:1052E0000E5C04F8016B401C0428F9D302F1200184
:1052F00000200E5C04F8016B401C0428F9D302F175
:10530000240100200E5C04F8016B401C0428F9D332
:1053100002F1280100200E5C04F8016B401C0428F7
:10532000F9D302F12C0100200E5C04F8016B401C43
:105330000428F9D302F1300100200E5C04F8016B5F
:10534000401C0428F9D32E20B94FB7F83A11782918
:1053500002D97821A7F83A1197F83A112170B7F8D5
:105360003A11090A6170A41CB7F83A1100EB410028
:10537000801C00E05BE086B202F13800002104E00E
:1053800010F801CB04F801CB491CB7F83AC1B1EBD6
:105390004C0FF5D3B7F83801F02802D9F020A7F860
:1053A000380197F838012070B7F83801000A6070AA
:1053B000A41CB7F8380106EB4000801C86B2B7F891
:1053C0003A0102EB40003830002104E010F801CB34
:1053D00004F801CB491CB7F838C1B1EB4C0FF5D339
:1053E000B7F83E01102802D91020A7F83E0197F81F
:1053F0003E0104F8010BB7F83E0106EB8000401CAB
:1054000086B2B7F83A01B7F8381102EB400000EB6A
:1054100041003830002104E010F8012B04F8012B82
:10542000491CB7F83E21B1EB820FF5D354E0121DB1
:105430000020FF2104F8011B401C0428FAD3111D91
:1054400000200E5C04F8016B401C0228F9D39688FA
:1054500002F1080100200F5C04F8017B401C0428C5
:10546000F9D302F10C0100200F5C04F8017B401C11
:105470000428F9D3107C2070108A000A6070A41CE4
:1054800002F1140100200F5C04F8017B401C042889
:10549000F9D302F1180100200F5C04F8017B401CD5
:1054A0000428F9D302F11C0100200F5C04F8017BF1
:1054B000401C0428F9D302F1200100200F5C04F8FD
:1054C000017B401C0428F9D324320020115C04F82D
:1054D000011B401C0428F9D3554AD5F80C01B2F839
:1054E0003A28B0F84E10521E914203DA491CA0F837
:1054F0004E1001E0A0F84E30DFF82CC100DF30463E
:1055000039E42DE9F04105460C462626DFF81CC19A
:1055100000DFD5F80C010023B0F84E10B0F84C2095
:10552000914206D180F84930DFF8FCC000DF00204E
:1055300021E43F4AB2F8382802FB010042F6385114
:1055400047183A1D2878207038786070A41C1046DF
:105550000021475C04F8017B491C0429F9D39079A8
:105560002070D088000A6070A41C02F1080000219D
:10557000475C04F8017B491C0429F9D31079207099
:1055800050796070107BA0709089000AE070241D33
:1055900002F1100100200F5C04F8017B401C04287C
:1055A000F9D3907B2070D089000A6070A41C02F1AE
:1055B000140100200F5C04F8017B401C0428F9D37F
:1055C00002F1180100200F5C04F8017B401C042844
:1055D000F9D302F11C0100200F5C04F8017B401C90
:1055E0000428F9D320320020115C04F8011B401C70
:1055F0000428F9D30E4AD5F80C01B2F83A28B0F8CD
:105600004E10521E914203DA491CA0F84E1001E0E0
:10561000A0F84E30DFF810C000DF304618E600205A
:105620007047000056B00008C1A10008D5A00008CE
:105630006C2F00200020F3E70020F1E70020EFE7C7
:1056400030B5012300F500511A040C46C1F80421BD
:10565000FE4D95F80211302905D821B195F80311B6
:1056600019B1002030BD002030BD0021421802F5E4
:10567000005282F80811491C3029F7D395F802012D
:10568000A4F8F801184630BDDAE7F148FCE700213C
:1056900000234218937082F8C23000EB4102A2F856
:1056A0008231491CC029F4D30021421802F500526E
:1056B00082F80811491C3029F7D30021421802F55D
:1056C000005282F83811491CC029F7D342F2F81170
:1056D000C0220A5270470020704770B50020DB4D91
:1056E00095F802613346002206E08C182479C02C1C
:1056F00001D3012070BD521C9A42F6D3CA18127908
:10570000C02A01D9012070BD95F8032106FB02F3E0
:10571000B1F8F420C02A01D89A4201D0022070BD0D
:10572000002207E08C1894F83440302C01D3042078
:1057300070BD521C9A42F5D370BD08448078704702
:105740000346002003EB4101002A03DA0022A1F8FE
:10575000822104E0B1F882311A44A1F88221BB4AC7
:10576000B1F88231B2F87C21934202D3A1F88221B0
:1057700001207047C1EBC10100EB810000F54170D1
:105780001C2102F0B2BC70B506460C46601C3F21DD
:1057900041EA002010600820107300235373012594
:1057A0009573D373137153719371D37113725372D1
:1057B0009372D372012221463046FFF7C1FF0128C0
:1057C00001D13019857070BD2DE9FF4F87B00F46AC
:1057D000149C9146302F68D89E4807EB071100EBC8
:1057E00001160798C7EBC70100EB8105B9F1010F5E
:1057F00009D131466846FFF718F905F541701C22BA
:10580000694602F040FC781C4FF0080B4FF0010A8B
:105810004FF00008B9F1000F09D0B9F1010F23D002
:10582000422141EA002020608B49EFB350E03F2144
:1058300041EA0020206084F80CB084F80D8084F8E0
:105840000EA084F80F8084F8048084F8058084F822
:10585000068084F8078084F8088084F8098084F83A
:105860000A8084F80B805CE0412141EA002020603E
:1058700005F542752878207128884FEA102060715C
:1058800028684FEA1040A07128684FEA1060E07164
:1058900028792072A8884FEA1020607268684FEA61
:1058A0001040A072686801E00EE0ACE04FEA1060C2
:1058B000A5F54275E07284F80CB084F80D8084F888
:1058C0000EA084F80F802CE0087880F001000870AA
:1058D00030460978FFF7ADF895F80413217195F873
:1058E0000613617140F08000A071B5F806033528F9
:1058F00032D03A2830D0452840D04A283ED084F8CB
:10590000078084F8088084F8098084F80A8084F885
:105910000B8084F80CB084F80D8084F80EA084F815
:105920000F80012239460798FFF70AFF01286AD144
:105930000798384480F8028095F8060310F00A0FA3
:105940002ED0D5F80803404200EE100A3046B8EEDB
:10595000C00AFFF792F82AE084F807A095F8100330
:105960002072B5F81003000A6072D5F81003000C1D
:10597000A072D5F81003000EE072CAE70220E071B1
:1059800095F810032072B5F81003000A6072D5F87C
:105990001003000CA072D5F81003000EE072B8E7F7
:1059A00095EDC20A3046B8EEC00AFFF766F8D5F8A2
:1059B0000C0390B100EE100A3046B8EEC00AFFF7B3
:1059C0006AF83046FFF7B2F83046FFF7B0F8D6F87D
:1059D0000C01817B30290BD00CE03046FFF766F8D4
:1059E00000EE100A3046B8EEC00AFFF754F8E8E7B8
:1059F000A0F80E8096F86400002804D006F1280074
:105A0000DFF858C000DF0BB0BDE8F08F2DE9F0479C
:105A10008146884614461D46B8F1300F73D24FF0C8
:105A2000FF3241464846FFF78BFE0A4908EB081251
:105A300001EB021640B93046FFF717F8302803D1C2
:105A400030460021FFF715F80AE000006C2F002017
:105A50005C960020AC370020A1000020A59D000826
:105A600008F1010044EA002709EB0800A22C44D009
:105A700056DC942C41D047DC812C71D034DCA4F16D
:105A80002104062C6AD89348DFF84CC200DF0028B6
:105A900064D09048FAF7FEFB0446002C5ED02760E5
:105AA000287820712888000A60712868000CA0718D
:105AB0002868000EE07128792072A888000A6072B8
:105AC0006868000CA0726868000EE072022221462D
:105AD0008248DFF80CC200DF01283FD12146BDE833
